:020000040800F2
:10000000A86C00209D0100086F1700082B1600083F
:100010006D17000855030008ED18000800000000E7
:10002000000000000000000000000000731700083E
:10003000570300080000000071170008B501000810
:10004000B7010008B7010008B7010008B7010008B0
:10005000B7010008B7010008B7010008B7010008A0
:10006000B7010008B7010008B7010008B701000890
:10007000B7010008B7010008B7010008B701000880
:10008000B7010008B7010008B7010008B701000870
:10009000B7010008B7010008B7010008B701000860
:1000A000B701000819180008B7010008B7010008D7
:1000B000B7010008B7010008B7010008B701000840
:1000C000B7010008B7010008B7010008B701000830
:1000D000B7010008B7010008B7010008B701000820
:1000E000B7010008B7010008B7010008B701000810
:1000F000B7010008B7010008B7010008B701000800
:10010000B7010008B7010008B7010008B7010008EF
:10011000B7010008B7010008B7010008B7010008DF
:10012000B7010008B7010008B7010008B7010008CF
:10013000B7010008B7010008B7010008B7010008BF
:10014000B7010008B7010008B7010008B7010008AF
:10015000B7010008B7010008B7010008B70100089F
:10016000B7010008B7010008B7010008B70100088F
:10017000B7010008B7010008B7010008000000003F
:10018000B7010008B7010008DFF80CD000F0D0F884
:1001900000480047CB560008A86C0020064880475E
:1001A00006480047FEE7FEE7FEE7FEE7FEE7FEE75C
:1001B000FEE7FEE7FEE7FEE7FD17000889010008FD
:1001C0002DE9F05F0546002092469B46884606468C
:1001D000814640241BE0284641464746224600F01F
:1001E00097F853465A46C01A914110D31146184603
:1001F000224600F07EF82D1A67EB01084F46224692
:100200000120002100F075F817EB00094E41201E77
:10021000A4F10104DFDC484631462A464346BDE8E6
:10022000F09F00000649074A0868504343F239022C
:10023000104408604008704701490860704700009A
:10024000D40000206D4EC64110B5431A934209D226
:100250008318881803E010F8011D03F8011D521ED1
:10026000F9D210BD40EA01039B0703D009E008C999
:10027000121F08C0042AFAD203E011F8013B00F86B
:10028000013B521EF9D210BDD2B201E000F8012BA1
:10029000491EFBD270470022F6E710B513460A4606
:1002A00004461946FFF7F0FF204610BD30B504465E
:1002B0000020034600E05B1C934203D2E05CCD5C6F
:1002C000401BF8D030BD30B50B460146002020223F
:1002D000012409E021FA02F59D4205D303FA02F553
:1002E000491B04FA02F52844151EA2F10102F1DCB3
:1002F00030BD202A04DB203A00FA02F100207047CA
:100300009140C2F1200320FA03F319439040704753
:10031000202A04DB203A21FA02F00021704721FA5A
:1003200002F3D040C2F120029140084319467047C1
:10033000064C074D06E0E06840F0010394E8070032
:1003400098471034AC42F6D3FFF722FFE0CC000808
:1003500000CD0008FEE77047064908B509684FF46C
:10036000FA52B1FBF2F14143009100BF491E0091E6
:10037000FBD208BD1800002038B50446006800F51F
:100380008050816941F480118161206800F58050BE
:10039000806900900120FFF7DFFF2068009900F5D9
:1003A0008050816138BD00002DE9F041044621B143
:1003B0004FF40060E060C000A060E0690025002804
:1003C00061D028462368402619683A4A1140D4E98A
:1003D00002273A43024342F4007008431860206841
:1003E0000768012000F072F8206807602068466006
:1003F00020684668012000F069F82068466020689F
:1004000085602068C560216888694FF64172104098
:1004100040F08000886120688669012000F056F86D
:10042000206886612068C5612068C569012000F0E8
:100430004DF82068C561226802F5805290691E4916
:1004400008401E4901439161206800F5805085698C
:10045000012000F03BF8206800F58050856120689D
:10046000174900F580500160206800F5805005684C
:10047000012000F02BF8206800F580500560A0698D
:10048000012803D009E04FF480609BE7206800F565
:100490008050C1690B4A1143C16160690A49828871
:1004A0000A640278D0F8010042EA00204864BDE8FE
:1004B000F08100000F8120FF233FDEF804002002BE
:1004C0008020C102400001000080024070B5044657
:1004D00000F052FC0546601C02D004480078044439
:1004E00000F04AFC401BA042FAD370BD0C00002073
:1004F0002DE9F04390F845400025012C0DD04FF038
:10050000010C80F845C0022480F8444044F2F457BE
:100510004FF000495E1E816217E00220BDE8F083C3
:1005200001EB4514C4F80090C5EBC51808EB48086A
:1005300002EB8808C4E90178B54204D204F120082E
:10054000C4F80C8000E0E1606D1C9D42E8D30268B5
:1005500002F58052D16080F844C0002180F8451037
:100560000846DBE72DE9F043914690F8452000244A
:10057000012A0AD0012680F84560022280F8442032
:100580004FF4801C5D1EC1621BE00220BDE8F083B9
:1005900001EB4412C2F800C0C4EBC41707EB4708D4
:1005A00009EB88079760C7691FB9176847F44007C8
:1005B0001760AC4203D202F12007D76000E0D1609F
:1005C000641C9C42E4D3026802F58052116180F8F9
:1005D0004460002180F845100846D7E710B590F830
:1005E0004510012913D0012280F84520022180F80E
:1005F0004410816A0C680023002C27DB0C68E4059A
:1006000018D5846B641C8463012C02D002E00220A4
:1006100010BD016341630C68C4F30D44241FC4631F
:10062000046BA4680464C96840F8281F0277437704
:10063000002010BD0C68A40503D58263C0E90C132B
:1006400002E0846B641C8463C968816200F8442FF3
:100650004370012010BD00002DE9FC474FF000065B
:100660000400B146009603D094F8440018B107E0A6
:100670000120BDE8FC8784F84560204600F0E2F8E0
:100680006648016841F480410160006800F48040E0
:1006900001906348016821F4000101600168226A49
:1006A00011430160206800F58050016841F00101AC
:1006B000016000F061FB05464FF4FA7709E000BFE6
:1006C00000F05AFB401BB84203D9032004F8440F42
:1006D00067E0206800F580500068C007F0D120680E
:1006E000006920F01C0500F0BBFC4E494E4A014455
:1006F000914202D245F0080516E04C494C4A0144AB
:10070000914202D245F00C050EE04A494A4A0144A2
:10071000914209D3494908444949884202D245F0E7
:10072000040501E045F01005206805614FF4004222
:100730000021204600F002FA0125A8BBFF20FFF7A8
:10074000C5FE606888B300F017FB804641F2883729
:100750006A460121204600F0E9F800F00DFBA0EB0D
:100760000800B84217D800984007F1D54FF48052DE
:100770000021204600F0E2F9B0B900F0FDFA804611
:100780006A460121204600F0D1F800F0F5FAA0EB0E
:100790000800B8420AD901212046FFF705FE04F8F7
:1007A000445F0320667064E724E018E00098800648
:1007B000E6D56A461F21204600F0B8F8D0B9009867
:1007C000C10603D54FF40061E16000E0E660400738
:1007D00001D5A66019E04FF48040A06015E0E06804
:1007E000A168C00840EA510082B20021204600F012
:1007F000A5F930B101212046FFF7D6FD84F8445019
:1008000036E740F6FF70FFF761FE49462046FFF7E6
:10081000CBFD84F8445000202BE700004438024010
:100820000438014000D3CEFEC0E1E40040F1E9FD10
:1008300040787D0100796CFC005A6202001F0AFAC0
:1008400080F0FA02F0B587B0044614216846FFF73D
:1008500022FD3149206888425BD13048002401687C
:1008600041F000710160016801F0007105910168BB
:1008700041F080610160016801F0806105910168CB
:1008800041F000610160016801F0006105910168BB
:1008900041F004010160016801F004010591016863
:1008A00041F001010160016801F001010591016859
:1008B00041F0020101600068022500F0020005908D
:1008C0003220CDE9000502AA03260B2782E8D000DA
:1008D0006946134800F06EF98620CDE9000502AAAA
:1008E000694682E8D0000F4800F064F94FF4605088
:1008F000CDE9000502AA694682E8D0000A4800F066
:1009000059F9002211463D2000F0BEFA3D2000F0CA
:10091000ADFA07B0F0BD0000008002403038024060
:100920000008024000000240000402402DE9F047A8
:10093000044690F84400914682281DD0822084F815
:100940004400226810694FF6FF7500F01C03208AEE
:1009500005EAC02018434FF4F86303EA811101430C
:1009600021F0020040F00105156100F005FA06468D
:1009700001274FF4803810E00220BDE8F08700BF67
:1009800000F0FAF9801B404505D304F8447F0020AD
:1009900060700320F1E720680569E807F0D120685E
:1009A000406981B2C9F8001084F844700020E4E77F
:1009B000F8B5044690F84500012839D0012584F89F
:1009C0004550022084F8440020680026016841F068
:1009D000080101602068006800902846FFF7BCFC11
:1009E0002168009808602068016841F004010160F6
:1009F0002068006800900120FFF7AEFC2168009895
:100A000008602046FFF7B8FC206800F58050816937
:100A100041F400518161206800F58050816941F006
:100A20000201816184F8445084F845600020F8BDDB
:100A30000220F8BDF0B590F845200023012A11D01E
:100A4000012780F84570022280F84420002459B123
:100A5000C66A3268002A0ADA122100F8441F44707C
:100A60000120F0BD0220F0BD00F8447FF7E740F21E
:100A7000F455A9420BD9B1FBF5FCB1FBF5F205FB2E
:100A80001C1CBCF1000F00D0521C012A43D132685B
:100A900042F040523260C26AC1F30C015160C16A37
:100AA0000A6842F000420A60C16AC968C16234E063
:100AB000D6F800C02CF0405CC6F800C033B9C66A56
:100AC000D6F800C04CF0805CC6F800C0C66A7560FD
:100AD000561EB34214D1C66AD6F800C04CF0005C72
:100AE000C6F800C0C2F10106C6EBC61606EB460604
:100AF000D0F82CC001EB8606C6F30C06CCF80460D7
:100B0000C66AD6F800C04CF0004CC6F800C0C66AF1
:100B10005B1CF668C6629342CAD3016801F5805136
:100B20004A69520705D504224A61016801F58051DE
:100B30004C6000F8447F44700020F0BD2DE9F04186
:100B4000044690F8440042281ED0422084F8440015
:100B5000236818694FF6FF7600F01C05208A06EA24
:100B6000C02028434FF4F86505EA8111014390B293
:100B700041F0030558612068056100F0FDF8064664
:100B800001274FF4803810E00220BDE8F08100BF5B
:100B900000F0F2F8801B404505D304F8447F0020A4
:100BA00060700320F1E720680569E807F0D184F858
:100BB0004470EAE72DE9F84F00224FF001080325C1
:100BC0004FF00F0E0B6808FA02F42340A3426ED1D7
:100BD0004E68012E05D0022E03D0112E01D0122E08
:100BE00012D186684FEA420C05FA0CF7BE43CF6873
:100BF00007FA0CF7374387604668A6430C79C4F3BD
:100C00000014944034434460C668570005FA07FC5A
:100C10008C6826EA0C06BC403443C4604C68022C45
:100C200001D0122C13D1D40800EB8404A346D4F8CD
:100C3000209054074FEAD46A0EFA0AF629EA060908
:100C40000E6906FA0AF646EA0906CBF8206006683D
:100C50000C7926EA0C0604F00304BC40344304601B
:100C60004C68E40065D5364C266846F4804626601C
:100C7000246822F0030604F480440094314C344488
:100C8000A446D4F808489607370F0EFA07F6B4437F
:100C90002D4EB04201D1002624E02C4EB04201D1AD
:100CA00001261FE02A4EB04202D102261AE040E09F
:100CB000284EB04201D1032614E0274EB04201D1A4
:100CC00004260FE0254EB04201D105260AE0244E4D
:100CD000B04201D1062605E0224EB04201D10726DE
:100CE00000E00826BE402643CCF808681E4E346853
:100CF0004F689C43FF0300D51C4334601A4C241DED
:100D000026684F689E43BF0300D51E432660164EDB
:100D1000083634684F689C43FF0200D51C4334609A
:100D2000114E0C3634684F689C43BF0200D51C43FB
:100D30003460521C102AFFF445AFBDE8F88F000064
:100D400044380240003001400000024000040240EC
:100D500000080240000C0240001002400014024053
:100D600000180240001C0240003C01400AB18161B1
:100D700070470904FBE700000148806870470000E5
:100D80000C0000200248816802781144816070479D
:100D90000C0000200B4810B5016841F4007101609F
:100DA000016841F480610160016841F48071016073
:100DB000032000F089F8002000F006F800F03EF86B
:100DC000002010BD003C024010B5014688B0002252
:100DD000192000F059F8192000F048F813480024B1
:100DE000016841F001010160006805A900F00100FF
:100DF0000690684600F014F900F038F90C494000FC
:100E0000B0FBF1F10C480B4A491E026040F2E73298
:100E1000C0E90324C0E9011400F018FB10B101205F
:100E200008B010BD044800F02DFBF9E7443802403B
:100E300040420F0000000140F83100200A4808B588
:100E4000016841F480410160006800F48040009036
:100E50000548001F016841F080510160006800F002
:100E60008050009008BD000044380240002809DB93
:100E700000F01F02012191404009800000F1E020B4
:100E8000C0F8001170470000F0B40E4B1B680C4610
:100E9000C3F30223C3F10705042D00D90425191D4E
:100EA000072901D2002300E0DB1E012606FA05F126
:100EB000491E214099409E40761E16403143F0BCA9
:100EC00000F026BD0CED00E0064900F007020868BE
:100ED0004FF6FF03184040EA0220034A104308601F
:100EE000704700000CED00E00000FA052DE9F04726
:100EF0000E46050065D0DFF81481D8F80000F7B27F
:100F000000F00F00B04207D288F80070D8F8000057
:100F100000F00F00B04254D128683D4C810712D533
:100F2000400703D5206840F4E0502060287800078F
:100F300003D5206840F4604020602068A96820F054
:100F4000F000084320602878C0072DD03049686839
:100F50000839012812D0022813D0032811D00968BB
:100F6000890700292DDA216821F00301014321605E
:100F7000FFF702FF814641F2883A0EE009688903D3
:100F8000EFE709688901ECE7FFF7F6FEA0EB09013E
:100F9000514502D90320BDE8F0872068696800F058
:100FA0000C00B0EB810FEFD1D8F80010404601F0F3
:100FB0000F01B14207D90770006800F00F00B0427E
:100FC00001D00120E7E72878400705D52068E968C7
:100FD00020F4E050084320602878000706D52068F8
:100FE000296920F4604040EAC100206000F04EF81A
:100FF0002168084AC1F30311515CC84006490860E2
:1010000006480068FFF7E0FE0020C4E7003C02400D
:101010000838024050CA00081800002010000020C4
:101020000F2202600C4A136803F003034360136845
:1010300003F0F0038360136803F4E053C3601268A5
:101040004FF4E05303EAD20202610448006800F062
:101050000F0008607047000008380240003C024062
:101060000148006870470000180000200448054946
:1010700000680968044AC1F34231515CC8407047B6
:10108000180000200838024060CA0008154810B552
:10109000006810F00C02144813D04110042A0FD03D
:1010A000082A0ED10F4C241F2268236802F03F0249
:1010B0005B0207D52068C0F38810A0FB010106E0A1
:1010C000084610BD2168C1F38811A1FB000100236F
:1010D000FFF776F82168C1F30141491C4900B0FBD4
:1010E000F1F010BD083802400024F4002DE9F84F5B
:1010F00004006ED02078DFF83C93C007A9F1040506
:101100004AD009F104000168C1F38101012908D026
:101110000068C0F3810002280AD1D9F8000040021B
:1011200006D52868800337D560680028E1D033E011
:101130006068B0F5803F10D0B0F5A02F286810D0BF
:1011400020F480302860286820F4802028606068BF
:10115000A8B1FFF711FE06460DE0286840F4803084
:10116000F4E740F480202860F7E700BFFFF704FEB3
:10117000801B642873D828688003F7D50CE0FFF73C
:10118000FBFD064605E000BFFFF7F6FD801B642867
:10119000F0D828688003F7D42078DFF89C82800795
:1011A0004FF0000A3ED5A348001D016811F00C0F56
:1011B00008D00068C0F3810002280BD1D9F80000E4
:1011C000400207D42868800716D5E068012800D1BE
:1011D00012E02BE1E068B8B10120C8F80000FFF789
:1011E000CBFD064605E000BFFFF7C6FD801B0228C9
:1011F000C0D828688007F7D52868216920F0F80052
:1012000040EAC10028600DE0C8F800A0FFF7B4FD77
:10121000064604E0FFF7B0FD801B02281FD82868AF
:101220008007F7D42078000722D5824E8348616971
:10123000703671B101210160FFF79EFD074604E0A1
:10124000FFF79AFDC01B022809D830688007F7D540
:101250000EE0C0F800A0FFF78FFD074605E082E032
:10126000FFF78AFDC01B02287DD830688007F7D4BD
:101270002078400768D5DFF8BCB100270BF13C0BA4
:10128000DBF80000C0000BD4DBF8001041F0805107
:10129000CBF80010DBF80000012700F08050009030
:1012A000674E3068C00510D4306840F480703060FC
:1012B000FFF762FD009005E0FFF75EFD0099401A20
:1012C000022850D83068C005F6D55A4EA0686C3652
:1012D00001280FD00528306810D020F001003060C0
:1012E000306820F004003060A068B8B1FFF744FD1A
:1012F00000900FE0306840F00100F4E740F0040097
:101300003060F7E7FFF738FD0099411A41F2883065
:10131000814266D830688007F4D50EE0FFF72CFDD7
:10132000009007E0FFF728FD0099411A41F288304C
:10133000814256D830688007F4D42FB1DBF8001012
:1013400021F08051CBF80010A069C8B33949091DBC
:101350000968C1F3810102294AD00228504607D00A
:10136000C8F8600000E03CE0FFF706FD04463BE003
:101370004746C8F86000FFF7FFFC064605E000BFDF
:10138000FFF7FAFC801B02282BD828688001F7D4CD
:10139000D4E907010843A16A2A4A490802EB01413E
:1013A000626A41EA8211084394F82C1040EA016114
:1013B000C9F8001001203866FFF7DEFC044606E09D
:1013C00036E000BFFFF7D8FC001B022809D82868C8
:1013D0008001F7D52CE000BFFFF7CEFC001B0228F0
:1013E00002D90320BDE8F88F28688001F4D41FE0FB
:1013F0000128F7D0D9F80000E26900F48001914299
:1014000014D1226A00F03F0191420FD147F6C0711A
:10141000626A0140914209D1A26A00F440319142CE
:1014200004D1E16A00F07060884201D00120D9E760
:101430000020D7E70438024000004742800E4742B0
:10144000007000400000FFFF7047704710B50400B7
:1014500003D094F83D0010B107E0012010BD00203A
:1014600084F83C00204600F00CF8022084F83D008F
:10147000211D206800F0D6F9012084F83D000020ED
:1014800010BD70470168CA6842F00102CA60006876
:10149000816801F00701062903D0016841F00101CC
:1014A000016000207047704770B50446006801690C
:1014B0004FF00005C943890715D4C168C94389079E
:1014C00011D4E91E0161012020772068806980071E
:1014D000204602D0FFF7E7FF04E000F098F820462E
:1014E00000F096F8257720680169C943490717D4A9
:1014F000C168C943490713D46FF004010161022098
:1015000020772068806910F4407F204602D0FFF7E2
:10151000CAFF04E000F07BF8204600F079F8257758
:1015200020680169C943090716D4C168C94309077E
:1015300012D46FF008010161042020772068C0698F
:101540008007204602D0FFF7AEFF04E000F05FF80E
:10155000204600F05DF8257720680169C943C90677
:1015600017D4C168C943C90613D46FF010010161D3
:10157000082020772068C06910F4407F204602D000
:10158000FFF791FF04E000F042F8204600F040F839
:10159000257720680169C943C90708D1C168C943D3
:1015A000C90704D1891E0161204600F033F8206884
:1015B0000169C943090609D4C168C943090605D4AC
:1015C0006FF0800101612046FFF73EFF206801694E
:1015D000C943490609D4C168C943490605D46FF017
:1015E00040010161204600F01FF820680169C943ED
:1015F00089060BD4C168C943890607D46FF020015E
:1016000001612046BDE87040FFF71FBF70BD704705
:101610007047000000680349884201D1FFF7B2BB60
:1016200070470000000001407047FEE72DE9F041DF
:1016300086B014216846FEF72EFE2B480024016870
:1016400041F010010160016801F01001059101688D
:1016500041F004010160016801F004010591016895
:1016600041F080010160016801F08001059101688D
:1016700041F001010160016801F00101059101687B
:1016800041F002010160016801F002010591016869
:1016900041F0080101600068144F00F00800059057
:1016A000002204213846FFF761FBDFF844804FF445
:1016B0007046002231464046FFF758FB0420009058
:1016C0000125CDE90154694638460394FFF772FAC3
:1016D0000096CDE90154694640460394FFF76AFA43
:1016E00006B0BDE8F0810000303802400010024032
:1016F000000C02400EB503F0D9FF13490020144A34
:101700000860091D104B0860091D08330860CDE909
:1017100000020E4902911A1F111F0E4804F09AFB95
:101720000C4804F0B1FD0B4890F82D004007094823
:1017300002D504F003FE01E004F0ACFDBDE80E406C
:10174000044801F0D5BC0000000000206D3F0008F7
:1017500009410008DC00002010B5034802F018FD24
:10176000BDE8104005F092BDDC000020FEE77047A8
:101770007047704730B593B030216846FEF78BFD57
:1017800014210CA8FEF787FD1A480025016841F0D6
:1017900080510160006800F0805011901648016887
:1017A00041F4804101600068022400F480401190FF
:1017B00001200090000401908001CDE9064008203E
:1017C00008904FF4A870CDE9090407200B906846F3
:1017D000FFF78CFC0CA90F2081E831004FF4A050DA
:1017E0000F90E002109005210CA8FFF77FFB13B0CB
:1017F00030BD0000403802400070004005480168DC
:1018000041F47001016003494FF0006080390860C5
:101810007047000088ED00E00148FFF745BE00007A
:10182000F8310020F0B50268254C264D264E274F92
:10183000274B4FF0804CA04209D0604507D0A8420A
:1018400005D0B04203D0B84201D0984204D122F072
:10185000700E4A6842EA0E02A0421BD0604519D0C1
:10186000A84217D0B04215D0B84213D0984211D038
:10187000184DA8420ED0184DA8420BD0174DA842C3
:1018800008D0174DA84205D0164DA84202D0164DDB
:10189000A84203D122F44075CA682A434D6922F058
:1018A00080022A4302608A68C2620A688262A04299
:1018B00001D0984201D10969016301214161F0BD64
:1018C000000001400004004000080040000C0040FF
:1018D0000004014000400140004401400048014034
:1018E00000180040001C004000200040FEE70000FF
:1018F0000FB4054B10B503A9044A029800F028F86C
:1019000010BC5DF814FB0000B3410008D8000020B3
:101910000907090E002804DB00F1E02080F800141C
:10192000704700F00F0000F1E02080F8141D7047B0
:1019300002E008C8121F08C1002AFAD17047704798
:10194000002001E001C1121F002AFBD170470000F6
:101950002DE9FF4F8BB09A460F460546002606E05C
:1019600025280BD052460D9990476D1C761C28787F
:101970000028F5D10FB03046BDE8F08F0024A04616
:101980000122604900E0044315F8013F203B02FAC0
:1019900003F00842F7D128782E2817D115F8010F47
:1019A00044F004042A280ED06FF02F022878A0F10A
:1019B000300109290AD808EB880102EB410100EB4C
:1019C00001086D1CF2E757F8048B6D1C2878692814
:1019D0003ED006DC0028CDD063280BD0642804D18B
:1019E00036E0732810D075284BD052460D99904799
:1019F000761C85E017F8040B8DF8000000208DF8A8
:101A00000100E946012003E057F8049B4FF0FF3046
:101A100061074FF0000401D40AE0641C44450DDA6C
:101A20008442FADB19F804100029F6D106E0641CA0
:101A30008442FCDB19F804100029F8D1264404E0A4
:101A400019F8010B52460D999047641EF8D257E0E1
:101A500001CF4FF00A0B002802DA40422D2102E0AC
:101A6000210504D52B218DF82410012103E0E10785
:101A700005D02021F7E70DF1200908910CE00021A5
:101A8000F9E701CF4FF00A0BF9E75946FEF71BFCC7
:101A900001F1300209F8012D0028F6D1ADEB090063
:101AA00000F1200B600701D44FF00108D84502DD9A
:101AB000A8EB0B0000E000208046002406E009A807
:101AC0005246005D0D999047641C761C089884422C
:101AD000F5DB04E0302052460D999047761CB8F1B2
:101AE0000001A8F10108F5DC05E019F8010B5246E8
:101AF0000D999047761CBBF10001ABF1010BF4DCB2
:101B00006D1C34E70928010058B1026A002A0FD081
:101B10005379082B0CD10968D269914208D100F0A1
:101B2000C3BA04A340F28B3210A114A0FFF7E0BEA9
:101B3000704700002E2E2F4D6964646C65776172CA
:101B400065732F54686972645F50617274792F4CA9
:101B50007749502F7372632F636F72652F697076A8
:101B6000342F646863702E63000000006E65746932
:101B70006620213D204E554C4C000000417373659A
:101B80007274696F6E2022257322206661696C650C
:101B900064206174206C696E6520256420696E2064
:101BA00025730A002DE9FC4105001AD02C6AECB11E
:101BB00000236382A16A4FF03C07B1F1FF3F4FF46D
:101BC00080364FF001024FF6FF7019D01E31B1FB85
:101BD000F7F1B14200D301460904090CA1820ED0ED
:101BE0000EE02DA340F2154239A103E02AA340F2F2
:101BF00017423EA143A0FFF77BFEBDE8FC81A28215
:101C0000E16AB1F1FF3F0CD01E31B1FBF7F1B142F7
:101C100000D301460904090C618100D16281618908
:101C2000E181216BB1F1FF3F0CD01E31B1FBF7F127
:101C3000B14200D301460904090CA18100D1A2815F
:101C4000A18921826289A1898A4201D301B163817C
:101C5000E17909B1206A08E0217F7F2901D8FF20BE
:101C600003E0C02901D36FF07F400090606A0190CB
:101C700028B9E0690099084040F0807001900A217D
:101C8000204601F02DFA01AB6A4604F11C012846FA
:101C900004F0CAFAB1E700002E2E2F4D6964646C7F
:101CA0006577617265732F54686972645F50617201
:101CB00074792F4C7749502F7372632F636F72655D
:101CC0002F697076342F646863702E630000000003
:101CD000646863705F62696E643A206E65746966F9
:101CE00020213D204E554C4C00000000646863707C
:101CF0005F62696E643A206468637020213D204E03
:101D0000554C4C00417373657274696F6E202225C7
:101D10007322206661696C6564206174206C696E51
:101D20006520256420696E2025730A0070B5046A59
:101D300005460821204601F0D3F9002204F11C01D8
:101D4000284601F091FEA079FF2801D2401CA07125
:101D50004FF4FA7140F2E730B0FBF1F0208170BD32
:101D600070B5294804684CE0206AA0B3417991B36A
:101D7000818A69B1418A491C89B24182828A914231
:101D800006D1204600F0E2FF204601F0B1F937E02D
:101D9000018A19B14A1E0282012906D0C189D1B136
:101DA0004A1EC281012917D02AE0256A2046697996
:101DB000012905D00A2903D0052901D004291FD102
:101DC00000F048FEA88A698A401A022818DB00EB56
:101DD000D0704008288213E0256A204669790129DD
:101DE00003D00A2901D005290AD101F00DF8A889EC
:101DF000698A401A022803DB00EBD0704008E881B2
:101E00002468002CB0D170BD500000202DE9F047AF
:101E1000994616460D4607001BD0002D1ED04FF4E4
:101E20009A744FF420722146362004F03BFBB0F147
:101E300000081BD0B8F80A00A246504506D232A3CB
:101E400040F271723EA14EA0FFF752FD032E12D157
:101E50000EE02DA340F2697253A103E02AA340F2E1
:101E60006A7259A146A0FFF743FD0020BDE8F08744
:101E70006879032808D1A8795B4C08B1606802E052
:101E8000FEF7D0F960602860D8F80440514620463B
:101E9000FEF701FA01202070607097F82C00A07006
:101EA000286803F0FFFB6060082E0AD0042E08D0DB
:101EB000072E06D0032E06D16879052801D0042804
:101EC00001D17868E060002039182218401C91F890
:101ED000261080B211770628F6D34448C4F8EC00E7
:101EE00004F1F001012335220C46002000F060FAD5
:101EF0003246214600F0A8FAB9F1000F01D0A9F846
:101F000000004046B2E700002E2E2F4D6964646C3D
:101F10006577617265732F54686972645F5061728E
:101F200074792F4C7749502F7372632F636F7265EA
:101F30002F697076342F646863702E630000000090
:101F4000646863705F6372656174655F6D73673A3F
:101F500020636865636B20746861742066697273BE
:101F60007420706275662063616E20686F6C6420F7
:101F700073747275637420646863705F6D73670057
:101F8000417373657274696F6E2022257322206617
:101F900061696C6564206174206C696E65202564DC
:101FA00020696E2025730A00646863705F63726540
:101FB0006174655F6D73673A206E65746966202190
:101FC0003D204E554C4C0000646863705F63726541
:101FD0006174655F6D73673A206468637020213DAA
:101FE000204E554C4C000000B40000206382536327
:101FF00010B50B4C2078002805D10AA3FF2217A1A9
:102000001FA0FFF775FC2078401E10F0FF00207025
:1020100004D1A0680AF000FB0020A06010BD000001
:10202000B40000202E2E2F4D6964646C65776172B8
:1020300065732F54686972645F50617274792F4CB4
:102040007749502F7372632F636F72652F697076B3
:10205000342F646863702E6300000000646863704E
:102060005F7063625F726566636F756E7428293A8C
:1020700020726566636F756E74206572726F720090
:10208000417373657274696F6E2022257322206616
:1020900061696C6564206174206C696E65202564DB
:1020A00020696E2025730A00FEB5046A06460C21DD
:1020B000204601F015F802AB042221463046FFF716
:1020C000A5FE050028D069680423F03132220F46AE
:1020D000BDF8080000F06CF9ADF80800E06903F005
:1020E000E1FA02463946BDF8080000F00BFAADF8F7
:1020F00008002A46394600F0D5FA0F484323CDE9B7
:1021000000600F480D4A294680680AF07DFB0646AC
:10211000284604F0C9FD01E04FF0FF36A079FF2802
:1021200001D2401CA07142F603104FF4FA71B0FBCB
:10213000F1F020813046FEBD80CB000884CB000842
:10214000B40000202DE9FE4F046A07464FF0000955
:1021500006212046C4F81C9000F0C2FF02AB012209
:1021600021463846FFF752FE06003BD07168022335
:10217000F0318A4639225546BDF8080000F018F9BA
:10218000ADF80800BA8C294600F028FAADF808002E
:1021900003233722294600F00BF9DFF88480ADF8DD
:1021A00008000025514618F80520BDF8080000F089
:1021B0004BF96D1CEDB2ADF80800032DF2D3324699
:1021C000514680B200F06EFA16484323CDE9007004
:1021D0001348154A401E314680680AF015FB304608
:1021E00004F062FDA079FF2801D2401CA071C1B2A9
:1021F000062902D20120884000E03C2000EB40018B
:10220000C1EBC0104FF6FF7101EAC0004FF4FA7144
:1022100000F2F310B0FBF1F020814846BDE8FE8FDC
:10222000B500002080CB000884CB000870B50B48B7
:10223000002504680EE0206A58B10189012903D9FC
:10224000A1F10101018104E003D10581204600F0E4
:10225000F1FF2468002CEED170BD0000500000207A
:1022600070B5046A0020154D20626062EA78144E51
:102270000AB1F268A2622A790AB1326901E0A26A5F
:102280005208E2626A790AB1726903E0A26AC2EB9B
:10229000C202D20822630969E161A97921B1B0695A
:1022A00003F000FA20620120E071E879002803D0F1
:1022B000F06903F0F7F9606270BD0000C000002013
:1022C0009467002010B5154C207800281ED1A06816
:1022D000002805D012A3E5221FA129A0FFF708FBC3
:1022E0000AF048F9A060B0B1417A442241F02001DF
:1022F00041722D4909F084FE43222B49A06809F060
:1023000019FF00222949A0680AF042F92078401CF0
:102310002070002010BD4FF0FF3010BDB400002031
:102320002E2E2F4D6964646C6577617265732F542E
:10233000686972645F50617274792F4C7749502FCD
:102340007372632F636F72652F697076342F6468C0
:1023500063702E6300000000646863705F696E63E1
:102360005F7063625F726566636F756E7428293A89
:10237000206D656D6F7279206C65616B00000000E7
:10238000417373657274696F6E2022257322206613
:1023900061696C6564206174206C696E65202564D8
:1023A00020696E2025730A0080CB00082D2C0008C0
:1023B0002DE9F0411D4604462844801C17460E4670
:1023C000442806D907A340F29A52144914A0FFF7F3
:1023D0008FFA3755641CA0B23554401C80B2BDE85A
:1023E000F08100002E2E2F4D6964646C6577617258
:1023F00065732F54686972645F50617274792F4CF1
:102400007749502F7372632F636F72652F697076EF
:10241000342F646863702E630000000058CC0008FD
:10242000417373657274696F6E2022257322206672
:1024300061696C6564206174206C696E6520256437
:1024400020696E2025730A0070B515460E460446B5
:10245000442806D305A340F2A65212A11FA0FFF7FD
:1024600047FA3555641CA0B270BD00002E2E2F4DCA
:102470006964646C6577617265732F54686972640E
:102480005F50617274792F4C7749502F7372632FAC
:10249000636F72652F697076342F646863702E6382
:1024A00000000000646863705F6F7074696F6E5F36
:1024B000627974653A206F7074696F6E735F6F75BF
:1024C000745F6C656E203C20444843505F4F50540D
:1024D000494F4E535F4C454E0000000041737365F9
:1024E0007274696F6E2022257322206661696C65A3
:1024F00064206174206C696E6520256420696E20FB
:1025000025730A0070B50546001D14460E46442882
:1025100006D90BA340F2B75217A126A0FFF7E8F99E
:10252000200E70556D1CA8B2210C3154401C80B295
:10253000210A3154401C80B23454401C80B270BD1A
:102540002E2E2F4D6964646C6577617265732F540C
:10255000686972645F50617274792F4C7749502FAB
:102560007372632F636F72652F697076342F64689E
:1025700063702E6300000000646863705F6F7074A6
:10258000696F6E5F6C6F6E673A206F7074696F6E03
:10259000735F6F75745F6C656E202B2034203C3D3B
:1025A00020444843505F4F5054494F4E535F4C4571
:1025B0004E000000417373657274696F6E202225AE
:1025C0007322206661696C6564206174206C696E99
:1025D0006520256420696E2025730A0070B50446C5
:1025E000801C15460E46442806D907A340F2AE5279
:1025F00013A122A0FFF77CF9280A3055641CA0B271
:102600003554401C80B270BD2E2E2F4D6964646C11
:102610006577617265732F54686972645F50617287
:1026200074792F4C7749502F7372632F636F7265E3
:102630002F697076342F646863702E630000000089
:10264000646863705F6F7074696F6E5F73686F72D8
:10265000743A206F7074696F6E735F6F75745F6C1E
:10266000656E202B2032203C3D20444843505F4F74
:102670005054494F4E535F4C454E000041737365B3
:102680007274696F6E2022257322206661696C6501
:1026900064206174206C696E6520256420696E2059
:1026A00025730A00FF230B54401C80B2002302E074
:1026B0000B54401C80B24428FAD3F03081B210464B
:1026C00004F0C6BB2DE9F04F85B08246A149002039
:1026D0000490C8600861BAF80A002C2817D3BAF829
:1026E00008004FF0F00901F10C07564607E000BF63
:1026F000A9EB0201801A36681FFA81F980B236B15F
:10270000728949464A45F3D90C460290F0E06FF0D1
:10271000010005B0BDE8F08FA11C89B24FF0FF3574
:102720000191A142F3D37189621C914203D90399AB
:102730002144497803E0316809B1496809783428AF
:10274000884634D007DC98B1012814D003281AD069
:10275000332808D122E0352850D0362857D03A28DF
:102760005DD03B2863D04FF00008002867D02DE0F3
:1027700000218846F9E7042903D077A340F22E62AE
:1027800011E00625F1E74FF00408042904D272A3F2
:1027900040F233627EA1B2E00725E6E7042904D0C7
:1027A0006DA340F241627FA1A9E00325DDE7012985
:1027B00003D069A340F24F6225E0B9F1F00F04D0D5
:1027C00065A340F251627AA199E000256018801C4F
:1027D000B0F5803F9BD284B2B8F1000F7AD00020D0
:1027E0000090082D06D35CA34FF4CF6276A17BA0A6
:1027F000FFF77EF8785D002823D06BE0012904D034
:1028000055A340F255627FA179E00125ADE7042987
:1028100003D051A340F25962C5E70225A5E7042978
:1028200003D04DA340F25D62BDE704259DE7042976
:1028300003D049A340F26162B5E7052595E794B25C
:1028400048E04046B8F1040F00D304208346024616
:1028500069463046019B04F09BF958457FF457AF19
:10286000B8F1040F1ED95FEA887004D03AA340F291
:10287000816267A143E001207855009802F012FFC1
:102880000146694840F82510A8F1040000F0FF084F
:1028900001980199001D80B28842FFF438AF6D1C89
:1028A00001909EE7B8F1040F07D0B8F1010F08D0EE
:1028B00029A34FF4D2625DA121E0009802F0F2FE5C
:1028C00001E09DF8000000900120785556480099DD
:1028D00040F825107089A04217D8211A8CB20299AD
:1028E000081A80B202908442BFF411AF366816B164
:1028F000706803900AE018A340F29D6250A137A0CF
:10290000FEF7F6FF6FF0050003E73EB10298844240
:1029100004D20398005DFF287FF4FEAE387848B1FA
:10292000414800210068397001280ED0022804D0E7
:10293000032808D004980028E6D0002004904FF027
:102940002C096C20D1E6012004904FF06C09EC209A
:10295000CBE60000B40000202E2E2F4D6964646C7D
:102960006577617265732F54686972645F50617234
:1029700074792F4C7749502F7372632F636F726590
:102980002F697076342F646863702E630000000036
:102990006C656E203E3D206465636F64655F6C65A9
:1029A0006E0000006C656E203D3D2034000000008C
:1029B0006F7665726C6F616420696E2066696C6504
:1029C0002F736E616D650000636865636B206465DD
:1029D000636F64655F69647800000000417373652C
:1029E0007274696F6E2022257322206661696C659E
:1029F00064206174206C696E6520256420696E20F6
:102A000025730A006C656E203D3D203100000000FA
:102A10006465636F64655F6C656E202525203420D6
:102A20003D3D20300000000094670020696E766113
:102A30006C6964206465636F64655F6C656E00003B
:102A40006E657874207062756620776173206E758C
:102A50006C6C00002DE9FC47046A074604212046FF
:102A600000F03EFB01AB032221463846FFF7CEF9CA
:102A700006003BD071680223F031894639224D4669
:102A8000BDF80400FFF794FCADF80400BA8C2946A9
:102A9000FFF7A4FDADF80400032337222946FFF712
:102AA00087FCDFF88080ADF804000025494618F85F
:102AB0000520BDF80400FFF7C7FC6D1CEDB2ADF8B2
:102AC0000400032DF2D33246494680B2FFF7EAFDF7
:102AD00014480097401E4323134A3146806809F08A
:102AE000F3FD0546304604F0DFF801E04FF0FF3516
:102AF000A079FF2801D2401CA071C0B20A2804D2DC
:102B00004FF47A7110FB01F001E042F2107080B2D4
:102B10004FF4FA7100F2F310B0FBF1F02081284677
:102B2000BDE8FC87B500002084CB00082DE9FC47F8
:102B3000046A07460321204600F0D2FA01AB0322C3
:102B400021463846FFF762F906004FD0716802232C
:102B5000F031894639224D46BDF80400FFF728FCC4
:102B6000ADF804004FF410722946FFF737FDADF8B9
:102B70000400042332222946FFF71AFCADF80400B2
:102B8000E06902F08FFD02462946BDF80400FFF718
:102B9000B9FCADF80400032337222946FFF708FCEF
:102BA000DFF88080ADF80400002500BF18F805208C
:102BB0004946BDF80400FFF747FC6D1CEDB2ADF8C7
:102BC0000400032DF2D33246494680B2FFF76AFD76
:102BD00014480097401E4323134A3146806809F089
:102BE00073FD0546304604F05FF801E04FF0FF3515
:102BF000A079FF2801D2401CA071C0B20A2804D2DB
:102C00004FF47A7110FB01F001E042F2107080B2D3
:102C10004FF4FA7100F2F310B0FBF1F02081284676
:102C2000BDE8FC87B500002084CB00082DE9F04109
:102C30004248516816464468256A002D79D02879A3
:102C4000002876D070892C2873D30878022870D198
:102C5000002094F82C2008E023180F1893F8263051
:102C60003F7FBB4265D1401CC0B2824201D90628D9
:102C7000F2D3486802F016FD2968884259D12946E6
:102C80003046FFF71FFD08BB2D494878F0B12D4AAB
:102C900077681079052804D0062821D0022836D07C
:102CA00047E06879012806D0032814D0042812D000
:102CB000052810D03DE039462046FFF7D1FA94F8B8
:102CC0002D00000703D52046FFF730F831E02046FD
:102CD000FEF768FF2DE039462046FFF7C1FAF6E718
:102CE0006879032805D0012803D0042801D00528DD
:102CF0001FD10C21206A00F0F3F9134B20461A462D
:102D0000114603F091FA2046FFF71CFA11E06879AA
:102D100006280ED12546246A887850B100202081EB
:102D2000906802F0BFFCA0613869E061284600F0BD
:102D3000D7F83046BDE8F04103F0B6BF3832002086
:102D4000C00000209467002080CB00082DE9FE43DE
:102D5000046A0746002C51D0607900284ED0A06943
:102D600002900025A561E561256265622563E56243
:102D7000A562A58265822582E581384600F04CFA7D
:102D800060B301AB072221463846FFF73FF8060043
:102D900024D071680423F03136228846BDF804003F
:102DA000FFF706FBADF80400029802F07BFC024638
:102DB0004146BDF80400FFF7A5FBADF8040032461C
:102DC0004146FFF76FFC0E480097432302AA3146A5
:102DD000806809F079FC304603F066FF094B3846FD
:102DE0001A46114603F020FA0021204600F078F937
:102DF0002079002802D0FFF7FBF82571BDE8FE839B
:102E0000B400002080CB00082DE9FC47046A074687
:102E10000521204600F064F901AB03222146384623
:102E2000FEF7F4FF06003CD071680223F0318946BA
:102E300039224D46BDF80400FFF7BAFAADF8040098
:102E4000BA8C2946FFF7CAFBADF8040003233722EA
:102E50002946FFF7ADFADFF88480ADF804000025BD
:102E6000494618F80520BDF80400FFF7EDFA6D1C7F
:102E7000EDB2ADF80400032DF2D33246494680B2DC
:102E8000FFF710FC15480097401E432304F1180279
:102E90003146806809F018FC0546304603F004FF0F
:102EA00001E04FF0FF35A079FF2801D2401CA0714E
:102EB000C0B20A2804D24FF4FA6110FB01F001E01D
:102EC00044F6206080B24FF4FA7100F2F310B0FBC8
:102ED000F1F020812846BDE8FC870000B500002005
:102EE0002DE9FE43070073D03C6A002C7CD0012101
:102EF000204600F0F5F802AB032221463846FEF7E3
:102F000085FF06007AD071680223F03189463922A4
:102F10004D46BDF80800FFF74BFAADF80800BA8C33
:102F20002946FFF75BFBADF808000423322229464F
:102F3000FFF73EFAADF80800E06902F0B3FB024685
:102F40002946BDF80800FFF7DDFAADF808000423B4
:102F500036222946FFF72CFAADF80800A06902F0E6
:102F6000A1FB02462946BDF80800FFF7CBFAADF8F1
:102F70000800032337222946FFF71AFADFF8BC803E
:102F8000ADF80800002500BF18F805204946BDF837
:102F90000800FFF759FA6D1CEDB2ADF80800032DDB
:102FA000F2D33246494680B2FFF77CFB24484323E4
:102FB000CDE900702148234A401E3146806809F05F
:102FC00023FC0546304603F06FFE19E000E00BE0FD
:102FD0001DA340F277122AA130A0FEF789FC6FF002
:102FE0000F00BDE8FE8309E017A340F2791235A176
:102FF0002AA0FEF77DFC6FF00500F2E74FF0FF35E9
:10300000A079FF2801D2401CA071C0B2062802D2CC
:103010000121814000E03C2101EB4100C0EBC110E7
:103020004FF6FF7101EAC0004FF4FA7100F2F3109D
:10303000B0FBF1F020812846D3E70000B500002066
:1030400080CB000884CB00082E2E2F4D6964646C61
:103050006577617265732F54686972645F5061723D
:1030600074792F4C7749502F7372632F636F726599
:103070002F697076342F646863702E63000000003F
:10308000646863705F73656C6563743A206E657421
:10309000696620213D204E554C4C000041737365FC
:1030A0007274696F6E2022257322206661696C65D7
:1030B00064206174206C696E6520256420696E202F
:1030C00025730A00646863705F73656C6563743AA6
:1030D000206468637020213D204E554C4C00000058
:1030E00042798A4203D04171002181710181704788
:1030F00070B505006FF00F041AD095F82D00C007C9
:103100001BD0A88C2C6A4FF0FF36B0F5107F0DD382
:10311000002C1BD0207908B1FEF76AFF342120462D
:10312000FDF7B9F8FFF7CEF8002816D0304670BD8D
:1031300014A340F2E72221A103E012A34FF43A7254
:1031400022A12BA0FEF7D4FB204670BD342002F054
:10315000B3FB0400EAD02C62E0E70120207195F86F
:103160002D00400705D402212046FFF7B9FF0020BB
:1031700070BD2846FEF7E6FF0028F9D02846FFF785
:10318000E5FDD3E72E2E2F4D6964646C657761727F
:1031900065732F54686972645F50617274792F4C43
:1031A0007749502F7372632F636F72652F69707642
:1031B000342F646863702E63000000006E657469CC
:1031C0006620213D204E554C4C0000006E65746910
:1031D00066206973206E6F742075702C206F6C648C
:1031E000207374796C6520706F72743F000000006A
:1031F000417373657274696F6E2022257322206695
:1032000061696C6564206174206C696E6520256459
:1032100020696E2025730A0040B1006A30B1407900
:103220000A2805D0052803D0042801D000207047C3
:103230000120704710B5026A044651790C290BD061
:10324000062909D001290BD0082918D0032926D135
:103250009079022820461ED3BDE81040FEF772BFC9
:1032600090790528204603D8BDE81040FFF738BE06
:10327000FFF76CFD2046BDE81040FFF739BF90799D
:103280000128204603D8BDE81040FEF74FBDBDE839
:103290001040FEF787BCBDE81040FFF747BC10BDEB
:1032A00070B505460C46880706D006A34FF4B672E3
:1032B00010A118A0FEF71CFBA86800682060A86891
:1032C000046070BD2E2E2F4D6964646C6577617249
:1032D00065732F54686972645F50617274792F4C02
:1032E0007749502F7372632F636F72652F6D656D11
:1032F000702E63006D656D705F667265653A206D56
:10330000656D2070726F7065726C7920616C696791
:103310006E656400417373657274696F6E20222557
:103320007322206661696C6564206174206C696E2B
:103330006520256420696E2025730A0010B5806819
:103340000468002C0CD021680160A00706D005A3FA
:103350004FF48C720FA118A0FEF7CAFA204610BDD8
:10336000002010BD2E2E2F4D6964646C657761724C
:1033700065732F54686972645F50617274792F4C61
:103380007749502F7372632F636F72652F6D656D70
:10339000702E63006D656D705F6D616C6C6F633A6C
:1033A000206D656D702070726F7065726C79206130
:1033B0006C69676E65640000417373657274696F50
:1033C0006E2022257322206661696C656420617419
:1033D000206C696E6520256420696E2025730A00C3
:1033E00070B5094D0646002404EB440005EBC0000F
:1033F000017D29B18068B04202D1204600F036F943
:10340000641C0A2CF0DB70BDB46700202DE9F74F77
:1034100084B04FF00A0B00240646DA465F46D946D0
:1034200002940194CDF80040514904EB440001EBB3
:10343000C008039098F814500A2F1DD0002D2AD0F0
:10344000012D08D0022D06D24AA340F2231257A123
:1034500066A0FEF74DFA9EB13168D8F804008142AB
:103460000ED1069820B1D8F808100698814207D1ED
:10347000204607B0BDE8F08F002DE1D127460AE0D5
:10348000012D16D0022D06D3B8F8120000998842FB
:1034900001D3A2460090641C24B20A2CC4DB059818
:1034A00081074FF0FF30E4D40A2F16D018DA3C46DB
:1034B0003EE02F49039851F830000028B8F8120078
:1034C00005D002998842E6D3A1460290E3E701992C
:1034D0008842E0D3A3460190DDE70599C907C8D02B
:1034E0005146BAF10A0F0EDA0C46214801EB4401AD
:1034F00050F8310080B11FA340F26D1245A13BA0EE
:10350000FEF7F6F908E05946BBF10A0F03DB49461E
:10351000B9F10A0FADDA0C460A2C06DB15A340F20E
:103520007F1242A131A0FEF7E3F9204600F09EF899
:103530000A2C06DB0FA340F283123CA12BA0FEF75E
:10354000D7F90B4804EB440100EBC105287D30B1ED
:1035500008A34FF4C2723AA124A0FEF7C9F90EB134
:1035600030686860002068820698A86080E70000E4
:10357000B46700202E2E2F4D6964646C65776172EC
:1035800065732F54686972645F50617274792F4C4F
:103590007749502F7372632F636F72652F6970764E
:1035A000342F6574686172702E63000073746174E7
:1035B00065203D3D204554484152505F535441548D
:1035C000455F50454E44494E47207C7C20737461D2
:1035D0007465203E3D204554484152505F5354414C
:1035E00054455F535441424C45000000417373659C
:1035F0007274696F6E2022257322206661696C6582
:1036000064206174206C696E6520256420696E20D9
:1036100025730A006172705F7461626C655B695D3D
:103620002E71203D3D204E554C4C000069203C2021
:103630004152505F5441424C455F53495A45000046
:103640006172705F7461626C655B695D2E73746139
:103650007465203D3D204554484152505F535441CC
:1036600054455F454D5054590000000070B5074C5B
:1036700000EB4005002654F8350018B103F014FBA8
:1036800044F8356004EBC500067570BDB4670020D2
:103690002DE9F04385B00D00074609D07C684FF452
:1036A00080782088404542D1207906283FD109E022
:1036B00021A340F28A222EA131A0FEF719F905B00C
:1036C000BDE8F0836079042831D1608808282ED1C4
:1036D000D4F80E000490A169686820B1814202D13B
:1036E0000126334601E00026022304F10802914638
:1036F00004A9284600F0ACFBE088404503D0B0F5B3
:10370000007F14D10FE096B1022204ABCDE9023262
:10371000291DCDE9001905F1260319464A46284618
:1037200000F096FA03E004A92846FEF7EDF93846C2
:1037300003F0BAFAC3E700002E2E2F4D6964646CC3
:103740006577617265732F54686972645F50617246
:1037500074792F4C7749502F7372632F636F7265A2
:103760002F697076342F6574686172702E63000063
:103770006E6574696620213D204E554C4C0000005A
:10378000417373657274696F6E20222573222066FF
:1037900061696C6564206174206C696E65202564C4
:1037A00020696E2025730A00FEB515460E460400FA
:1037B00006D143A340F21E324FA153A0FEF798F862
:1037C00036B93FA340F21F3259A14FA0FEF790F83F
:1037D00035B93BA34FF4487258A14BA0FEF788F8C7
:1037E0002146286800F072FE08B1584B3FE0286877
:1037F000C0F303110E2925D0A168636800EA010215
:103800000B409A4208D080B2A0F57E41A93903D07E
:10381000E068B0B304F10C054D4B4E481A7802EB4A
:10382000420100EBC1010F7D022F2ED38F68A7420A
:103830002BD12F6849688F4227D13146204600F0AE
:103840008BF8FEBD01208DF8040000208DF80500E6
:103850005E208DF80600687801AB00F07F008DF8DF
:103860000700A8788DF80800E8788DF809004FF473
:103870000060009004F126023146204600F0C8FBAB
:10388000FEBDFFE76FF00300FAE7002202EB420102
:1038900000EBC1010F7D022F08D38F68A74205D12D
:1038A0002F6849688F4201D11A70C6E7521CD2B204
:1038B0000A2AEBD332462946204600F0D5F8DFE746
:1038C0002E2E2F4D6964646C6577617265732F5479
:1038D000686972645F50617274792F4C7749502F18
:1038E0007372632F636F72652F697076342F6574FE
:1038F000686172702E6300006E6574696620213DF8
:10390000204E554C4C000000417373657274696F12
:103910006E2022257322206661696C6564206174C3
:10392000206C696E6520256420696E2025730A006D
:103930007120213D204E554C4C000000697061649F
:10394000647220213D204E554C4C000068CA00088E
:10395000C8000020B46700202DE9F843064615464C
:1039600088461C4802EB450100EBC104207D02287B
:1039700006D219A340F2EE2225A131A0FDF7B8FF2F
:10398000144A05EB4501207D02EBC1050C350228E8
:1039900013D1608A0327B0F58E7F04D9211D3046EC
:1039A00000F010FA07E0B0F5877F06D32A46211D04
:1039B000304600F00DFA00B927754FF40060009012
:1039C0002B4606F126024146304600F021FBBDE8B9
:1039D000F8830000B46700202E2E2F4D6964646CBC
:1039E0006577617265732F54686972645F506172A4
:1039F00074792F4C7749502F7372632F636F726500
:103A00002F697076342F6574686172702E630000C0
:103A10006172705F7461626C655B6172705F696432
:103A2000785D2E7374617465203E3D204554484195
:103A300052505F53544154455F535441424C4500EA
:103A4000417373657274696F6E202225732220663C
:103A500061696C6564206174206C696E6520256401
:103A600020696E2025730A002DE9FC5F824626300E
:103A700001900E46086814464FF0FF374FF0000BD8
:103A8000514600F023FD80B93068C0F303110E29C0
:103A90000BD056B148B1524601213046FFF7B6FC73
:103AA000050005D540B2BDE8FC9F6FF00F00FAE7B6
:103AB0007F2D06D337A340F2C13244A147A0FDF7C2
:103AC00017FF05F0FF094F4909EB490801EBC8054D
:103AD000287D00280ED0012808D0022806D22DA368
:103AE00040F2CD3248A13DA0FDF702FFBBF1000F2F
:103AF00006D104E001202875C5F808A000E034B91B
:103B00003146504600F05EF90746002CCBD0287DA8
:103B10003C4E02280ED346494FF4006005F10C03D9
:103B200081F80090009021465046019A00F070FA0A
:103B300007462DE001282BD1254640F2F137688950
:103B40002989884207D1286828B112A33A4639A1A9
:103B500022A0FDF7CDFE287B400607D522464FF474
:103B600020710E2002F0D6FE044605E02D68002DDF
:103B7000E5D1204603F006FA44B156F8380008B102
:103B800003F092F846F83840002701E04FF0FF3785
:103B9000384688E72E2E2F4D6964646C6577617214
:103BA00065732F54686972645F50617274792F4C29
:103BB0007749502F7372632F636F72652F69707628
:103BC000342F6574686172702E63000074797065BB
:103BD000206F766572666C6F7700000041737365C5
:103BE0007274696F6E2022257322206661696C658C
:103BF00064206174206C696E6520256420696E20E4
:103C000025730A00B46700206172705F7461626C92
:103C1000655B695D2E7374617465203D3D20504580
:103C20004E44494E47206F7220535441424C450048
:103C3000C80000206E6F207061636B657420717521
:103C40006575657320616C6C6F7765642100000099
:103C50002DE9FF4F81B09846DDE90FA9DDF838B0B6
:103C600006004FF0000706D12CA340F2574239A1BD
:103C70003CA0FDF73DFE4FF420721C210E2002F007
:103C800011FC050046D068891C2806D223A340F207
:103C900062423EA133A0FDF72BFE6C68119801F043
:103CA00003FDE08096F82C00062806D01BA340F206
:103CB000694243492BA0FDF71BFED8F80010A16014
:103CC000B8F80400A081DAF80010C4F81210BAF8AD
:103CD0000400E082DBF80000C4F80E00D9F8000010
:103CE000A0614FF480702080082060800620207141
:103CF0000420607140F60600DDE9022300902946A9
:103D0000304600F085F9284602F0CEFF384605B06F
:103D1000BDE8F08F4FF0FF30F9E700002E2E2F4D59
:103D20006964646C6577617265732F546869726445
:103D30005F50617274792F4C7749502F7372632FE3
:103D4000636F72652F697076342F65746861727065
:103D50002E6300006E6574696620213D204E554C2F
:103D60004C000000417373657274696F6E202225E8
:103D70007322206661696C6564206174206C696ED1
:103D80006520256420696E2025730A0063686563D9
:103D90006B20746861742066697273742070627538
:103DA000662063616E20686F6C6420737472756343
:103DB00074206574686172705F686472000000004E
:103DC0009CCC0008014A00F003B8000068CA000853
:103DD0007FB5064D031D0124CDE90035CDE9021460
:103DE00022331946FFF734FF04B070BD6ECA0008D5
:103DF00070B5164D002400BF04EB440005EBC00273
:103E0000117DF1B1508A401C80B25082B0F5967F8E
:103E10000AD2012906D003290AD004290AD001298F
:103E20000BD00EE0052808D32046FFF71FFC08E062
:103E3000042000E00220107503E0111D9068FFF7D8
:103E4000C1FF641C0A2CD7DB70BD0000B4670020E2
:103E5000F8B5044690F82C001F4616460D46062875
:103E600006D020A340F2A9122CA135A0FDF740FDF9
:103E70009DB1286888B1214600F028FB68B92878F0
:103E8000C0F303100E2808D0224639462846FFF713
:103E9000BDFA002804DA40B2F8BD6FF00F00F8BD9B
:103EA00000EB40013048022300EBC102137594601F
:103EB0003368D360B38813820023538250F83150A3
:103EC00075B140F831304FF400600090334604F192
:103ED00026022946204600F09BF8284602F0E4FE20
:103EE0000020F8BD2E2E2F4D6964646C65776172D9
:103EF00065732F54686972645F50617274792F4CD6
:103F00007749502F7372632F636F72652F697076D4
:103F1000342F6574686172702E6300006E65746979
:103F2000662D3E6877616464725F6C656E203D3D0E
:103F3000204554485F4857414444525F4C454E0029
:103F4000417373657274696F6E2022257322206637
:103F500061696C6564206174206C696E65202564FC
:103F600020696E2025730A00B46700202DE9F04116
:103F7000044640890E270D460E283CD9E07B18B92F
:103F800095F83000401CE073606801788689CA07A4
:103F900014D0012905D006221C49FCF787F948B145
:103FA0000CE0417851B980785E2807D1607B40F001
:103FB000100002E0607B40F008006073082E03D020
:103FC000B6F5C16F17D10DE095F82D00000712D599
:103FD0003946204603F01CF868B92946204600F00F
:103FE000BDFB10E095F82D00000704D539462046AA
:103FF00003F00EF818B1204602F056FE03E0294601
:104000002046FFF745FB0020BDE8F08168CA0008A4
:104010002DE9F04104461F4690460E46069801F0F1
:1040200043FB05460E21304602F0D8F918B16FF077
:104030000100BDE8F0817068858139680160B98848
:104040008180D8F80020C0F80620B8F8041041811B
:1040500094F82C00062806D006A34FF4997213A1F9
:104060001FA0FDF745FC31462046A269BDE8F0419E
:10407000104700002E2E2F4D6964646C65776172C5
:1040800065732F54686972645F50617274792F4C44
:104090007749502F7372632F6E657469662F65744C
:1040A0006865726E65742E63000000006E65746949
:1040B000662D3E6877616464725F6C656E206D7515
:1040C0007374206265203620666F7220657468659F
:1040D000726E65745F6F75747075742100000000F6
:1040E000417373657274696F6E2022257322206696
:1040F00061696C6564206174206C696E652025645B
:1041000020696E2025730A0010B5040006D10BA3A8
:1041100040F20D220EA112A0FDF7EAFB732084F8F5
:104120002E00742084F82F00174860611748A061A2
:10413000204601F06BF9002010BD00002E2E2F53F9
:1041400072632F65746865726E657469662E6300AC
:104150006E6574696620213D204E554C4C00000070
:10416000417373657274696F6E2022257322206615
:1041700061696C6564206174206C696E65202564DA
:1041800020696E2025730A00A9370008C155000870
:1041900070B5054601F0B4F9040009D02A69294632
:1041A0009047002804D02046BDE8704002F07CBD56
:1041B00070BD38B504468DF8000069460320ABBEDB
:1041C000204638BD0A46032100F0F4B82DE9FE4F21
:1041D0008A4644490446D1F8088098F80000000750
:1041E000850E142D79D36089042876D36068007811
:1041F000002872D0082870D1486901F11407C0F373
:1042000003120E2A69D08946096800F05FF9002878
:1042100063D12089082860D305F10E010E4620469F
:1042200002F0DCF8002830D02089411989B2884298
:1042300053D84FF420720E2002F034F906004CD00F
:10424000718905F10800814216D32A4641467068FB
:10425000FBF7FAFF2946304602F0DAFE002806D0C6
:1042600021A3B6222EA13CA0FDF742FB04E021468B
:10427000304602F09DFB18B1304602F015FD2CE0EF
:10428000204602F011FD34460CE03146204602F093
:10429000BFFE002806D014A3C72239A12EA0FDF727
:1042A00027FB1AE029462046666802F097F8A0B975
:1042B00060683968FF22C160D9F8101001610021DF
:1042C000317071800272418101228DE806040A4634
:1042D000FF233946204600F021FB2046BDE8FE4F73
:1042E00002F0E2BC383200202E2E2F4D6964646C3F
:1042F0006577617265732F54686972645F5061728B
:1043000074792F4C7749502F7372632F636F7265E6
:104310002F697076342F69636D702E630000000082
:1043200069636D705F696E7075743A206D6F766940
:104330006E6720722D3E7061796C6F616420746FBE
:104340002069636D702068656164657220666169CB
:104350006C65640A00000000417373657274696FD4
:104360006E2022257322206661696C656420617469
:10437000206C696E6520256420696E2025730A0013
:1043800069636D705F696E7075743A2072657374DD
:104390006F72696E67206F726967696E616C2070F9
:1043A0002D3E7061796C6F6164206661696C656433
:1043B0000A0000002DE9FF479146884606464FF463
:1043C00020722421222002F06DF8050031D0688986
:1043D000242806D218A34FF4B47225A12FA0FDF70C
:1043E00087FA6C6877681C2284F8008084F8019052
:1043F0004FF00008A4F80480A4F80680686871688B
:104400000830FBF721FFF868039003A800F096FC42
:1044100060B1A4F802800122CDF80080CDE901202E
:10442000FF2303AA0021284600F078FA284602F06C
:104430003BFCBDE8FF8700002E2E2F4D6964646CA5
:104440006577617265732F54686972645F50617239
:1044500074792F4C7749502F7372632F636F726595
:104460002F697076342F69636D702E630000000031
:10447000636865636B207468617420666972737425
:1044800020706275662063616E20686F6C642069BD
:10449000636D70206D65737361676500417373654B
:1044A0007274696F6E2022257322206661696C65C3
:1044B00064206174206C696E6520256420696E201B
:1044C00025730A000A460B21FFF774BF421C12D065
:1044D00088B191F82D2092070BD54B68834208D004
:1044E000896800EA01020B409A4202D10143491C4B
:1044F00001D0002070470120704700002DE9F74FE0
:1045000088B00446099800251426808CAF1F143803
:10451000C11700EB5170C0F3CF00039060680690A4
:10452000017801F00F01052903D038460BB0BDE832
:10453000F08F6189142907D25BA34FF43F7269A100
:104540006FA0FDF7D5F9F0E7C08801F0ADF8C0F332
:104550000C0100F4005002910790208914381FFAD2
:1045600080F88EE003984FF6FF7101EAC0004146E3
:10457000404500D9084604904FF4207214210E20C3
:1045800001F090FF5FEA000A7ED0BAF80A00142812
:1045900006D245A34FF4497263A159A0FDF7A8F9CB
:1045A0001422DAF804000699FBF74EFEDAF804004C
:1045B0000590049F35E06089811B8DB2B04206D220
:1045C00039A340F22D3260A14DA0FDF791F9AF4221
:1045D00000D23D461DB3052001F0EAFB5FEA000969
:1045E00057D060684B463044CDE90005412229464A
:1045F000002002F0C9F85FEA000B50D0204602F01C
:10460000C1FC5549C9E904145946504602F0D8F88E
:10461000781B07043F0C06D000262468CBE72468EB
:104620000026002FC7D1701986B20998808C1438E3
:1046300040450298C0F30C0001DB079909B140F432
:10464000005001F031F80599C8800498143080B208
:1046500001F02AF8059948800598002141810998C0
:1046600051460A9A43699847504602F01DFB049947
:10467000A8EB01001FFA80F8DDE90201084480B2CE
:104680000290B8F1000F00E006E07FF46BAF00206D
:104690004CE7504602F008FB4FF0FF3046E7484633
:1046A00000F07CFBF5E700002E2E2F4D6964646C52
:1046B0006577617265732F54686972645F506172C7
:1046C00074792F4C7749502F7372632F636F726523
:1046D0002F697076342F6970345F667261672E635C
:1046E000000000006970345F6672616728293A2013
:1046F0007062756620746F6F2073686F727400004B
:10470000417373657274696F6E202225732220666F
:1047100061696C6564206174206C696E6520256434
:1047200020696E2025730A0074686973206E6565C0
:1047300064732061207062756620696E206F6E65FB
:104740002070696563652100702D3E6C656E203EAA
:104750003D20706F66660000755300082DE9F04734
:10476000456807460E4628780421B1EB101F03D098
:10477000384602F099FA86E000074FEA90686888A8
:1047800000F092FF04463889A04203D921463846FA
:1047900002F05EFB79894145EAD33889A042E7D32C
:1047A000B8F1140FE4D32969DFF83C91C1F3031089
:1047B0000E28C9F81410EA68C9F8102005D0304650
:1047C00000F096F850B1344616E096F82D00C00778
:1047D00002D070680028F6D1002412E099F8140085
:1047E00000247F280DD04148046808E0B44205D079
:1047F000204600F07DF808B11CB10BE02468002CC5
:10480000F4D1687A112805D105EB08004088B0F58D
:10481000884F36D0D9F810205AB131461046FFF7EC
:1048200055FE0028A4D199F81000C0F303100E28FB
:104830009ED0002C9CD0E88830F0C00005D03846CF
:1048400000F038F907001ED07D68C9F80850C9E9A2
:104850000046297838460907890EA9F80C10414608
:1048600002F0D6FB687A01281AD0062813D0112846
:104870000CD04D462146D9F81400FFF727FEA0B111
:1048800020E03446D5E70020BDE8F08731463846C1
:1048900007F0DCFC19E03146384603F09DFC14E0DB
:1048A00031463846FFF792FC0FE0287DC0F3031035
:1048B0000E2807D04146384602F0B2FA02213846A7
:1048C000FFF780FC384602F0EFF90021C9F800102C
:1048D000C9F80410C9F80810A9F80C10C9F810108C
:1048E000C9F81410CFE70000383200205000002033
:1048F00010B590F82D10C9070CD0416851B1064A87
:1049000052698A4204D001461046FFF7DFFD08B124
:10491000012010BD002010BD38320020FEB5DDE9B9
:104920000954089E1AB109B10F6807B9211D0096F4
:10493000CDE9015400F002F8FEBD00002DE9F84F6A
:104940000546DDE90BA8807BDDF828B01F4616463A
:104950008946012806D02FA34FF455723AA13DA0F5
:10496000FCF7C6FF6FF00104002E35D01421284655
:1049700001F034FD002832D168896C68142806D211
:1049800024A34FF462723DA132A0FCF7B1FF27725D
:1049900084F809A0306820614520207084F801B0B7
:1049A000288900F081FE414F60804FF0000AA4F892
:1049B00006A0388800F078FEA0803888401C388037
:1049C000B9F1000F05D0D9F80000E060A4F80AA002
:1049D0000CE037480068F8E76889142802D22046BE
:1049E000BDE8F88F68686E4600690090B8F824004A
:1049F00040B12989814205D9324641462846FFF710
:104A00007DFDEDE7D8F814304046324629469847F8
:104A1000E6E700002E2E2F4D6964646C65776172A5
:104A200065732F54686972645F50617274792F4C9A
:104A30007749502F7372632F636F72652F69707699
:104A4000342F6970342E6300702D3E726566203DF0
:104A50003D203100417373657274696F6E202225A9
:104A60007322206661696C6564206174206C696ED4
:104A70006520256420696E2025730A0063686563DC
:104A80006B2074686174206669727374207062753B
:104A9000662063616E20686F6C6420737472756346
:104AA000742069705F68647200000000CA00002012
:104AB00080CB00082DE9F05F45688346287800F038
:104AC0000F0005287DD1E88800F0EEFDC004070C3A
:104AD000688800F0E9FD29780907890E814270D8BD
:104AE000401A1FFA80F8584601F00BFF6A4C064640
:104AF000208830440A2809D93146284600F0E4FBD2
:104B000000285ED0208830440A28E8D8A14664688E
:104B10004FF0000A0CE06069E968884207D1A0699B
:104B20002969884203D1A089A988884203D02468D2
:104B3000002CF0D106E02CB1E88800F0B5FDC004EF
:104B40001BD025E0042001F033F904000AD13146DE
:104B5000284600F0B9FBB04233DB042001F028F90D
:104B60000400CED02021FBF796FB0F20E077D9F888
:104B700004102160C9F8044004E0E08900F094FDCD
:104B8000C00405D01422294604F10800FBF75CFBA1
:104B9000A87940F340156D1C08D007EB080080B2DF
:104BA000B84263D34FF6EB7188425FD82A46594624
:104BB000204600F03BF9411C58D0B9F8002032449F
:104BC00000E064E0A9F8002035B107EB0801A183FB
:104BD000A17F41F00101A177012845D1A08B1422CA
:104BE000143087B2606804F10801456828462E68D1
:104BF000FBF72AFB384600F057FD6880A5F806A0B1
:104C0000A5F80AA0656809E014213046776802F02B
:104C1000FFF93146284601F0D3FD3E68002EF3D15E
:104C2000D9F804104E468C4205D1002105E00868F1
:104C3000A04202D001460029F9D1204600F01AFA1C
:104C4000284601F05EFE04463088A04206D213A337
:104C500040F29B2220A127A0FCF74AFE3088001BCF
:104C600030802846BDE8F09F0020FBE7606870B9FF
:104C7000D9F80400844206D008A340F2AB2227A151
:104C80001CA0FCF735FE0021204600F0F3F9584641
:104C900002F00AF8E8E70000CC0000202E2E2F4D8D
:104CA0006964646C6577617265732F5468697264B6
:104CB0005F50617274792F4C7749502F7372632F54
:104CC000636F72652F697076342F6970345F667216
:104CD00061672E630000000069705F726561737325
:104CE0005F70627566636F756E74203E3D20636C05
:104CF000656E0000417373657274696F6E202225C2
:104D00007322206661696C6564206174206C696E31
:104D10006520256420696E2025730A006E6F74205B
:104D20006669727374616C74686F756768206A7500
:104D3000737420656E7175657565640070B50146A4
:104D4000144813E090F82D20D3070FD053070DD54A
:104D500043685BB184680D68234005EA04069E42FF
:104D600016D0920702D4C268954211D0006800287C
:104D7000E8D10948006850B190F82D20D30706D03B
:104D8000520704D5426812B109787F2900D100206A
:104D900070BD0000500000205400002010B5040039
:104DA00006D106A34FF4317213A116A0FCF7A0FDA3
:104DB0002146BDE81040052000F086BF2E2E2F4D65
:104DC0006964646C6577617265732F546869726495
:104DD0005F50617274792F4C7749502F7372632F33
:104DE000636F72652F697076342F6970345F6672F5
:104DF00061672E63000000007020213D204E554C5D
:104E00004C000000417373657274696F6E20222537
:104E10007322206661696C6564206174206C696E20
:104E20006520256420696E2025730A002DE9F05F56
:104E30004C68064693460F4600254FF001086088EF
:104E400000F032FC21784FF0FF3A0907890E8142C9
:104E500031D8A0EB0109E08800F026FCC0047C6892
:104E6000010C0020206001EB090083B2A180E380E7
:104E70008B4220D3726829E05068B0F804C06145C5
:104E800015D222606DB1B5F806C0614513D3808894
:104E9000834210D82F60A088844506D04FF00008C8
:104EA00003E08088834206D877608AB12EE002D082
:104EB000C288914202D25046BDE8F09F25B1EA88EF
:104EC000624501D04FF0000802680546002AD3D1A0
:104ED00095B1E888A188884206D92AA34FF4DB72ED
:104EE00037A13FA0FCF704FD2F60E888A188884225
:104EF0000CD04FF0000809E0706830B121A34FF4E6
:104F0000DF7241A136A0FCF7F3FC7760BBF1000F24
:104F100002D1B07FC007CFD0B8F1000F30D0726897
:104F2000002A2DD050688088002829D12168204689
:104F300029B14C68C088A1888842F7D020E0B8F138
:104F4000000F1DD032B90FA340F2DF123CA124A004
:104F5000FCF7CEFC70684068A04206D109A34FF46C
:104F6000F07237A11EA0FCF7C3FC206830B105A386
:104F70004FF4F17236A11AA0FCF7BAFC01209BE7AE
:104F8000002099E72E2E2F4D6964646C657761725D
:104F900065732F54686972645F50617274792F4C25
:104FA0007749502F7372632F636F72652F69707624
:104FB000342F6970345F667261672E6300000000F1
:104FC000636865636B20667261676D656E747320DC
:104FD000646F6E2774206F7665726C6170000000DC
:104FE000417373657274696F6E2022257322206687
:104FF00061696C6564206174206C696E652025644C
:1050000020696E2025730A006E6F207072657669C4
:105010006F757320667261676D656E742C2074689D
:105020006973206D757374206265207468652066ED
:105030006972737420667261676D656E7421000019
:1050400073616E69747920636865636B00000000AA
:1050500076616C69646174655F64617461677261D3
:105060006D3A6E6578745F70627566213D4E554C81
:105070004C00000070B504460C480D464168A14242
:1050800002D1216841600AE0002D06D108A340F258
:10509000451216A11CA0FCF72BFC206828602146B5
:1050A000BDE87040042000F00FBE0000CC000020DE
:1050B0002E2E2F4D6964646C6577617265732F5471
:1050C000686972645F50617274792F4C7749502F10
:1050D0007372632F636F72652F697076342F6970F6
:1050E000345F667261672E630000000073616E6951
:1050F000747920636865636B206C696E6B656420EE
:105100006C69737400000000417373657274696F99
:105110006E2022257322206661696C6564206174AB
:10512000206C696E6520256420696E2025730A0055
:105130002DE9F047054600240F46A94205D12FA3CB
:10514000AB223DA13FA0FCF7D3FB002F08D038686D
:10515000A84205D029A3AD2244A13AA0FCF7C8FB80
:105160006E684FF480387068818800291AD1006811
:105170006860142205F108017068FBF765F80121E9
:105180003046FFF79FF9304601F0BBFB044640452F
:1051900005D31AA3BC223AA12AA0FCF7A9FB3046EA
:1051A00001F082FD6E6812E07068B14606684846FC
:1051B00001F0A7FB0444444505D310A3CC2230A141
:1051C00020A0FCF795FBA4B2484601F06DFD002E2F
:1051D000EAD139462846FFF74DFF314D2888A042D5
:1051E00005D206A3D2222FA116A0FCF781FB2888A6
:1051F000001B28802046BDE8F08700002E2E2F4D92
:105200006964646C6577617265732F546869726450
:105210005F50617274792F4C7749502F7372632FEE
:10522000636F72652F697076342F6970345F6672B0
:1052300061672E63000000007072657620213D20BA
:1052400069707200417373657274696F6E202225F4
:105250007322206661696C6564206174206C696EDC
:105260006520256420696E2025730A0070726576BA
:105270002D3E6E657874203D3D20697072000000FF
:1052800070627566735F6672656564202B20636C5F
:10529000656E203C3D203078666666660000000042
:1052A000CC00002069705F72656173735F70627516
:1052B00066636F756E74203E3D2070627566735F25
:1052C00066726565640000002DE9F0471D4F894650
:1052D000064600240022134611461546786822E04F
:1052E000D0F814C0D6F80C80C4450BD1D0F818C043
:1052F000D6F81080C44505D1B0F80CC0B6F80480CB
:10530000C44509D06D1C2AB190F81FC092F81F80C7
:10531000C44501D802461946D0F800C0BCF1000FC0
:1053200000D0034660460028DAD11AB11046FFF7D4
:10533000FFFE04444C4501DA012DCBDC2046BDE8DC
:10534000F0870000CC00002070B5094800254468B3
:105350000BE0E07F20B1401EE0772546246804E0A2
:10536000204624682946FFF7E3FE002CF1D170BDEA
:10537000CC00002010B5040006D108A340F2CE22D4
:1053800015A118A0FCF7B4FA606908B101F08CFC13
:105390002046BDE81040FFF701BD00002E2E2F4D26
:1053A0006964646C6577617265732F5468697264AF
:1053B0005F50617274792F4C7749502F7372632F4D
:1053C000636F72652F697076342F6970345F66720F
:1053D00061672E630000000070637220213D204E43
:1053E000554C4C00417373657274696F6E202225B1
:1053F0007322206661696C6564206174206C696E3B
:105400006520256420696E2025730A003EB5044698
:10541000384D0020364900902960012169602882BA
:105420008DF8040080218DF80510E1218DF806101B
:1054300019218DF8081018218DF809108DF8070032
:1054400001A9C5E90510E8614FF40000286228466B
:10545000FBF702F928B994F82D0040F0040084F815
:105460002D000423244A25492248FBF77BF8234AD0
:1054700004238032A2F580711E48FBF739F806201C
:1054800084F82C006869007884F826006869407800
:1054900084F827006869807884F828006869C078F3
:1054A00084F829006869007984F82A0068694079DD
:1054B00084F82B0040F2DC5024F8240F607A40F08E
:1054C0000A0060720B48FBF773FA6A461D2109480F
:1054D000FBF72CFA00981D2140F00B0205480092C2
:1054E000FBF72CFB6A461D210248FBF71FFA3EBD65
:1054F00000800240B0310020E0190020900100201F
:105500002DE9F84F0020044600902C48FBF766F880
:1055100010B10020BDE8F88F2848818FD0F8409066
:105520000904090C2FD04FF4C172002000F0BAFF1B
:10553000009040B32148009D40F2F45BD0F83080E9
:105540006E89002710E000BFA4F2F4525242FAF72D
:105550007BFED8F80C008046D0F808903F1BAAF2DA
:10556000F456002407F2F457686806EB040ADA459B
:1055700009EB04013844E7D83246FAF765FE2D6896
:105580003444002DDCD10D480022016B05E00B688E
:1055900043F000430B60C968521C836B9342F6D8FA
:1055A00000218163006800F580504269120602D52F
:1055B0008022426181600098ACE70000B031002099
:1055C0002DE9F05F27480D46C66A00208346044651
:1055D000D6F808A031E0306800280CDB6F894FF066
:1055E000000818E0A4F2F4525242FAF72DFEF668D1
:1055F0003068002802DA6FF0070025E0D6F808A02E
:10560000A8EB040000F2F458ABEB0400A9F2F45745
:1056100000F2F45B002407EB040940F2F4518945E1
:1056200069680AEB04004144DCD83A46FAF70CFEFC
:105630000BEB07002D683C448346002DCBD101467F
:105640000848FBF7F7F900200649096801F5805181
:105650004A69920603D520224A6100224A60BDE8C9
:10566000F09F0000B031002010B50446406880472C
:1056700001F036FE094A216852688B181A1AB2F1F5
:10568000004F03D308442246054902E0044922465C
:105690001846BDE8104001F087BE0000A0000020C1
:1056A0006956000800BA704740BA704710B500F05C
:1056B000E7F800F057FB00F051FD06F0BBFD02F0EB
:1056C0007FFDBDE8104001F0EBBEFBF763FBFCF78C
:1056D00051F8FBF7ABFFFCF70DF8FCF73DF8FCE7E2
:1056E0002DE9F04100284DD0810704D026A340F2D7
:1056F000732231A132E0394DA0F1080429688C42AF
:1057000003D36A680C30904204D91FA340F27F2271
:1057100033A123E02079002825D0601A86B22088A2
:1057200001F0AEFD0746608801F0AAFD21884FF424
:10573000C863002299420DD8618899420AD8B142C3
:1057400002D00088B04205D16868874210D07888BE
:10575000B0420DD00CA340F2952228A1BDE8F04143
:1057600033A0FCF7C5B808A34FF423723AA1F5E7BC
:105770002271A868844200D2AC602046BDE8F041A6
:1057800001F0AEBCBDE8F0812E2E2F4D6964646C33
:105790006577617265732F54686972645F506172D6
:1057A00074792F4C7749502F7372632F636F726532
:1057B0002F6D656D2E6300006D656D5F66726565AA
:1057C0003A2073616E69747920636865636B206148
:1057D0006C69676E6D656E74000000001C0000202F
:1057E0006D656D5F667265653A20696C6C656761B1
:1057F0006C206D656D6F7279000000006D656D5FE6
:10580000667265653A20696C6C6567616C206D65D0
:105810006D6F72793A206E6F6E2D6C696E6B656478
:105820003A20646F75626C652066726565000000E1
:10583000417373657274696F6E202225732220662E
:1058400061696C6564206174206C696E65202564F3
:1058500020696E2025730A006D656D5F667265654F
:105860003A20696C6C6567616C206D656D6F72794B
:105870003A20646F75626C65206672656500000091
:1058800070B50B480B4C20F003014FF4C865216044
:105890000D80002048800871284601F0F1FC0121AC
:1058A00060600171058045802068A06070BD0000C7
:1058B000533200201C0000202DE9F04700286FD053
:1058C000C41C4FF6FC710C404FF4C8690C2C01D27B
:1058D0000C2401E04C457CD884427AD34148C4F57D
:1058E000C867824601890288891A8EB276E03046FE
:1058F00001F0C6FC0546007900286CD12888801B81
:105900000838A04267D3288804F11401801B0838A6
:105910004FF0010888421DD33019083087B24F4537
:1059200006D131A340F287323BA140A0FBF7E0FF54
:10593000384601F0A5FC00210171298801804680CC
:105940002F8085F804800088484505D001F098FC38
:10595000478001E085F80480DAF808005646854261
:1059600003D014E0008801F08BFC017911B171685B
:105970008842F7D1B0607168884208D0007930B1B0
:1059800019A340F2B53233A128A0FBF7B1FF2819C3
:1059900071680830884208D913A340F2B93200E098
:1059A00015E033A121A0FBF7A3FFA8070DD00EA39C
:1059B00040F2BB323AA11DA0FBF79AFF0AA340F2C6
:1059C000BD3243A119A0FBF793FF05F10800BDE824
:1059D000F08705E0FFE7DAF80000865BB74286D87B
:1059E0000020F4E71C0000202E2E2F4D6964646C0B
:1059F0006577617265732F54686972645F50617274
:105A000074792F4C7749502F7372632F636F7265CF
:105A10002F6D656D2E630000696E76616C69642080
:105A20006E657874207074720000000041737365B5
:105A30007274696F6E2022257322206661696C651D
:105A400064206174206C696E6520256420696E2075
:105A500025730A006D656D5F6D616C6C6F633A2034
:105A6000216C667265652D3E7573656400000000EB
:105A70006D656D5F6D616C6C6F633A20616C6C6F0E
:105A80006361746564206D656D6F7279206E6F74EB
:105A90002061626F76652072616D5F656E642E00B5
:105AA0006D656D5F6D616C6C6F633A20616C6C6FDE
:105AB0006361746564206D656D6F72792070726FBB
:105AC0007065726C7920616C69676E65642E000088
:105AD0006D656D5F6D616C6C6F633A2073616E69AB
