:020000040800F2
:1000000008A800105D020008632100080320000812
:10001000612100083D050008692E0008000000006D
:100020000000000000000000000000009D0100082A
:100030006705000800000000F9010008C52C000851
:1000400077020008770200087702000877020008AC
:10005000770200087702000877020008770200089C
:10006000770200087702000877020008770200088C
:10007000770200087702000877020008770200087C
:10008000770200087702000877020008770200086C
:10009000770200087702000877020008770200085C
:1000A00077020008952D0008770200087702000803
:1000B000770200087702000877020008770200083C
:1000C000770200087702000877020008770200082C
:1000D000770200087702000877020008770200081C
:1000E000770200087702000877020008770200080C
:1000F00077020008770200087702000877020008FC
:1001000077020008770200087702000877020008EB
:1001100077020008770200087702000877020008DB
:1001200077020008770200087702000877020008CB
:1001300077020008B9050008770200087702000876
:1001400077020008770200087702000877020008AB
:10015000770200087702000877020008770200089B
:10016000770200087702000877020008770200088B
:1001700077020008770200087702000800000000FC
:100180007702000877020008DFF80CD000F038F999
:10019000004800475171000808A800102C4B19684E
:1001A0000868B0E8F04F80F30988BFF36F8F4FF015
:1001B000000080F3118870470000000008480068C4
:1001C000006880F308884FF0000080F3148862B65E
:1001D00061B6BFF34F8FBFF36F8F00DF00BF00BF6B
:1001E00008ED00E0DFF80C00016841F470010160E7
:1001F000704700BF88ED00E0EFF30980BFF36F8F19
:10020000134B1A681EF0100F08BF20ED108A20E96A
:10021000F04F106009B44FF0500080F31188BFF325
:100220004F8FBFF36F8F10F06BF84FF0000080F32B
:10023000118809BC19680868B0E8F04F1EF0100F6B
:1002400008BFB0EC108A80F30988BFF36F8F704746
:100250000C000010EFF3058070470000064880474F
:1002600006480047FEE7FEE7FEE7FEE7FEE7FEE79B
:10027000FEE7FEE7FEE7FEE7792D000889010008AA
:100280002DE9F05F0546002092469B4688460646CB
:10029000814640241BE0284641464746224600F05E
:1002A0009EF853465A46C01A914110D3114618463B
:1002B000224600F085F82D1A67EB01084F462246CA
:1002C0000120002100F07CF817EB00094E41201EB0
:1002D000A4F10104DFDC484631462A464346BDE826
:1002E000F09F00000649074A0868504343F239026C
:1002F00010440860400870470149086070470000DA
:10030000D80000106D4EC64110B5431A934209D271
:100310008318881803E010F8011D03F8011D521E10
:10032000F9D210BD40EA01039B0703D009E008C9D8
:10033000121F08C0042AFAD203E011F8013B00F8AA
:10034000013B521EF9D210BDD2B201E000F8012BE0
:10035000491EFBD270470022F6E710B513460A4645
:1003600004461946FFF7F0FF204610BD421C10F866
:10037000011B0029FBD1801A704730B504460020CC
:10038000034600E05B1C934203D2E05CCD5C401B63
:10039000F8D030BD30B50B460146002020220124A4
:1003A00009E021FA02F59D4205D303FA02F5491B43
:1003B00004FA02F52844151EA2F10102F1DC30BD59
:1003C000202A04DB203A00FA02F100207047914015
:1003D000C2F1200320FA03F3194390407047202A0A
:1003E00004DB203A21FA02F00021704721FA02F3DF
:1003F000D040C2F1200291400843194670470000E6
:10040000064C074D06E0E06840F0010394E8070061
:1004100098471034AC42F6D3FFF7BAFE38150108FE
:100420007815010830B58C1810F8012B12F00F0365
:1004300001D110F8013B120906D110F8012B03E09D
:1004400010F8015B01F8015B5B1EF9D101E001F8D6
:10045000013B521EFBD1A142E6D3002030BD00007B
:1004600010B501240821034800F02EFE00B100243D
:10047000204610BD001002400146014801F0E2BADA
:10048000C800002010B5044801F0EEFA042801D09D
:10049000012010BD002010BDC800002010B500F0E4
:1004A00015F8012801D0012010BD074801F0F2FA2B
:1004B000040006D14FF40061034801F07BF900B15C
:1004C0000124204610BD0000C800002008B501200E
:1004D0008DF80000FFF7C4FF10B900208DF8000070
:1004E0009DF8000008BD0000134610B50A460146FD
:1004F0000024034801F05EFB00B10124204610BD3A
:10050000C800002008B50120ADF800000348002312
:100510001A466946406807F02FFE08BD000000102B
:10052000134610B50A4601460024034801F0DEFBDD
:1005300000B10124204610BDC8000020FEE730B500
:100540000468256825F48025256004686360836855
:10055000402B036803D099600068C26030BD9A6088
:100560000068C16030BD7047064908B509684FF49E
:10057000FA52B1FBF2F14143009100BF491E0091D4
:10058000FBD208BD2800002038B50446006800F5FD
:100590008050816941F480118161206800F58050AC
:1005A000806900900120FFF7DFFF2068009900F5C7
:1005B0008050816138BD0000014800F0C0B90000E2
:1005C0007C3100102DE9F041044621B14FF4006068
:1005D000E060C000A060E0690025002861D02846E6
:1005E0002368402619683A4A1140D4E902273A4361
:1005F000024342F400700843186020680768012035
:1006000000F0D0F8206807602068466020684668DF
:10061000012000F0C7F820684660206885602068E7
:10062000C560216888694FF64172104040F0800033
:10063000886120688669012000F0B4F8206886612E
:100640002068C5612068C569012000F0ABF820680A
:10065000C561226802F5805290691E4908401E4912
:1006600001439161206800F580508569012000F008
:1006700099F8206800F5805085612068174900F5D9
:1006800080500160206800F580500568012000F06E
:1006900089F8206800F580500560A069012803D022
:1006A00009E04FF480609BE7206800F58050C16945
:1006B0000B4A1143C16160690A4982880A64027861
:1006C000D0F8010042EA00204864BDE8F081000053
:1006D0000F8120FF233FDEF8040020028020C102AA
:1006E0004000010000800240002200F001B800003C
:1006F00030B50E4B054601205C7A002C14D1587A97
:100700001C54587A03EB800045605D7A03F10800C1
:100710002A54587A421C5A72303008703A20487075
:100720002F208870CC70002030BD0000C431001034
:10073000406D70472DE9F0410446866D90F8340015
:10074000002501280DD0012084F8340094F835707C
:100750000020012F07D084F8340002252846BDE888
:10076000F0810220FBE7022784F83570606520469F
:10077000FFF7E5FE94F85C103F208840B0602068E9
:10078000016841F016010160206C20B12068016809
:1007900041F0080101602068016841F00101016039
:1007A000DCE7000070B5044600F098FC0546601CCC
:1007B00002D004480078044400F090FC401BA042A2
:1007C000FAD370BD1C0000202DE9F04390F845409D
:1007D0000025012C0DD04FF0010C80F845C00224FB
:1007E00080F8444044F2F4574FF000495E1E8162A5
:1007F00017E00220BDE8F08301EB4514C4F8009037
:10080000C5EBC51808EB480802EB8808C4E9017875
:10081000B54204D204F12008C4F80C8000E0E16085
:100820006D1C9D42E8D3026802F58052D16080F8C9
:1008300044C0002180F845100846DBE72DE9F0436D
:10084000914690F845200024012A0AD0012680F81C
:100850004560022280F844204FF4801C5D1EC16276
:100860001BE00220BDE8F08301EB4412C2F800C097
:10087000C4EBC41707EB470809EB88079760C76903
:100880001FB9176847F440071760AC4203D202F162
:100890002007D76000E0D160641C9C42E4D302686A
:1008A00002F58052116180F84460002180F8451003
:1008B0000846D7E7704730B590F845100023012966
:1008C00008D0012280F84520022180F8441000243D
:1008D000816A1AE0022030BD0D685B1CC5F301255A
:1008E000022D0AD00D6815F4407F09D04163836B57
:1008F0005B1C8363012B12D012E08263016302E070
:10090000856B6D1C8563C96881620D68002D01DBF4
:10091000042BE1D300F8442F4470012030BD016363
:100920000B68C3F30D431B1FC363036B9B68036416
:10093000C96840F8281F02774477002030BD70B5A1
:100940000446006800F5805041694FF000054906F3
:100950004FF0010608D5204600F0D0F9206840216C
:1009600000F58050416109E04069C0070AD0204687
:1009700000F090FA206800F58050466184F84460E9
:1009800084F8455020684FF4803100F58050416173
:10099000206800F58050406900040CD52046FFF720
:1009A00089FF20684FF4004100F58050416184F8D0
:1009B000446084F8455070BD2DE9FC474FF00006B7
:1009C0000400B146009603D094F8440018B107E043
:1009D0000120BDE8FC8784F84560204600F0E2F87D
:1009E0006648016841F480410160006800F480407D
:1009F00001906348016821F4000101600168226AE6
:100A000011430160206800F58050016841F0010148
:100A1000016000F063FB05464FF4FA7709E000BF80
:100A200000F05CFB401BB84203D9032004F8440FDC
:100A300067E0206800F580500068C007F0D12068AA
:100A4000006920F01C0500F0C1FC4E494E4A0144EB
:100A5000914202D245F0080516E04C494C4A014447
:100A6000914202D245F00C050EE04A494A4A01443F
:100A7000914209D3494908444949884202D245F084
:100A8000040501E045F01005206805614FF40042BF
:100A90000021204600F000FA0125A8BBFF20FFF747
:100AA00081FE606888B300F019FB804641F2883708
:100AB0006A460121204600F0DFF800F00FFBA0EBB2
:100AC0000800B84217D800984007F1D54FF480527B
:100AD0000021204600F0E0F9B0B900F0FFFA8046AE
:100AE0006A460121204600F0C7F800F0F7FAA0EBB3
:100AF0000800B8420AD901212046FFF763FD04F837
:100B0000445F0320667064E724E018E000988006E4
:100B1000E6D56A461F21204600F0AEF8D0B900980D
:100B2000C10603D54FF40061E16000E0E6604007D4
:100B300001D5A66019E04FF48040A06015E0E068A0
:100B4000A168C00840EA510082B20021204600F0AE
:100B5000A3F930B101212046FFF734FD84F8445059
:100B600036E740F6FF70FFF71DFE49462046FFF7C7
:100B700029FD84F8445000202BE70000443802404F
:100B80000438014000D3CEFEC0E1E40040F1E9FDAD
:100B900040787D0100796CFC005A6202001F0AFA5D
:100BA00080F0FA02F0B587B0044614216846FFF7DA
:100BB000D2FB2C492068884252D12B48016841F071
:100BC00000710160016801F000710591016841F058
:100BD00080610160016801F080610591016841F068
:100BE00000610160016801F000610591016841F058
:100BF00004010160016801F004010591016841F000
:100C000001010160016801F001010591016841F0F5
:100C1000020101600068022400F002000590322009
:100C2000012503260B278DE8F10069460F4800F0E7
:100C30006FF986208DE8F10069460D4800F068F9EB
:100C40004FF460508DE8F10069460A4800F060F901
:100C5000002205213D2000F0CDFA3D2000F0BCFA35
:100C600007B0F0BD0080024030380240000802406A
:100C700000000240000402402DE9F047044690F8CD
:100C80004400914682281DD0822084F844002268C6
:100C900010694FF6FF7500F01C03208A05EAC0209A
:100CA00018434FF4F86303EA8111014321F0020075
:100CB00040F00105156100F011FA064601274FF4D6
:100CC000803810E00220BDE8F08700BF00F006FA8F
:100CD000801B404505D304F8447F0020607003204A
:100CE000F1E720680569E807F0D12068406981B222
:100CF000C9F8001084F844700020E4E70148006857
:100D000007F0B4BB08000010F8B5044690F84500A1
:100D1000012839D0012584F84550022084F8440088
:100D200020680026016841F0080101602068006821
:100D300000902846FFF718FC21680098086020689A
:100D4000016841F004010160206800680090012002
:100D5000FFF70AFC2168009808602046FFF714FCA2
:100D6000206800F58050816941F40051816120685C
:100D700000F58050816941F00201816184F844509E
:100D800084F845600020F8BD0220F8BDF0B590F869
:100D900045200023012A11D0012780F84570022246
:100DA00080F84420002459B1C66A3268002A0ADA61
:100DB000122100F8441F44700120F0BD0220F0BD54
:100DC00000F8447FF7E740F2F455A9420BD9B1FB94
:100DD000F5FCB1FBF5F205FB1C1CBCF1000F00D0CB
:100DE000521C012A43D1326842F040523260C26A3A
:100DF000C1F30C015160C16A0A6842F000420A6006
:100E0000C16AC968C16234E0D6F800C02CF0405C09
:100E1000C6F800C033B9C66AD6F800C04CF0805C92
:100E2000C6F800C0C66A7560561EB34214D1C66AC1
:100E3000D6F800C04CF0005CC6F800C0C2F1010654
:100E4000C6EBC61606EB4606D0F82CC001EB8606AC
:100E5000C6F30C06CCF80460C66AD6F800C04CF0A5
:100E6000004CC6F800C0C66A5B1CF668C6629342B6
:100E7000CAD3016801F580514A69520705D5042299
:100E80004A61016801F580514C6000F8447F44706C
:100E90000020F0BD704700002DE9F041044690F8B5
:100EA000440042281ED0422084F844002368186978
:100EB0004FF6FF7600F01C05208A06EAC020284382
:100EC0004FF4F86505EA8111014390B241F0030542
:100ED00058612068056100F001F9064601274FF4CA
:100EE000803810E00220BDE8F08100BF00F0F6F885
:100EF000801B404505D304F8447F00206070032028
:100F0000F1E720680569E807F0D184F84470EAE762
:100F10002DE9F84F00224FF0010803254FF00F0E86
:100F20000B6808FA02F42340A3426ED14E68012EEA
:100F300005D0022E03D0112E01D0122E12D18668B8
:100F40004FEA420C05FA0CF7BE43CF6807FA0CF7DC
:100F5000374387604668A6430C79C4F30014944075
:100F600034434460C668570005FA07FC8C6826EADB
:100F70000C06BC403443C4604C68022C01D0122CD7
:100F800013D1D40800EB8404A346D4F8209054076E
:100F90004FEAD46A0EFA0AF629EA06090E6906FA39
:100FA0000AF646EA0906CBF8206006680C7926EABC
:100FB0000C0604F00304BC40344304604C68E400B5
:100FC00065D5364C266846F480462660246822F0B3
:100FD000030604F480440094314C3444A446D4F80D
:100FE00008489607370F0EFA07F6B4432D4EB04265
:100FF00001D1002624E02C4EB04201D101261FE091
:101000002A4EB04202D102261AE040E0284EB042F9
:1010100001D1032614E0274EB04201D104260FE08F
:10102000254EB04201D105260AE0244EB04201D13E
:10103000062605E0224EB04201D1072600E0082630
:10104000BE402643CCF808681E4E34684F689C4367
:10105000FF0300D51C4334601A4C241D26684F68DA
:101060009E43BF0300D51E432660164E08363468E3
:101070004F689C43FF0200D51C433460114E0C3670
:1010800034684F689C43BF0200D51C433460521C37
:10109000102AFFF445AFBDE8F88F00004438024045
:1010A00000300140000002400004024000080240FD
:1010B000000C0240001002400014024000180240E0
:1010C000001C0240003C01400069084000D00120A3
:1010D00070470AB1816170470904FBE701488068E5
:1010E000704700001C00002002488168027811440B
:1010F000816070471C0000200B4810B5016841F466
:1011000000710160016841F480610160016841F48F
:1011100080710160032000F08DF8002000F006F8D7
:1011200000F03EF8002010BD003C024010B5014622
:1011300088B00022192000F05DF8192000F04CF86A
:1011400013480024016841F400310160006805A9DA
:1011500000F400300690684600F018F900F03CF901
:101160000C494000B0FBF1F10C480B4A491E0260EB
:1011700040F2E732C0E90324C0E9011400F052FE56
:1011800010B1012008B010BD044800F067FEF9E777
:101190004438024040420F000044014080010020DA
:1011A0000C4882B0016841F480410160006800F49D
:1011B000804000900748001F016841F080510160A5
:1011C0000068002200F0805000900F21901E02B0B5
:1011D00000F010B844380240002809DB00F01F027C
:1011E000012191404009800000F1E020C0F8001189
:1011F00070470000F0B40E4B1B680C46C3F302238B
:10120000C3F10705042D00D90425191D072901D2B2
:10121000002300E0DB1E012606FA05F1491E2140ED
:1012200099409E40761E16403143F0BC01F02EBE20
:101230000CED00E0064900F0070208684FF6FF03D6
:10124000184040EA0220034A10430860704700003B
:101250000CED00E00000FA052DE9F0470E46050010
:1012600065D0DFF81481D8F80000F7B200F00F0065
:10127000B04207D288F80070D8F8000000F00F00E4
:10128000B04254D128683D4C810712D5400703D5A0
:10129000206840F4E05020602878000703D52068DB
:1012A00040F4604020602068A96820F0F000084306
:1012B00020602878C0072DD0304968680839012897
:1012C00012D0022813D0032811D0096889070029F9
:1012D0002DDA216821F0030101432160FFF7FEFEB2
:1012E000814641F2883A0EE009688903EFE7096810
:1012F0008901ECE7FFF7F2FEA0EB0901514502D9A5
:101300000320BDE8F0872068696800F00C00B0EBAE
:10131000810FEFD1D8F80010404601F00F01B14223
:1013200007D90770006800F00F00B04201D001201B
:10133000E7E72878400705D52068E96820F4E05001
:10134000084320602878000706D52068296920F422
:10135000604040EAC100206000F04EF82168084A71
:10136000C1F30311515CC840064908600648006893
:10137000FFF7DCFE0020C4E7003C024008380240D2
:101380003C12010828000020200000200F220260EB
:101390000C4A136803F003034360136803F0F0037F
:1013A0008360136803F4E053C36012684FF4E053A2
:1013B00003EAD20202610448006800F00F000860EE
:1013C0007047000008380240003C024001480068B5
:1013D000704700002800002004480549006809689B
:1013E000044AC1F34231515CC840704728000020D4
:1013F000083802404C120108154810B5006810F07A
:101400000C02144813D04110042A0FD0082A0ED120
:101410000F4C241F2268236802F03F025B0207D5AD
:101420002068C0F38810A0FB010106E0084610BD4B
:101430002168C1F38811A1FB00010023FEF720FF02
:101440002168C1F30141491C4900B0FBF1F010BD16
:10145000083802400024F4002DE9F84F04006ED053
:101460002078DFF83C93C007A9F104054AD009F1C0
:1014700004000168C1F38101012908D00068C0F3AC
:10148000810002280AD1D9F80000400206D5286858
:10149000800337D560680028E1D033E06068B0F59C
:1014A000803F10D0B0F5A02F286810D020F48030F5
:1014B0002860286820F4802028606068A8B1FFF7C1
:1014C0000DFE06460DE0286840F48030F4E740F455
:1014D00080202860F7E700BFFFF700FE801B64282C
:1014E00073D828688003F7D50CE0FFF7F7FD0646B0
:1014F00005E000BFFFF7F2FD801B6428F0D82868E4
:101500008003F7D42078DFF89C8280074FF0000A30
:101510003ED5A348001D016811F00C0F08D00068EB
:10152000C0F3810002280BD1D9F80000400207D493
:101530002868800716D5E068012800D112E02BE169
:10154000E068B8B10120C8F80000FFF7C7FD064603
:1015500005E000BFFFF7C2FD801B0228C0D8286845
:101560008007F7D52868216920F0F80040EAC1001B
:1015700028600DE0C8F800A0FFF7B0FD064604E0C3
:10158000FFF7ACFD801B02281FD828688007F7D41E
:101590002078000722D5824E83486169703671B188
:1015A00001210160FFF79AFD074604E0FFF796FD71
:1015B000C01B022809D830688007F7D50EE0C0F8B4
:1015C00000A0FFF78BFD074605E082E0FFF786FDF0
:1015D000C01B02287DD830688007F7D420784007E8
:1015E00068D5DFF8BCB100270BF13C0BDBF800003D
:1015F000C0000BD4DBF8001041F08051CBF8001094
:10160000DBF80000012700F080500090674E306842
:10161000C00510D4306840F480703060FFF75EFD84
:10162000009005E0FFF75AFD0099401A022850D8B3
:101630003068C005F6D55A4EA0686C3601280FD028
:101640000528306810D020F001003060306820F0AC
:1016500004003060A068B8B1FFF740FD00900FE0D3
:10166000306840F00100F4E740F004003060F7E734
:10167000FFF734FD0099411A41F28830814266D863
:1016800030688007F4D50EE0FFF728FD009007E0F2
:10169000FFF724FD0099411A41F28830814256D863
:1016A00030688007F4D42FB1DBF8001021F08051AE
:1016B000CBF80010A069C8B33949091D0968C1F306
:1016C000810102294AD00228504607D0C8F860009C
:1016D00000E03CE0FFF702FD04463BE04746C8F867
:1016E0006000FFF7FBFC064605E000BFFFF7F6FCD5
:1016F000801B02282BD828688001F7D4D4E9070181
:101700000843A16A2A4A490802EB0141626A41EA98
:101710008211084394F82C1040EA0161C9F80010C6
:1017200001203866FFF7DAFC044606E036E000BF29
:10173000FFF7D4FC001B022809D828688001F7D5E0
:101740002CE000BFFFF7CAFC001B022802D90320CF
:10175000BDE8F88F28688001F4D41FE00128F7D095
:10176000D9F80000E26900F48001914214D1226AA4
:1017700000F03F0191420FD147F6C071626A01400B
:10178000914209D1A26A00F44031914204D1E16A48
:1017900000F07060884201D00120D9E70020D7E72F
:1017A0000438024000004742800E4742007000406B
:1017B0000000FFFF2DE9FE43044603200F4684F896
:1017C0003400606C03285AD0B7F5805F57D04FF4CF
:1017D000006600254FF08068B7421CD10095019546
:1017E0000021206800F0D4FC800121D46946204605
:1017F00001F06CF898BB0198400332D5B4F8500062
:101800000104206800F0F4FC48BB0221206822E0BB
:10181000A06B284327E01FB1A06B40F0006022E0DE
:10182000009501950021206800F0B2FC800101D5EF
:101830003546EDE76946204601F048F878B9019849
:10184000C0030ED5B4F850000104206800F0D0FCAD
:1018500028B90021206800F018FD0028D8D00546DE
:10186000D6E74546D4E7A063A06B012558B12168AF
:101870000C48886384F834500120BDE8FE83A06BD7
:1018800040F08050EFE7211DD4E905060EC900970E
:10189000CDE90106206800F07EFC84F83450002079
:1018A000EBE70000FF05400070470000F0B5426E16
:1018B000920F0A70426EC2F383624A70426EC2F3A4
:1018C00001628A70426E120CCA70B0F86420120A6B
:1018D0000A7190F864204A71826E120DCA80826E7D
:1018E000C2F303420A72B0F86820C2F3C0324A72EF
:1018F000B0F86820C2F380328A72B0F86820C2F370
:101900004032CA72B0F86820C2F300320A7300266F
:101910004E73426C4FF40075012462B1012A3AD033
:10192000026847499163816B41F08051816380F87F
:1019300034400120F0BDB0F86820C36E9205120D4E
:1019400042EA93720A61C26EC2F3C2620A75C26E43
:10195000C2F302624A75C26EC2F342528A75C26E07
:10196000C2F38242CA75C26EC2F3C2320A760A69F3
:10197000521C42650B7E03F007039B1C9A40426594
:101980000B7A03F00F0704FA07F383655B0A5A43E7
:10199000C0E917250EE090F86820C36E9206920AFF
:1019A00042EA13420A610A69521C92024265C0E986
:1019B0001652056630F86C2FC2F3803201F8192FE9
:1019C0000288C2F3C6124A70027802F07F028A705F
:1019D0004268D20FCA704268C2F341720A7142680B
:1019E000C2F382624A714268C2F383528A714268CA
:1019F000C2F34052CA710E724268C2F300424A7288
:101A00008288C2F3C0328A728288C2F38032CA727C
:101A10008288C2F340320A738288C2F300324A736A
:101A20008288C2F381228A738288C2F30122CA7338
:101A30000079C0F3460008744C740020F0BD00002B
:101A4000FF054000426C0A60826C4A60C26C8A608A
:101A5000026DCA60426D0A61826D4A61C26D8A611F
:101A6000006EC8610020704770B50446B0F85000A1
:101A700000250104206800F012FD18B1A16B01439C
:101A8000A16304E00021206800F082FB0546C5F355
:101A9000432070BD70B504000ED094F834000025CA
:101AA00018B92577204600F03BF8032084F834006D
:101AB000204600F00BF808B1012070BDA563256336
:101AC000012084F83400002070BD0000FEB5002520
:101AD000044676200095CDE9015029460B460A467A
:101AE000206800F058FB08B10120FEBD0B4E46F8FF
:101AF000A05F206800F061FB01253560204600F002
:101B0000C7FF20B9204600F04BFF0028EDD084F835
:101B10003450A16B0143A163E6E700000080254239
:101B2000F0B587B0044614216846FEF714FC1D4941
:101B30002068884233D11C480024016841F40061C8
:101B40000160006800F400600590174814380168CF
:101B500041F004010160016801F004010591016890
:101B600041F0080101600068022500F008000590BE
:101B70004FF4F850CDE9000502AA03260C2782E8AD
:101B8000D00069460948FFF7C3F90420CDE90005F4
:101B900002AA694682E8D0000548FFF7B9F907B004
:101BA000F0BD0000002C0140443802400008024013
:101BB000000C02402DE9F04786B01F46044615464A
:101BC00039B194F83400012807D0022006B0BDE8EE
:101BD000F087A06B40F0006008E00020A063E36D98
:101BE000EA199A4204D9A06B40F00070A0636FE03C
:101BF000032284F8342022688246D0622268D36BA4
:101C000040F22A363343D363236C324A4FEA4729E2
:101C1000DA63236C304ADA64226C4FEA9903106568
:101C200020680A46266C00F180013046FEF782FDEE
:101C3000DFF8A880012660B12068C16B21F495719E
:101C4000C1632168C1F83880A06B40F08040A06378
:101C500011E023480660606C012800D06D024FF44B
:101C60000071206800F0F8FA40B12268C2F83880AC
:101C7000A16B0143A16384F8346029E04FF0FF3089
:101C8000CDE900099020029002200596CDE9030AD3
:101C9000D1466946206800F065FA012F06D98220F6
:101CA00020632946206800F06BFB05E0812020635B
:101CB0002946206800F07DFB002887D02268C2F802
:101CC0003880A16B0143A16384F83460C4F830907C
:101CD00001207BE77D28000819280008FF05400047
:101CE0008C85254210B5FEF70DFC10BD2DE9FF4F88
:101CF00087B0044608981F46164638B194F8340059
:101D0000012807D002200BB0BDE8F08FA06B40F097
:101D1000006008E00025A563E16DF019884204D950
:101D2000A06B40F00070A06361E0032084F83400F1
:101D30002068C5622068C16B40F21A2A41EA0A0194
:101D4000C163E16B3248C863E16B3248C864E06B41
:101D50000565606C012800D076024FF400712068A0
:101D600000F07AFADFF8B0904FF0010840B1226835
:101D7000C2F83890A16B0143A16384F8348036E047
:101D80004FF0900B012F06D9A02020633146206828
:101D900000F0D0FB05E0C4F830B03146206800F018
:101DA000E2FB40B12268C2F83890A16B0143A16305
:101DB00084F834801AE019484646C0F8008022684A
:101DC0007F02BB08E06B80320899FEF7B3FC80B15C
:101DD0002068C16B21EA0A01C1632168C1F838900B
:101DE000A06B40F08040A06384F83460256301203C
:101DF00089E74FF0FF30CDE90007CDE902B5CDE925
:101E000004566946206800F0ADF900207BE7000029
:101E1000BF28000819280008FF0540008C852542CE
:101E20007047704710B5040003D094F83D0010B11E
:101E300007E0012010BD002084F83C00204600F09F
:101E40000CF8022084F83D00211D206800F0A8FF56
:101E5000012084F83D00002010BD70470168CA6869
:101E600042F00102CA600068816801F0070106299A
:101E700003D0016841F00101016000207047704704
:101E800070B50446006801694FF00005C943890731
:101E900015D4C168C943890711D4E91E0161012025
:101EA0002077206880698007204602D0FFF7E7FF8F
:101EB00004E000F098F8204600F096F825772068B6
:101EC0000169C943490717D4C168C943490713D4F5
:101ED0006FF004010161022020772068806910F40E
:101EE000407F204602D0FFF7CAFF04E000F07BF8F5
:101EF000204600F079F8257720680169C943090771
:101F000016D4C168C943090712D46FF008010161F2
:101F1000042020772068C0698007204602D0FFF7A0
:101F2000AEFF04E000F05FF8204600F05DF8257792
:101F300020680169C943C90617D4C168C943C906E5
:101F400013D46FF010010161082020772068C06968
:101F500010F4407F204602D0FFF791FF04E000F02C
:101F600042F8204600F040F8257720680169C9430F
:101F7000C90708D1C168C943C90704D1891E0161D5
:101F8000204600F033F820680169C943090609D4E6
:101F9000C168C943090605D46FF08001016120467C
:101FA000FFF73EFF20680169C943490609D4C168AB
:101FB000C943490605D46FF040010161204600F095
:101FC0001FF820680169C94389060BD4C168C94359
:101FD000890607D46FF0200101612046BDE87040FA
:101FE000FFF71FBF70BD70477047000000680349CE
:101FF000884201D1FFF778B87047000000440140E3
:102000007047FEE710B504490448FEF76DFB02492E
:10201000491E087010BD00000900002028120108A8
:102020002DE9F04186B014216846FEF794F92F4857
:102030000024016841F010010160016801F0100105
:102040000591016841F080010160016801F08001A3
:102050000591016841F004010160016801F004018B
:102060000591016841F001010160016801F0010181
:102070000591016841F002010160016801F002016F
:102080000591016841F0080101600068184F00F0F7
:1020900008000590002204213846FFF71AF8DFF8FF
:1020A00054804FF47046002231464046FFF711F845
:1020B00001250420CDE90005CDE9025469463846E2
:1020C000FEF726FF0820CDE9000469463846029451
:1020D000FEF71EFF0096CDE9015469464046039481
:1020E000FEF716FF06B0BDE8F08100003038024070
:1020F00000100240000C02400EB5002108460CF012
:10210000A3FE13490020144A0860091D104B086003
:10211000091D08330860CDE900020E4902911A1F1B
:10212000111F0E4805F074FC0C4805F08BFE0B489F
:1021300090F82D004007094802D505F0DDFE01E0CA
:1021400005F086FEBDE80E40044802F0C5BA000066
:102150001000002019F00008155B00084C01002059
:10216000FEE770470A6842624A688262D1E9022348
:102170001A43D1E904310B43C16A1A4321F0F70134
:102180001143C16200207047006800F003007047EF
:1021900008444069704770B50DF1100C11439CE87C
:1021A00070002343194329434268314347F6FF63D4
:1021B0009A430A434260002070BD10B503210160BC
:1021C0000220FEF7EFFA002010BDD0F88000704723
:1021D0000A688260D1E901231A43D1E903310B4334
:1021E000C1681A436FF30B011143C16000207047AF
:1021F00010B586B004463720CDE90010402002908B
:10220000002003904FF48060049069462046FFF759
:10221000DFFF41F288323721204600F0BDF906B0D9
:1022200010BD000010B504460A4886B001432920BD
:10223000CDE9001040200290002003904FF4806010
:10224000049069462046FFF7C3FF204600F05CFA81
:1022500006B010BD0000108010B586B004461020F6
:10226000CDE9001040200290002003904FF48060E0
:10227000049069462046FFF7ABFF41F288321021F7
:10228000204600F089F906B010BD10B586B00446AE
:102290000620CDE9001040200290002003904FF46A
:1022A0008060049069462046FFF792FF41F2883231
:1022B0000621204600F070F906B010BD30B585B09B
:1022C00000240546009401944FF480600294CDE907
:1022D000034069462846FFF77BFF0B484FF4FA514D
:1022E0000068B0FBF1F041F288314843401E03D250
:1022F0004FF0004005B030BD696B0906F6D5C5202A
:10230000A8632046F6E700002800002070B585B0DD
:1023100004464FF4D570009001A9082040250026FE
:1023200081E86100C001049069462046FFF750FF34
:1023300012484FF4FA510068B0FBF1F041F28831D5
:102340004843401E03D24FF0004005B070BD616BA2
:1023500011F0450FF5D00905F3D4606B400701D5A6
:10236000042003E0606BC00702D00120A063ECE70B
:10237000606B400600D5A5633046E6E728000020E4
:1023800010B586B004461220CDE90010402002901E
:10239000002003904FF48060049069462046FFF7C8
:1023A00017FF41F288321221204600F0F5F806B0FE
:1023B00010BD10B586B004461120CDE900104020B4
:1023C0000290002003904FF48060049069462046FC
:1023D000FFF7FEFE41F288321121204600F0DCF8C2
:1023E00006B010BD10B586B004460720CDE9002028
:1023F00040200290002003904FF4806004906946D2
:102400002046FFF7E5FE41F288320721204600F022
:10241000C3F806B010BD10B586B0044600210220F6
:10242000CDE90010C020CDE902014FF48060049096
:1024300069462046FFF7CCFE204600F03DF906B085
:1024400010BD10B586B004460920CDE90010C020AB
:102450000290002003904FF480600490694620466B
:10246000FFF7B6FE204600F027F906B010BD10B504
:1024700086B0044600213320CDE900104020CDE98C
:1024800002010001049069462046FFF7A1FE41F2D7
:1024900088323321204600F07FF806B010BD10B519
:1024A00086B004460D20CDE90010402002900020A7
:1024B00003904FF48060049069462046FFF788FE41
:1024C00041F288320D21204600F066F806B010BDBA
:1024D00030B585B00C46054600210320CDE900103B
:1024E0004020CDE902010001049069462846FFF72B
:1024F0006FFE22460321284600F028F905B030BDC2
:1025000010B586B0044600210C20CDE90010402013
:10251000CDE902010001049069462046FFF758FE0C
:10252000034A0C21204600F037F806B010BD000029
:1025300000E1F50510B586B004461920CDE900107C
:1025400040200290002003904FF480600490694680
:102550002046FFF73DFE41F288321921204600F067
:102560001BF806B010BD10B586B004461820CDE9A2
:10257000001040200290002003904FF480600490EF
:1025800069462046FFF724FE41F288321821204692
:1025900000F002F806B010BD454B10B51B684FF4B3
:1025A000FA54B3FBF4F353435B1E02D24FF00040E6
:1025B00010BD426B12F0450FF6D01205F4D4426BF9
:1025C000520703D504218163084610BD426BD20730
:1025D00002D00121816305E0C52282630269D2B283
:1025E0008A4201D0012010BD0021FFF7D1FD314901
:1025F000084201D1002010BD002802DA4FF000701F
:1026000010BD410001D5402010BD810001D58020C2
:1026100010BDC10002D54FF4807010BD010102D57C
:102620004FF4007010BD410102D54FF4806010BD21
:10263000C10102D54FF4006010BD010202D54FF474
:10264000805010BD410202D54FF4005010BD8102F0
:1026500002D54FF4804010BDC10202D54FF40040B6
:1026600010BD410302D54FF4003010BD810302D5E7
:102670004FF4802010BDC10302D54FF4002010BDDF
:10268000010402D54FF4801010BD410402D54FF46F
:10269000001010BD810402D54FF4800010BD00076A
:1026A00002D54FF4000010BD4FF4803010BD000083
:1026B0002800002008E0FFFD12494FF4FA52096893
:1026C000B1FBF2F141F288325143491E02D24FF080
:1026D00000407047426B12F0450FF6D01205F4D45B
:1026E000416B490703D50421816308467047416B5C
:1026F000C90703D00121816308467047C521816362
:1027000000207047280000200F494FF4FA52096852
:10271000B1FBF2F141F288325143491E02D24FF02F
:1027200000407047426B12F0450FF6D01205F4D40A
:10273000416B490703D50421816308467047C521D1
:1027400081630020704700002800002030B5204B36
:102750004FF4FA541B68B3FBF4F341F2883463433B
:102760005B1E02D24FF0004030BD446B14F0450FA9
:10277000F6D02405F4D4436B5B0703D504218163B1
:10278000084630BD436BDB0702D00121816303E0C3
:102790000369DBB28B4201D0012030BDC5218163CA
:1027A0000021FFF7F5FC10F4604F04D0410406D57A
:1027B0004FF4005030BD000C1080002030BD0004EC
:1027C00002D54FF4805030BD4FF4803030BD000052
:1027D0002800002010B5064C01202070FDF752FEA5
:1027E00018B9207820F001002070207810BD00007A
:1027F0000000001070B5054605F0F8FB044603E044
:10280000FDF740FE002806D005F0F0FB001BA842B3
:10281000F6D34FF0FF3070BD10B5846BFDF788FF25
:10282000022828D0206C416DE06B406D012901D059
:1028300001281DD12168104888632068C16B21F4EC
:102840009D71C163A06B40F08040A0632046FFF7FC
:102850000BF9062801D0052805D12068FFF750FEA6
:10286000A16B0843A063012084F83400002020639A
:102870002046FFF719F810BDFF05400010B5846B26
:10288000206B822809D12068FFF73AFE28B1A16B9E
:102890000143A1632046FFF707F82068C16A21F0D1
:1028A0000801C162216840F23A508863012084F82F
:1028B0003400002020632046FFF714FA10BD806B1F
:1028C0000068C16B41F48071C16370472DE9F04F1E
:1028D00089B00D460446FEF701FC002683460096AB
:1028E0000196374608212068FFF7B6FC002834D14E
:1028F000B4F8500001042068FFF77AFC00282CD1BE
:10290000401E4FF00808CDE9020830204FF00209C0
:10291000CDE904090120CDE9067002A92068FFF77E
:1029200021FC2068FFF7A3FD002816D1EA4640F2FB
:102930002A472068416B394212D1416B890204D584
:10294000FFF743FC4AF82600761CFEF7C7FBA0EB16
:102950000B00401CEDD14FF0004009B0BDE8F08FF6
:10296000416B090703D5C0F838800820F5E7416BB3
:10297000890703D5C0F838900220EEE7416B89063D
:1029800003D5202181630846E7E740F23A5181638D
:10299000019800BA2860009800BA68600020DCE75F
:1029A00010B590B004460120ADF838002068FFF75C
:1029B000EBFB002854D0606C032842D02068FFF75E
:1029C0002AFD00284AD100212068FFF7E1FB60675B
:1029D00004212068FFF7DCFBA06708212068FFF7CF
:1029E000D7FBE0670C212068FFF7D2FBC4F880001A
:1029F000606C032825D00EA92068FFF769FD002828
:102A00002CD1606C03281CD0BDF83800206501046F
:102A10002068FFF716FD002820D100212068FFF76D
:102A2000B7FB606604212068FFF7B2FBA0660821AF
:102A30002068FFF7ADFBE0660C212068FFF7A8FBDC
:102A4000206704212068FFF7A3FB000DE06403A9C1
:102A50002046FEF72BFF30B14FF0805010B010BD74
:102A60004FF08060FAE7B4F85000002302042068B9
:102A7000FFF7B8FC0028F1D104F1100007C88DE879
:102A8000070094E80F00FFF786FB0020E6E7000050
:102A90002DE9F84F0026044600963546B0460068FA
:102AA000FFF70CFC002827D12068FFF72FFC4FF020
:102AB000805B4FF001094FF6FF7748B1A6642068AC
:102AC000FFF7FCFB002817D1A06C012802D020E002
:102AD000C4F8489000212068FFF78AFB58B918E035
:102AE00000212068FFF784FB002805D151462068AB
:102AF000FFF798FB10B15846BDE8F88F0021206819
:102B0000FFF746FB05464FEAD0780098401C00903E
:102B100002E0DFF82CA00098B84202D2B8F1000F12
:102B2000DED00098B84202D34FF08070E4E768002E
:102B300002D5C4F8449000E066640020DCE70000A1
:102B4000000010C170B5104C05460120207005F042
:102B50003DFA022816D1FDF7A1FC18B92846FFF767
:102B600039FE2070207801280CD0606850B900220E
:102B700002210A2005F0C6FA606018B9207840F0FA
:102B800001002070207870BD0000001010B51248C0
:102B900088B014460078C00702D0032008B010BDEA
:102BA000C1B1012905D0022908D003290CD0042085
:102BB000F4E76846FDF760FC06980AE06846FDF712
:102BC0005BFC0798208005E06846FDF755FC0798F8
:102BD000400A20600020E1E7000000102DE9F843E2
:102BE00047F230541E461746884601252046FFF717
:102BF00001FE00281EDB324639464046FDF774FCD4
:102C0000C0B90F48234600226946406805F03AFAE9
:102C100080B9BDF8000001280CD105F0E7F906469F
:102C200003E000BFFDF72EFC38B105F0DFF9801B93
:102C3000A042F7D32846BDE8F8830025FAE7000054
:102C400000000010FFF7C6BD2DE9F84347F23054ED
:102C50001E461746884601252046FFF7CBFD002873
:102C60001EDB324639464046FDF75AFCC0B90F48D4
:102C7000234600226946406805F004FA80B9BDF891
:102C8000000002280CD105F0B1F9064603E000BFB0
:102C9000FDF7F8FB38B105F0A9F9801BA042F7D386
:102CA0002846BDE8F8830025FAE700000000001080
:102CB000FFF722FA012005F06FF9FBE7012005F08C
:102CC0006BF9FBE710B5502080F31188BFF34F8FED
:102CD000BFF36F8F0EF0A6F818B104494FF0805083
:102CE0000860002080F3118810BD000004ED00E0B2
:102CF00030B593B030216846FDF72DFB14210CA8A8
:102D0000FDF729FB1A480025016841F08051016058
:102D1000006800F0805011901648016841F480412D
:102D200001600068022400F48040119001200090AE
:102D3000000401908001CDE90640082008904FF47E
:102D4000A870CDE9090407200B906846FEF784FBC4
:102D50000CA90F2081E831004FF4A0500F90E00241
:102D6000109005210CA8FEF777FA13B030BD0000D3
:102D700040380240007000400548016841F470018D
:102D8000016003494FF0006080390860704700001F
:102D900088ED00E00148FFF773B8000080010020D3
:102DA000F0B50268254C264D264E274F274B4FF095
:102DB000804CA04209D0604507D0A84205D0B0425F
:102DC00003D0B84201D0984204D122F0700E4A6874
:102DD00042EA0E02A0421BD0604519D0A84217D08B
:102DE000B04215D0B84213D0984211D0184DA84225
:102DF0000ED0184DA8420BD0174DA84208D0174D41
:102E0000A84205D0164DA84202D0164DA84203D1C3
:102E100022F44075CA682A434D6922F080022A4391
:102E200002608A68C2620A688262A04201D0984247
:102E300001D10969016301214161F0BD0000014038
:102E40000004004000080040000C00400004014065
:102E5000004001400044014000480140001800408B
:102E6000001C004000200040FEE700000FB4054BAE
:102E700010B503A9044A029800F028F810BC5DF8C8
:102E800014FB0000E95B0008C40000200907090EDC
:102E9000002804DB00F1E02080F80014704700F007
:102EA0000F0000F1E02080F8141D704702E008C810
:102EB000121F08C1002AFAD170477047002001E0B4
:102EC00001C1121F002AFBD1704700002DE9FF4FFE
:102ED0008BB09A460F460546002606E025280BD003
:102EE00052460D9990476D1C761C28780028F5D124
:102EF0000FB03046BDE8F08F0024A04601226049A3
:102F000000E0044315F8013F203B02FA03F00842B9
:102F1000F7D128782E2817D115F8010F44F00404B2
:102F20002A280ED06FF02F022878A0F1300109294D
:102F30000AD808EB880102EB410100EB01086D1C87
:102F4000F2E757F8048B6D1C287869283ED006DC20
:102F50000028CDD063280BD0642804D136E0732834
:102F600010D075284BD052460D999047761C85E0BD
:102F700017F8040B8DF8000000208DF80100E946D9
:102F8000012003E057F8049B4FF0FF3061074FF03A
:102F9000000401D40AE0641C44450DDA8442FADBE3
:102FA00019F804100029F6D106E0641C8442FCDB09
:102FB00019F804100029F8D1264404E019F8010B8F
:102FC00052460D999047641EF8D257E001CF4FF05A
:102FD0000A0B002802DA40422D2102E0210504D527
:102FE0002B218DF82410012103E0E10705D02021D9
:102FF000F7E70DF1200908910CE00021F9E701CF76
:103000004FF00A0BF9E75946FDF7C4F901F1300218
:1030100009F8012D0028F6D1ADEB090000F1200BD5
:10302000600701D44FF00108D84502DDA8EB0B0082
:1030300000E000208046002406E009A85246005D1A
:103040000D999047641C761C08988442F5DB04E0D7
:10305000302052460D999047761CB8F10001A8F136
:103060000108F5DC05E019F8010B52460D9990476F
:10307000761CBBF10001ABF1010BF4DC6D1C34E7F5
:103080000928010058B1026A002A0FD05379082B91
:103090000CD10968D269914208D100F0C3BA04A3E7
:1030A00040F28B3210A114A0FFF7E0BE7047000081
:1030B0002E2E2F4D6964646C6577617265732F5491
:1030C000686972645F50617274792F4C7749502F30
:1030D0007372632F636F72652F697076342F646823
:1030E00063702E63000000006E6574696620213DE8
:1030F000204E554C4C000000417373657274696F2B
:103100006E2022257322206661696C6564206174DB
:10311000206C696E6520256420696E2025730A0085
:103120002DE9FC4105001AD02C6AECB10023638222
:10313000A16A4FF03C07B1F1FF3F4FF480364FF0EA
:1031400001024FF6FF7019D01E31B1FBF7F1B14209
:1031500000D301460904090CA1820ED00EE02DA374
:1031600040F2154239A103E02AA340F217423EA1E2
:1031700043A0FFF77BFEBDE8FC81A282E16AB1F1CA
:10318000FF3F0CD01E31B1FBF7F1B14200D3014635
:103190000904090C618100D162816189E181216B9F
:1031A000B1F1FF3F0CD01E31B1FBF7F1B14200D3BA
:1031B00001460904090CA18100D1A281A1892182C3
:1031C0006289A1898A4201D301B16381E17909B1A0
:1031D000206A08E0217F7F2901D8FF2003E0C02971
:1031E00001D36FF07F400090606A019028B9E069D8
:1031F0000099084040F0807001900A21204601F0BB
:1032000063FA01AB6A4604F11C01284604F0EAFDAA
:10321000B1E700002E2E2F4D6964646C65776172F2
:1032200065732F54686972645F50617274792F4CB2
:103230007749502F7372632F636F72652F697076B1
:10324000342F646863702E6300000000646863704C
:103250005F62696E643A206E6574696620213D2064
:103260004E554C4C00000000646863705F62696EEC
:10327000643A206468637020213D204E554C4C0018
:10328000417373657274696F6E2022257322206604
:1032900061696C6564206174206C696E65202564C9
:1032A00020696E2025730A0070B5046A054608215E
:1032B000204601F009FA002204F11C01284602F020
:1032C000D9F8A079FF2801D2401CA0714FF4FA71FF
:1032D00040F2E730B0FBF1F0208170BD70B52948B5
:1032E00004684CE0206AA0B3417991B3818A69B146
:1032F000418A491C89B24182828A914206D1204684
:1033000001F018F8204601F0E7F937E0018A19B119
:103310004A1E0282012906D0C189D1B14A1EC2814A
:10332000012917D02AE0256A20466979012905D0AC
:103330000A2903D0052901D004291FD100F07EFEFF
:10334000A88A698A401A022818DB00EBD07040086E
:10335000288213E0256A20466979012903D00A29C9
:1033600001D005290AD101F043F8A889698A401AD9
:10337000022803DB00EBD0704008E8812468002CB1
:10338000B0D170BD680000202DE9F047994616467F
:103390000D4607001BD0002D1ED04FF49A744FF439
:1033A00020722146362005F04FF9B0F100081BD0FD
:1033B000B8F80A00A246504506D232A340F2717214
:1033C0003EA14EA0FFF752FD032E12D10EE02DA319
:1033D00040F2697253A103E02AA340F26A7259A134
:1033E00046A0FFF743FD0020BDE8F0876879032879
:1033F00008D1A8795B4C08B1A06802E0FCF772FF25
:10340000A0602860D8F8044051462046FCF7A3FF8E
:1034100001202070607097F82C00A070286803F0DD
:103420007FFE6060082E0AD0042E08D0072E06D03A
:10343000032E06D16879052801D0042801D17868C7
:10344000E060002039182218401C91F8261080B244
:1034500011770628F6D34448C4F8EC0004F1F001D3
:10346000012335220C46002000F072FA3246214634
:1034700000F0BAFAB9F1000F01D0A9F800004046F7
:10348000B2E700002E2E2F4D6964646C657761727F
:1034900065732F54686972645F50617274792F4C40
:1034A0007749502F7372632F636F72652F6970763F
:1034B000342F646863702E630000000064686370DA
:1034C0005F6372656174655F6D73673A20636865F9
:1034D000636B207468617420666972737420706213
:1034E00075662063616E20686F6C642073747275FA
:1034F000637420646863705F6D7367004173736504
:103500007274696F6E2022257322206661696C6572
:1035100064206174206C696E6520256420696E20CA
:1035200025730A00646863705F6372656174655F28
:103530006D73673A206E6574696620213D204E5593
:103540004C4C0000646863705F6372656174655F12
:103550006D73673A206468637020213D204E554C9E
:103560004C000000BC0000106382536310B50B4C8C
:103570002078002805D10AA3FF2217A11FA0FFF77A
:1035800075FC2078401E10F0FF00207004D1E06828
:103590000CF0B8F90020E06010BD0000BC00001085
:1035A0002E2E2F4D6964646C6577617265732F549C
:1035B000686972645F50617274792F4C7749502F3B
:1035C0007372632F636F72652F697076342F64682E
:1035D00063702E6300000000646863705F70636254
:1035E0005F726566636F756E7428293A207265662E
:1035F000636F756E74206572726F720041737365CC
:103600007274696F6E2022257322206661696C6571
:1036100064206174206C696E6520256420696E20C9
:1036200025730A00FEB5046A06460C21204601F007
:103630004BF802AB042221463046FFF7A5FE0500F9
:1036400028D069680423F03132220F46BDF8080003
:1036500000F07EF9ADF80800E06903F061FD024674
:103660003946BDF8080000F01DFAADF808002A46FA
:10367000394600F0E7FA0F484323CDE900600F48D0
:103680000D4A2946C0680CF0BFFA0646284605F0E8
:10369000F1FB01E04FF0FF36A079FF2801D2401C7A
:1036A000A07142F603104FF4FA71B0FBF1F02081E3
:1036B0003046FEBDC4130108C8130108BC00001049
:1036C0002DE9FE4F046A07464FF000090621204607
:1036D000C4F81C9000F0F8FF02AB012221463846E6
:1036E000FFF752FE06003BD071680223F0318A4694
:1036F00039225546BDF8080000F02AF9ADF8080057
:10370000BA8C294600F03AFAADF8080004233722B3
:10371000294600F01DF9DFF88480ADF80800002587
:10372000514618F80520BDF8080000F05DF96D1C41
:10373000EDB2ADF80800042DF2D33246514680B206
:1037400000F080FA16484323CDE900701348154A6B
:10375000401E3146C0680CF057FA304605F08AFB2F
:10376000A079FF2801D2401CA071C1B2062902D263
:103770000120884000E03C2000EB4001C1EBC0107C
:103780004FF6FF7101EAC0004FF4FA7100F2F31036
:10379000B0FBF1F020814846BDE8FE8FBD0000106F
:1037A000C4130108C813010870B50B48002504684C
:1037B0000EE0206A58B10189012903D9A1F1010164
:1037C000018104E003D10581204601F027F8246837
:1037D000002CEED170BD000068000020F8B5046A2E
:1037E00000201F4D20626062EA78A5F128060AB128
:1037F000F268A2622A790AB1326901E0A26A52082B
:10380000E2626A790AB1726903E0A26AC2EBC2029B
:10381000D20822630969E161A97921B1B06903F095
:103820007FFC20620120E071E87918B1F06903F0B3
:1038300077FC606200240DE006EB8400006A03F070
:103840006FFC00906946204601F006FA641CE4B261
:10385000022C03D22819007A0028EDD1F8BD00000F
:10386000F867001010B5154C207800281ED1E068CC
:10387000002805D012A3E5221FA129A0FFF7F6FA20
:103880000BF0EEFFE060B0B1417A442241F020013C
:1038900041722D490BF02AFD43222B49E0680BF0C1
:1038A000BFFD00222949E0680BF0E8FF2078401CAA
:1038B0002070002010BD4FF0FF3010BDBC00001084
:1038C0002E2E2F4D6964646C6577617265732F5479
:1038D000686972645F50617274792F4C7749502F18
:1038E0007372632F636F72652F697076342F64680B
:1038F00063702E6300000000646863705F696E632C
:103900005F7063625F726566636F756E7428293AD3
:10391000206D656D6F7279206C65616B0000000031
:10392000417373657274696F6E202225732220665D
:1039300061696C6564206174206C696E6520256422
:1039400020696E2025730A00C4130108154200087F
:103950002DE9F0411D4604462844801C17460E46BA
:10396000442806D907A340F29A52144914A0FFF73D
:103970007DFA3755641CA0B23554401C80B2BDE8B6
:10398000F08100002E2E2F4D6964646C65776172A2
:1039900065732F54686972645F50617274792F4C3B
:1039A0007749502F7372632F636F72652F6970763A
:1039B000342F646863702E6300000000B0140108A7
:1039C000417373657274696F6E20222573222066BD
:1039D00061696C6564206174206C696E6520256482
:1039E00020696E2025730A0070B515460E46044600
:1039F000442806D305A340F2A65212A11FA0FFF748
:103A000035FA3555641CA0B270BD00002E2E2F4D26
:103A10006964646C6577617265732F546869726458
:103A20005F50617274792F4C7749502F7372632FF6
:103A3000636F72652F697076342F646863702E63CC
:103A400000000000646863705F6F7074696F6E5F80
:103A5000627974653A206F7074696F6E735F6F7509
:103A6000745F6C656E203C20444843505F4F505457
:103A7000494F4E535F4C454E000000004173736543
:103A80007274696F6E2022257322206661696C65ED
:103A900064206174206C696E6520256420696E2045
:103AA00025730A0070B50546001D14460E464428CD
:103AB00006D90BA340F2B75217A126A0FFF7D6F9FB
:103AC000200E70556D1CA8B2210C3154401C80B2E0
:103AD000210A3154401C80B23454401C80B270BD65
:103AE0002E2E2F4D6964646C6577617265732F5457
:103AF000686972645F50617274792F4C7749502FF6
:103B00007372632F636F72652F697076342F6468E8
:103B100063702E6300000000646863705F6F7074F0
:103B2000696F6E5F6C6F6E673A206F7074696F6E4D
:103B3000735F6F75745F6C656E202B2034203C3D85
:103B400020444843505F4F5054494F4E535F4C45BB
:103B50004E000000417373657274696F6E202225F8
:103B60007322206661696C6564206174206C696EE3
:103B70006520256420696E2025730A0070B504460F
:103B8000801C15460E46442806D907A340F2AE52C3
:103B900013A122A0FFF76AF9280A3055641CA0B2CD
:103BA0003554401C80B270BD2E2E2F4D6964646C5C
:103BB0006577617265732F54686972645F506172D2
:103BC00074792F4C7749502F7372632F636F72652E
:103BD0002F697076342F646863702E6300000000D4
:103BE000646863705F6F7074696F6E5F73686F7223
:103BF000743A206F7074696F6E735F6F75745F6C69
:103C0000656E202B2032203C3D20444843505F4FBE
:103C10005054494F4E535F4C454E000041737365FD
:103C20007274696F6E2022257322206661696C654B
:103C300064206174206C696E6520256420696E20A3
:103C400025730A00FF230B54401C80B2002302E0BE
:103C50000B54401C80B24428FAD3F03081B2104695
:103C600005F0FCB92DE9F04F85B0824600200490A4
:103C70000A21AF48FCF76FFBBAF80A002C2816D3CC
:103C8000BAF80800AA4F4FF0F009564607E000BF07
:103C9000A9EB0102401A36681FFA82F980B236B1E8
:103CA00071894A464945F3D9144602900DE16FF0F7
:103CB000010005B0BDE8F08FA01C80B24FF0FF35C9
:103CC0000190A042F3D37389621C934203D90398F5
:103CD0002044407803E0306808B140680078342917
:103CE00080464DD00BDC032921D003DCA1B1012992
:103CF0000DD114E0062924D0332908D137E0352925
:103D000065D036296CD03A2975D03B297BD04FF04D
:103D1000000800297FD042E000208046F9E704280F
:103D200003D084A340F22E6226E00625F1E74FF08F
:103D30000408042803D27FA340F2336213E007256E
:103D4000E7E7830704D07BA340F2396287A1C3E091
:103D5000082801D2434600E008239846404504D293
:103D600074A340F23C6285A1B6E00825D1E704289F
:103D700004D070A340F2416285A1ADE00325C8E7FD
:103D8000012803D06BA340F24F6225E0B9F1F00F98
:103D900004D068A340F2516280A19DE00025204438
:103DA000801CB0F5803F82D284B2B8F1000F7ED083
:103DB000002000900A2D06D35EA34FF4CF627DA1B0
:103DC00081A0FFF753F8785D002826D06FE0012826
:103DD00004D058A340F2556285A17DE0012598E703
:103DE000042806D053A340F25962C5E703E00AE075
:103DF00011E002258DE7042803D04EA340F25D6256
:103E0000BAE7042585E7042803D04AA340F261629B
:103E1000B2E705257DE794B249E04046B8F1040FCA
:103E200000D304208346024669463046019B04F0D5
:103E300095FF58457FF43BAFB8F1040F1ED95FEAF8
:103E4000887004D03BA340F281626CA144E0012061
:103E50007855009803F064F93549283941F8250070
:103E6000A8F1040000F0FF0801980199001D80B23C
:103E70008842FFF41CAF6D1C01909BE7B8F1040F62
:103E800007D0B8F1010F08D02AA34FF4D26261A184
:103E900022E0009803F044F901E09DF80000009052
:103EA0000120785522480099283840F8251070895B
:103EB000A04217D8211A8CB20299081A80B2029037
:103EC0008442BFF4F4AE366816B1706803900AE01D
:103ED00018A340F29D6254A13BA0FEF7C7FF6FF00C
:103EE0000500E6E63EB10298844204D20398015DE3
:103EF000FF297FF4E1AE387850B10D480021283811
:103F00000068397001280ED0022804D0032808D098
:103F100004980028E5D0002004904FF02C096C2074
:103F2000B3E6012004904FF06C09EC20ADE60000F0
:103F3000F86700102E2E2F4D6964646C65776172EE
:103F400065732F54686972645F50617274792F4C85
:103F50007749502F7372632F636F72652F69707684
:103F6000342F646863702E63000000006C656E205F
:103F700025252034203D3D20300000006C656E205A
:103F80003E3D206465636F64655F6C656E00000094
:103F90006C656E203D3D2034000000006F76657238
:103FA0006C6F616420696E2066696C652F736E6149
:103FB0006D650000636865636B206465636F6465AD
:103FC0005F69647800000000417373657274696F03
:103FD0006E2022257322206661696C6564206174FD
:103FE000206C696E6520256420696E2025730A00A7
:103FF0006C656E203D3D2031000000006465636FFC
:1040000064655F6C656E2025252034203D3D2030A1
:1040100000000000696E76616C6964206465636FFE
:1040200064655F6C656E00006E6578742070627503
:104030006620776173206E756C6C00002DE9FC477B
:10404000046A07460421204600F03EFB01AB032230
:1040500021463846FFF798F906003BD071680223E5
:10406000F031894639224D46BDF80400FFF770FC57
:10407000ADF80400BA8C2946FFF780FDADF80400C6
:10408000042337222946FFF763FCDFF88080ADF870
:1040900004000025494618F80520BDF80400FFF784
:1040A000A3FC6D1CEDB2ADF80400042DF2D3324632
:1040B000494680B2FFF7C6FD14480097401E4323CF
:1040C000134A3146C0680BF0FFFC0546304604F049
:1040D000D1FE01E04FF0FF35A079FF2801D2401C4E
:1040E000A071C0B20A2804D24FF47A7110FB01F01B
:1040F00001E042F2107080B24FF4FA7100F2F31056
:10410000B0FBF1F020812846BDE8FC87BD0000101F
:10411000C81301082DE9FC47046A0746032120461D
:1041200000F0D2FA01AB032221463846FFF72CF902
:1041300006004FD071680223F031894639224D467E
:10414000BDF80400FFF704FCADF804004FF4107252
:104150002946FFF713FDADF8040004233222294657
:10416000FFF7F6FBADF80400E06902F0D9FF024664
:104170002946BDF80400FFF795FCADF804000423C0
:1041800037222946FFF7E4FBDFF88080ADF8040012
:10419000002500BF18F805204946BDF80400FFF7C8
:1041A00023FC6D1CEDB2ADF80400042DF2D33246B1
:1041B000494680B2FFF746FD14480097401E43234E
:1041C000134A3146C0680BF07FFC0546304604F0C8
:1041D00051FE01E04FF0FF35A079FF2801D2401CCD
:1041E000A071C0B20A2804D24FF47A7110FB01F01A
:1041F00001E042F2107080B24FF4FA7100F2F31055
:10420000B0FBF1F020812846BDE8FC87BD0000101E
:10421000C81301082DE9F041434851681646446827
:10422000256A002D7AD02879002877D070892C282B
:1042300074D30878022871D1002094F82C2008E06B
:1042400023180F1893F826303F7FBB4266D1401CDD
:10425000C0B2824201D90628F2D3486802F060FF5A
:10426000296888425AD129463046FFF7FBFC10BB2B
:104270002E494878F8B1A1F128027768107905280D
:1042800004D0062821D0022836D047E068790128DA
:1042900006D0032814D0042812D0052810D03DE001
:1042A00039462046FFF79AFA94F82D00000703D507
:1042B0002046FEF7F9FF31E02046FEF731FF2DE002
:1042C00039462046FFF78AFAF6E76879032805D0D1
:1042D000012803D0042801D005281FD10C21206A11
:1042E00000F0F2F9124B20461A46114603F07AFD0F
:1042F0002046FFF7E5F911E0687906280ED125463A
:10430000246A887850B100202081906802F008FF6C
:10431000A0613869E061284600F0D6F83046BDE873
:10432000F04104F0A7BD00008CA30120F867001045
:10433000C41301082DE9FE43046A0746002C51D03E
:10434000607900284ED0A06902900025A561E56142
:10435000256265622563E562A562A5826582258284
:10436000E581384600F04CFA60B301AB07222146E4
:104370003846FFF709F8060024D071680423F031AD
:1043800036228846BDF80400FFF7E2FAADF80400D3
:10439000029802F0C5FE02464146BDF80400FFF750
:1043A00081FBADF8040032464146FFF74BFC0E4856
:1043B0000097432302AA3146C0680BF085FB3046C4
:1043C00004F058FD094B38461A46114603F00AFD21
:1043D0000021204600F078F92079002802D0FFF76C
:1043E000C5F82571BDE8FE83BC000010C4130108A8
:1043F0002DE9FC47046A07460521204600F064F9D0
:1044000001AB032221463846FEF7BEFF06003CD032
:1044100071680223F031894639224D46BDF8040007
:10442000FFF796FAADF80400BA8C2946FFF7A6FB11
:10443000ADF80400042337222946FFF789FADFF894
:104440008480ADF804000025494618F80520BDF821
:104450000400FFF7C9FA6D1CEDB2ADF80400042D9D
:10446000F2D33246494680B2FFF7ECFB154800977D
:10447000401E432304F118023146C0680BF024FBB0
:104480000546304604F0F6FC01E04FF0FF35A07918
:10449000FF2801D2401CA071C0B20A2804D24FF4F8
:1044A000FA6110FB01F001E044F6206080B24FF4A5
:1044B000FA7100F2F310B0FBF1F020812846BDE85C
:1044C000FC870000BD0000102DE9FE43070073D0FB
:1044D0003C6A002C7CD00121204600F0F5F802ABAC
:1044E000032221463846FEF74FFF06007AD0716856
:1044F0000223F031894639224D46BDF80800FFF706
:1045000027FAADF80800BA8C2946FFF737FBADF85B
:104510000800042332222946FFF71AFAADF80800F2
:10452000E06902F0FDFD02462946BDF80800FFF7EC
:10453000B9FAADF80800042336222946FFF708FA35
:10454000ADF80800A06902F0EBFD02462946BDF86F
:104550000800FFF7A7FAADF8080004233722294620
:10456000FFF7F6F9DFF8BC80ADF80800002500BFC2
:1045700018F805204946BDF80800FFF735FA6D1C0C
:10458000EDB2ADF80800042DF2D33246494680B2B0
:10459000FFF758FB24484323CDE900702148234A04
:1045A000401E3146C0680BF02FFB0546304604F034
:1045B00061FC19E000E00BE01DA340F277122AA194
:1045C00030A0FEF753FC6FF00F00BDE8FE8309E05A
:1045D00017A340F2791235A12AA0FEF747FC6FF02D
:1045E0000500F2E74FF0FF35A079FF2801D2401C0B
:1045F000A071C0B2062802D20121814000E03C2116
:1046000001EB4100C0EBC1104FF6FF7101EAC000A1
:104610004FF4FA7100F2F310B0FBF1F0208128465C
:10462000D3E70000BD000010C4130108C81301083F
:104630002E2E2F4D6964646C6577617265732F54FB
:10464000686972645F50617274792F4C7749502F9A
:104650007372632F636F72652F697076342F64688D
:1046600063702E6300000000646863705F73656CA4
:104670006563743A206E6574696620213D204E554D
:104680004C4C0000417373657274696F6E20222573
:104690007322206661696C6564206174206C696EA8
:1046A0006520256420696E2025730A0064686370A4
:1046B0005F73656C6563743A206468637020213DA4
:1046C000204E554C4C00000042798A4203D0417183
:1046D000002181710181704770B505006FF00F04F2
:1046E0001AD095F82D00C0071BD0A88C2C6A4FF06B
:1046F000FF36B0F5107F0DD3002C1BD0207908B108
:10470000FEF734FF34212046FBF725FEFFF7AAF819
:10471000002816D0304670BD14A340F2E72221A134
:1047200003E012A34FF43A7222A12BA0FEF79EFBE6
:10473000204670BD342002F085FE0400EAD02C62D1
:10474000E0E70120207195F82D00400705D40221F3
:104750002046FFF7B9FF002070BD2846FEF7B0FFE6
:104760000028F9D02846FFF7E5FDD3E72E2E2F4D80
:104770006964646C6577617265732F5468697264EB
:104780005F50617274792F4C7749502F7372632F89
:10479000636F72652F697076342F646863702E635F
:1047A000000000006E6574696620213D204E554C66
:1047B0004C0000006E65746966206973206E6F742A
:1047C0002075702C206F6C64207374796C65207078
:1047D0006F72743F00000000417373657274696FFB
:1047E0006E2022257322206661696C6564206174E5
:1047F000206C696E6520256420696E2025730A008F
:1048000040B1006A30B140790A2805D0052803D0AC
:10481000042801D0002070470120704710B5026ABB
:10482000044651790C290BD0062909D001290BD057
:10483000082918D0032926D19079022820461ED3B2
:10484000BDE81040FEF73CBF90790528204603D80C
:10485000BDE81040FFF738BEFFF76CFD2046BDE80D
:104860001040FFF739BF90790128204603D8BDE8F2
:104870001040FEF719BDBDE81040FEF751BCBDE881
:104880001040FFF747BC10BD01004FF000000AD0F8
:10489000C97A4A1C022A06D2034A02EB81014968FE
:1048A000002900D0012070477C0000102DE9F35F43
:1048B000DFF88880064600EB0611A8F58869002518
:1048C00009EB0114AA4604F1100B00BF05EB4507E4
:1048D000404658F8273053B100EB87010A7AB242BC
:1048E00005D14A6858460199984748F827A06D1C99
:1048F000EDB2042DEAD3002104254846B1420DD083
:1049000001EB011200EB0212937A022B06D1D27B4B
:10491000E37B9A4202D1E573BDE8FC9F491CC9B212
:104920000429EBD3E07B0428F6D2054E56F820008C
:104930000AF0E8FFE17B46F821A0ECE75CA3012048
:104940000C9F01202DE9F0410746324E00EB071085
:1049500006EB0014042F06D32FA340F21C423AA109
:1049600040A0FEF783FAA07A002850D000254FF02F
:10497000010801280CD0022821D0032841D0BDE82D
:10498000F04125A340F25B4240A136A0FEF76EBA8B
:10499000FBF7A8FC81B2002000EB001206EB02122C
:1049A000937A022B02D112898A42F1D0401CC0B204
:1049B0000428F1D321810220A072E57218E0207B47
:1049C000401E10F0FF00207321D1607B401CC0B25C
:1049D0006073042805D020733846BDE8F04100F02C
:1049E00067B82046FFF750FF30B1E07A401CE07214
:1049F00084F80C806573EFE700213846FFF756FF17
:104A000004E0206810B1401E206000D1A572BDE80E
:104A1000F08100001C9F01202E2E2F4D6964646CD4
:104A20006577617265732F54686972645F50617253
:104A300074792F4C7749502F7372632F636F7265AF
:104A40002F646E732E630000617272617920696E4B
:104A5000646578206F7574206F6620626F756E6470
:104A600073000000417373657274696F6E202225B4
:104A70007322206661696C6564206174206C696EC4
:104A80006520256420696E2025730A00756E6B6EA3
:104A90006F776E20646E735F7461626C6520656E03
:104AA0007472792073746174653A00007047000075
:104AB0002DE9FF5F04464A4900EB041001EB0015A5
:104AC000E87A022806D347A340F2FA2251A157A060
:104AD000FEF7CCF9E97A5F48002650F8210040B390
:104AE00005F110000446FBF741FC123081B24FF48F
:104AF0002072362003F0A8FD5FEA000A65D0009618
:104B000001960296288902F00DFBADF80000012005
:104B10008DF802004FF4807BADF804B00C2269469A
:104B2000504604F0F9FB0C26641E641C2746002244
:104B30000BE000212046FFF7B9FEAE72002004B062
:104B4000BDE8F09F521CD2B2641C20782E2801D000
:104B50000028F7D1E01B1FFA80F9B01800F1010816
:104B6000B8F5803F35D23146504604F067FA761CDE
:104B7000B3B24A463946504604F08AFC20781FFA00
:104B800088F60028D1D100223146504604F056FA6A
:104B9000761CADF80CB0B3B2ADF80EB0042203A988
:104BA000504604F075FCEA7A2A49E87B01EB820260
:104BB0000B493523103951F8200051460AF0FAFE0E
:104BC0000446504604F056F901E04FF0FF34204609
:104BD000B5E7504604F04EF96FF00500AFE700006E
:104BE0001C9F01202E2E2F4D6964646C65776172C5
:104BF00065732F54686972645F50617274792F4CC9
:104C00007749502F7372632F636F72652F646E73D1
:104C10002E630000646E7320736572766572206F78
:104C20007574206F662061727261790041737365DB
:104C30007274696F6E2022257322206661696C652B
:104C400064206174206C696E6520256420696E2083
:104C500025730A007C000010022805D2044A02EBEA
:104C6000800011B10968016070470249FAE700004D
:104C70007C000010C413010810B500242046FFF783
:104C800061FE641CE4B2042CF8D310BD70B5054677
:104C90000C46880706D009A34FF4B67213A11BA0D7
:104CA000FEF7E4F805F0BEF9A96809682160A96873
:104CB0000C60BDE8704005F0C1B900002E2E2F4DEC
:104CC0006964646C6577617265732F546869726496
:104CD0005F50617274792F4C7749502F7372632F34
:104CE000636F72652F6D656D702E63006D656D70FD
:104CF0005F667265653A206D656D2070726F7065D4
:104D0000726C7920616C69676E65640041737365CC
:104D10007274696F6E2022257322206661696C654A
:104D200064206174206C696E6520256420696E20A2
:104D300025730A0070B5044605F074F90546A068AD
:104D40000468002C0FD021680160A00706D008A3DA
:104D50004FF48C7212A11BA0FEF788F8284605F0CC
:104D60006DF9204670BD284605F068F9002070BD39
:104D70002E2E2F4D6964646C6577617265732F54B4
:104D8000686972645F50617274792F4C7749502F53
:104D90007372632F636F72652F6D656D702E630084
:104DA0006D656D705F6D616C6C6F633A206D656DE4
:104DB000702070726F7065726C7920616C69676EBB
:104DC00065640000417373657274696F6E202225FB
:104DD0007322206661696C6564206174206C696E61
:104DE0006520256420696E2025730A0070B5094D81
:104DF0000646002404EB440005EBC000017D29B108
:104E00008068B04202D1204600F036F9641C0A2CBA
:104E1000F0DB70BD14A701202DE9F74F84B04FF0EF
:104E20000A0B00240646DA465F46D94602940194EE
:104E3000CDF80040514904EB440001EBC008039059
:104E400098F814500A2F1DD0002D2AD0012D08D01B
:104E5000022D06D24AA340F2231257A166A0FEF704
:104E600005F89EB13168D8F8040081420ED1069849
:104E700020B1D8F808100698814207D1204607B023
:104E8000BDE8F08F002DE1D127460AE0012D16D0B4
:104E9000022D06D3B8F812000099884201D3A24629
:104EA0000090641C24B20A2CC4DB059881074FF0E3
:104EB000FF30E4D40A2F16D018DA3C463EE02F49E2
:104EC000039851F830000028B8F8120005D0029974
:104ED0008842E6D3A1460290E3E701998842E0D3F5
:104EE000A3460190DDE70599C907C8D05146BAF13C
:104EF0000A0F0EDA0C46214801EB440150F831004C
:104F000080B11FA340F26D1245A13BA0FDF7AEFF9B
:104F100008E05946BBF10A0F03DB4946B9F10A0F15
:104F2000ADDA0C460A2C06DB15A340F27F1242A133
:104F300031A0FDF79BFF204600F09EF80A2C06DB0F
:104F40000FA340F283123CA12BA0FDF78FFF0B486B
:104F500004EB440100EBC105287D30B108A34FF4F8
:104F6000C2723AA124A0FDF781FF0EB130686860DB
:104F7000002068820698A86080E7000014A701203E
:104F80002E2E2F4D6964646C6577617265732F54A2
:104F9000686972645F50617274792F4C7749502F41
:104FA0007372632F636F72652F697076342F657427
:104FB000686172702E6300007374617465203D3DFA
:104FC000204554484152505F53544154455F504529
:104FD0004E44494E47207C7C207374617465203EAA
:104FE0003D204554484152505F53544154455F530E
:104FF0005441424C45000000417373657274696FFF
:105000006E2022257322206661696C6564206174BC
:10501000206C696E6520256420696E2025730A0066
:105020006172705F7461626C655B695D2E71203DB9
:105030003D204E554C4C000069203C204152505FB1
:105040005441424C455F53495A4500006172705FBC
:105050007461626C655B695D2E7374617465203D7B
:105060003D204554484152505F53544154455F459B
:105070004D5054590000000070B5074C00EB40053E
:10508000002654F8350018B103F0F4FE44F83560FA
:1050900004EBC500067570BD14A701202DE9F0438F
:1050A00085B00D00074609D07C684FF480782088D1
:1050B000404542D1207906283FD109E021A340F2A2
:1050C0008A222EA131A0FDF7D1FE05B0BDE8F08304
:1050D0006079042831D1608808282ED1D4F80E00D8
:1050E0000490A169686820B1814202D1012633464B
:1050F00001E00026022304F10802914604A9284693
:1051000000F0ACFBE088404503D0B0F5007F14D13F
:105110000FE096B1022204ABCDE90232291DCDE9A0
:10512000001905F1260319464A46284600F096FA6A
:1051300003E004A92846FDF7A5FF384603F09AFED0
:10514000C3E700002E2E2F4D6964646C6577617291
:1051500065732F54686972645F50617274792F4C63
:105160007749502F7372632F636F72652F69707662
:10517000342F6574686172702E6300006E65746907
:105180006620213D204E554C4C0000004173736554
:105190007274696F6E2022257322206661696C65C6
:1051A00064206174206C696E6520256420696E201E
:1051B00025730A00FEB515460E46040006D143A32A
:1051C00040F21E324FA153A0FDF750FE36B93FA367
:1051D00040F21F3259A14FA0FDF748FE35B93BA35D
:1051E0004FF4487258A14BA0FDF740FE21462868B5
:1051F00000F088FE08B1584B3FE02868C0F3031167
:105200000E2925D0A168636800EA01020B409A428A
:1052100008D080B2A0F57E41A93903D0E068B0B3D0
:1052200004F10C054D4B4E481A7802EB420100EB9D
:10523000C1010F7D022F2ED38F68A7422BD12F687B
:1052400049688F4227D13146204600F08BF8FEBDD9
:1052500001208DF8040000208DF805005E208DF8F7
:105260000600687801AB00F07F008DF80700A87891
:105270008DF80800E8788DF809004FF40060009080
:1052800004F126023146204600F0C8FBFEBDFFE7D0
:105290006FF00300FAE7002202EB420100EBC101CC
:1052A0000F7D022F08D38F68A74205D12F68496868
:1052B0008F4201D11A70C6E7521CD2B20A2AEBD330
:1052C00032462946204600F0D5F8DFE72E2E2F4D36
:1052D0006964646C6577617265732F546869726480
:1052E0005F50617274792F4C7749502F7372632F1E
:1052F000636F72652F697076342F657468617270A0
:105300002E6300006E6574696620213D204E554C69
:105310004C000000417373657274696F6E20222522
:105320007322206661696C6564206174206C696E0B
:105330006520256420696E2025730A007120213DB7
:10534000204E554C4C00000069706164647220214D
:105350003D204E554C4C000054120108CC0000106A
:1053600014A701202DE9F8430646154688461C4837
:1053700002EB450100EBC104207D022806D219A3EF
:1053800040F2EE2225A131A0FDF770FD144A05EB95
:105390004501207D02EBC1050C35022813D1608A3E
:1053A0000327B0F58E7F04D9211D304600F010FA96
:1053B00007E0B0F5877F06D32A46211D304600F06E
:1053C0000DFA00B927754FF4006000902B4606F1E6
:1053D00026024146304600F021FBBDE8F88300007C
:1053E00014A701202E2E2F4D6964646C65776172BD
:1053F00065732F54686972645F50617274792F4CC1
:105400007749502F7372632F636F72652F697076BF
:10541000342F6574686172702E6300006172705F72
:105420007461626C655B6172705F6964785D2E7334
:1054300074617465203E3D204554484152505F538D
:10544000544154455F535441424C45004173736588
:105450007274696F6E2022257322206661696C6503
:1054600064206174206C696E6520256420696E205B
:1054700025730A002DE9FC5F8246263001900E4616
:10548000086814464FF0FF374FF0000B514600F00C
:1054900039FD80B93068C0F303110E290BD056B125
:1054A00048B1524601213046FFF7B6FC050005D54C
:1054B00040B2BDE8FC9F6FF00F00FAE77F2D06D3E6
:1054C00037A340F2C13244A147A0FDF7CFFC05F05D
:1054D000FF094F4909EB490801EBC805287D002861
:1054E0000ED0012808D0022806D22DA340F2CD32DA
:1054F00048A13DA0FDF7BAFCBBF1000F06D104E0C6
:1055000001202875C5F808A000E034B9314650469E
:1055100000F05EF90746002CCBD0287D3C4E0228D7
:105520000ED346494FF4006005F10C0381F800905A
:10553000009021465046019A00F070FA07462DE08F
:1055400001282BD1254640F2F13768892989884204
:1055500007D1286828B112A33A4639A122A0FDF745
:1055600085FC287B400607D522464FF420710E208B
:1055700003F0B6FA044605E02D68002DE5D120467B
:1055800003F006FE44B156F8380008B103F072FC8F
:1055900046F83840002701E04FF0FF37384688E7EB
:1055A0002E2E2F4D6964646C6577617265732F547C
:1055B000686972645F50617274792F4C7749502F1B
:1055C0007372632F636F72652F697076342F657401
:1055D000686172702E63000074797065206F766563
:1055E00072666C6F77000000417373657274696F47
:1055F0006E2022257322206661696C6564206174C7
:10560000206C696E6520256420696E2025730A0070
:1056100014A701206172705F7461626C655B695DE3
:105620002E7374617465203D3D2050454E44494EB3
:1056300047206F7220535441424C4500CC0000106B
:105640006E6F207061636B6574207175657565732D
:1056500020616C6C6F776564210000002DE9FF4FBD
:1056600081B09846DDE90FA9DDF838B006004FF0AB
:10567000000706D12CA340F2574239A13CA0FDF708
:10568000F5FB4FF420721C210E2002F0DDFF050017
:1056900046D068891C2806D223A340F262423EA16C
:1056A00033A0FDF7E3FB6C68119801F03BFDE0804F
:1056B00096F82C00062806D01BA340F26942434905
:1056C0002BA0FDF7D3FBD8F80010A160B8F80400B8
:1056D000A081DAF80010C4F81210BAF80400E082D1
:1056E000DBF80000C4F80E00D9F80000A0614FF408
:1056F0008070208008206080062020710420607166
:1057000040F60600DDE9022300902946304600F00D
:1057100085F9284603F0AEFB384605B0BDE8F08FAA
:105720004FF0FF30F9E700002E2E2F4D6964646CB6
:105730006577617265732F54686972645F50617236
:1057400074792F4C7749502F7372632F636F726592
:105750002F697076342F6574686172702E63000053
:105760006E6574696620213D204E554C4C0000004A
:10577000417373657274696F6E20222573222066EF
:1057800061696C6564206174206C696E65202564B4
:1057900020696E2025730A00636865636B20746856
:1057A000617420666972737420706275662063612B
:1057B0006E20686F6C6420737472756374206574F6
:1057C000686172705F68647200000000F414010880
:1057D000014A00F003B80000541201087FB5064DDD
:1057E000031D0124CDE90035CDE902142233194609
:1057F000FFF734FF04B070BD5A12010870B5164DA2
:10580000002400BF04EB440005EBC002117DF1B1A0
:10581000508A401C80B25082B0F5967F0AD201298E
:1058200006D003290AD004290AD001290BD00EE0A2
:10583000052808D32046FFF71FFC08E0042000E0FD
:105840000220107503E0111D9068FFF7C1FF641C72
:105850000A2CD7DB70BD000014A70120F8B5044660
:1058600090F82C001F4616460D46062806D020A3A9
:1058700040F2A9122CA135A0FDF7F8FA9DB12868D5
:1058800088B1214600F03EFB68B92878C0F30310C8
:105890000E2808D0224639462846FFF7BDFA0028D0
:1058A00004DA40B2F8BD6FF00F00F8BD00EB400124
:1058B0003048022300EBC102137594603368D36053
:1058C000B38813820023538250F8315075B140F8E9
:1058D00031304FF400600090334604F1260229462F
:1058E000204600F09BF8284603F0C4FA0020F8BDDB
:1058F0002E2E2F4D6964646C6577617265732F5429
:10590000686972645F50617274792F4C7749502FC7
:105910007372632F636F72652F697076342F6574AD
:10592000686172702E6300006E657469662D3E6852
:1059300077616464725F6C656E203D3D204554481C
:105940005F4857414444525F4C454E004173736574
:105950007274696F6E2022257322206661696C65FE
:1059600064206174206C696E6520256420696E2056
:1059700025730A0014A701202DE9F041044640894F
:105980000E270D460E283CD9E07B18B995F830005B
:10599000401CE073606801788689CA0714D0012929
:1059A00005D006221C49FAF7E8FC48B10CE0417822
:1059B00051B980785E2807D1607B40F0100002E08A
:1059C000607B40F008006073082E03D0B6F5C16F0D
:1059D00017D10DE095F82D00000712D53946204665
:1059E00003F024FC68B92946204600F0D3FB10E000
:1059F00095F82D00000704D53946204603F016FC23
:105A000018B1204603F036FA03E029462046FFF796
:105A100045FB0020BDE8F081541201082DE9F0415A
:105A200004461F4690460E46069801F07BFB05464D
:105A30000E21304602F0A4FD18B16FF00100BDE860
:105A4000F0817068858139680160B9888180D8F8F3
:105A50000020C0F80620B8F80410418194F82C000A
:105A6000062806D006A34FF4997213A11FA0FDF7D4
:105A7000FDF931462046A269BDE8F041104700001B
:105A80002E2E2F4D6964646C6577617265732F5497
:105A9000686972645F50617274792F4C7749502F36
:105AA0007372632F6E657469662F65746865726EB4
:105AB00065742E63000000006E657469662D3E6893
:105AC00077616464725F6C656E206D7573742062BB
:105AD00065203620666F722065746865726E657425
