:020000040800F2
:10000000A8C100205D020008871900082318000815
:1000100085190008930400083D1B0008000000003B
:100020000000000000000000000000009D0100082A
:100030009504000800000000F90100089919000863
:1000400077020008770200087702000877020008AC
:10005000770200087702000877020008770200089C
:10006000770200087702000877020008770200088C
:10007000770200087702000877020008770200087C
:10008000770200087702000877020008770200086C
:10009000770200087702000877020008770200085C
:1000A00077020008691A0008770200087702000842
:1000B000770200087702000877020008770200083C
:1000C000770200087702000877020008770200082C
:1000D000770200087702000877020008770200081C
:1000E000770200087702000877020008770200080C
:1000F00077020008770200087702000877020008FC
:1001000077020008770200087702000877020008EB
:1001100077020008770200087702000877020008DB
:1001200077020008770200087702000877020008CB
:1001300077020008E9040008770200087702000847
:1001400077020008770200087702000877020008AB
:10015000770200087702000877020008770200089B
:10016000770200087702000877020008770200088B
:1001700077020008770200087702000800000000FC
:100180007702000877020008DFF80CD000F040F991
:10019000004800475D6B0008A8C100202C4B19687F
:1001A0000868B0E8F04F80F30988BFF36F8F4FF015
:1001B000000080F3118870470000000008480068C4
:1001C000006880F308884FF0000080F3148862B65E
:1001D00061B6BFF34F8FBFF36F8F00DF00BF00BF6B
:1001E00008ED00E0DFF80C00016841F470010160E7
:1001F000704700BF88ED00E0EFF30980BFF36F8F19
:10020000134B1A681EF0100F08BF20ED108A20E96A
:10021000F04F106009B44FF0500080F31188BFF325
:100220004F8FBFF36F8F11F041FF4FF0000080F34D
:10023000118809BC19680868B0E8F04F1EF0100F6B
:1002400008BFB0EC108A80F30988BFF36F8F704746
:1002500098090020EFF305807047000006488047AA
:1002600006480047FEE7FEE7FEE7FEE7FEE7FEE79B
:10027000FEE7FEE7FEE7FEE74D1A000889010008E9
:100280002DE9F05F0546002092469B4688460646CB
:10029000814640241BE0284641464746224600F05E
:1002A000A6F853465A46C01A914110D31146184633
:1002B000224600F08DF82D1A67EB01084F462246C2
:1002C0000120002100F084F817EB00094E41201EA8
:1002D000A4F10104DFDC484631462A464346BDE826
:1002E000F09F00000649074A0868504343F239026C
:1002F00010440860400870470149086070470000DA
:10030000F00A00206D4EC64110B5431A934209D23F
:100310008318881803E010F8011D03F8011D521E10
:10032000F9D210BD40EA01039B0703D009E008C9D8
:10033000121F08C0042AFAD203E011F8013B00F8AA
:10034000013B521EF9D210BDD2B201E000F8012BE0
:10035000491EFBD270470022F6E710B513460A4645
:1003600004461946FFF7F0FF204610BD30B504469D
:100370000020034600E05B1C934203D2E05CCD5CAE
:10038000401BF8D030BD30B505460020034600E0E4
:100390005B1C934205D2EC5CC85C201A01D1002C96
:1003A000F6D130BD30B50B46014600202022012495
:1003B00009E021FA02F59D4205D303FA02F5491B33
:1003C00004FA02F52844151EA2F10102F1DC30BD49
:1003D000202A04DB203A00FA02F100207047914005
:1003E000C2F1200320FA03F3194390407047202AFA
:1003F00004DB203A21FA02F00021704721FA02F3CF
:10040000D040C2F1200291400843194670470000D5
:10041000064C074D06E0E06840F0010394E8070051
:1004200098471034AC42F6D3FFF7B2FE9032010881
:10043000B032010870B58D1810F8014B14F00302AA
:1004400001D110F8012B231106D110F8013B03E074
:1004500010F8016B01F8016B521EF9D1ABB110F825
:10046000012B04F00C048A1A0C2C03D0A2EB84128A
:100470009B1C08E010F8014BA2EB0422F8E712F8ED
:10048000014B01F8014B5B1EF9D5A942D4D30020E2
:1004900070BDFEE770470000064908B509684FF4D3
:1004A000FA52B1FBF2F14143009100BF491E0091A5
:1004B000FBD208BD9409002038B50446006800F559
:1004C0008050816941F480118161206800F580507D
:1004D000806900900120FFF7DFFF2068009900F598
:1004E0008050816138BD0000014800F062B9000011
:1004F000143C00202DE9F041044621B14FF4006086
:10050000E060C000A060E0690025002861D02846B6
:100510002368402619683A4A1140D4E902273A4331
:10052000024342F400700843186020680768012005
:1005300000F072F82068076020684660206846680E
:10054000012000F069F82068466020688560206816
:10055000C560216888694FF64172104040F0800004
:10056000886120688669012000F056F8206886615D
:100570002068C5612068C569012000F04DF8206839
:10058000C561226802F5805290691E4908401E49E3
:1005900001439161206800F580508569012000F0D9
:1005A0003BF8206800F5805085612068174900F508
:1005B00080500160206800F580500568012000F03F
:1005C0002BF8206800F580500560A069012803D051
:1005D00009E04FF480609BE7206800F58050C16916
:1005E0000B4A1143C16160690A4982880A64027832
:1005F000D0F8010042EA00204864BDE8F081000024
:100600000F8120FF233FDEF8040020028020C1027A
:10061000400001000080024070B5044600F0A4FCD8
:100620000546601C02D004480078044400F09CFC9D
:10063000401BA042FAD370BD880900202DE9F04389
:1006400090F845400025012C0DD04FF0010C80F8AA
:1006500045C0022480F8444044F2F4574FF000496A
:100660005E1E816217E00220BDE8F08301EB4514B5
:10067000C4F80090C5EBC51808EB480802EB8808E1
:10068000C4E90178B54204D204F12008C4F80C8012
:1006900000E0E1606D1C9D42E8D3026802F58052E3
:1006A000D16080F844C0002180F845100846DBE79F
:1006B0002DE9F043914690F845200024012A0AD004
:1006C000012680F84560022280F844204FF4801C07
:1006D0005D1EC1621BE00220BDE8F08301EB441205
:1006E000C2F800C0C4EBC41707EB470809EB880742
:1006F0009760C7691FB9176847F440071760AC4295
:1007000003D202F12007D76000E0D160641C9C4254
:10071000E4D3026802F58052116180F84460002140
:1007200080F845100846D7E7704730B590F8451077
:100730000023012908D0012280F84520022180F8F9
:1007400044100024816A1AE0022030BD0D685B1C51
:10075000C5F30125022D0AD00D6815F4407F09D09C
:100760004163836B5B1C8363012B12D012E08263B5
:10077000016302E0856B6D1C8563C96881620D6849
:10078000002D01DB042BE1D300F8442F447001203D
:1007900030BD01630B68C3F30D431B1FC363036BC1
:1007A0009B680364C96840F8281F027744770020DB
:1007B00030BD70B50446006800F5805041694FF0C7
:1007C000000549064FF0010608D5204600F0DAF989
:1007D0002068402100F58050416109E04069C00770
:1007E0000AD0204600F09AFA206800F58050466151
:1007F00084F8446084F8455020684FF4803100F557
:1008000080504161206800F58050406900040CD59B
:100810002046FFF789FF20684FF4004100F5805023
:10082000416184F8446084F8455070BD2DE9FC476F
:100830004FF000060400B146009603D094F844003F
:1008400018B107E00120BDE8FC8784F84560204628
:1008500000F0E2F86648016841F4804101600068F8
:1008600000F4804001906348016821F400010160B8
:100870000168226A11430160206800F58050016818
:1008800041F00101016000F06FFB05464FF4FA777B
:1008900009E000BF00F068FB401BB84203D9032009
:1008A00004F8440F67E0206800F580500068C00736
:1008B000F0D12068006920F01C0500F0CDFC4E4905
:1008C0004E4A0144914202D245F0080516E04C49D7
:1008D0004C4A0144914202D245F00C050EE04A49CF
:1008E0004A4A0144914209D3494908444949884246
:1008F00002D245F0040501E045F0100520680561CD
:100900004FF400420021204600F00AFA0125A8BB5E
:10091000FF20FFF781FE606888B300F025FB80466A
:1009200041F288376A460121204600F0E9F800F0DC
:100930001BFBA0EB0800B84217D800984007F1D580
:100940004FF480520021204600F0EAF9B0B900F0DF
:100950000BFB80466A460121204600F0D1F800F0EA
:1009600003FBA0EB0800B8420AD901212046FFF79B
:10097000C1FD04F8445F0320667064E724E018E0DA
:1009800000988006E6D56A461F21204600F0B8F898
:10099000D0B90098C10603D54FF40061E16000E0D2
:1009A000E660400701D5A66019E04FF48040A060E2
:1009B00015E0E068A168C00840EA510082B2002159
:1009C000204600F0ADF930B101212046FFF792FD3D
:1009D00084F8445036E740F6FF70FFF71DFE4946A5
:1009E0002046FFF787FD84F8445000202BE70000E5
:1009F000443802400438014000D3CEFEC0E1E40098
:100A000040F1E9FD40787D0100796CFC005A6202FA
:100A1000001F0AFA80F0FA02F0B587B004461421EC
:100A20006846FFF798FC3149206888425BD130481E
:100A30000024016841F000710160016801F000715B
:100A40000591016841F080610160016801F08061F9
:100A50000591016841F000610160016801F00061E9
:100A60000591016841F004010160016801F0040191
:100A70000591016841F001010160016801F0010187
:100A80000591016841F0020101600068022500F053
:100A9000020005903220CDE9000502AA03260B27AB
:100AA00082E8D0006946134800F076F98620CDE947
:100AB000000502AA694682E8D0000F4800F06CF9F0
:100AC0004FF46050CDE9000502AA694682E8D000E3
:100AD0000A4800F061F9002205213D2000F0D0FA1B
:100AE0003D2000F0BFFA07B0F0BD000000800240DA
:100AF000303802400008024000000240000402407A
:100B00002DE9F047044690F84400914682281DD014
:100B1000822084F84400226810694FF6FF7500F0C7
:100B20001C03208A05EAC02018434FF4F86303EA47
:100B30008111014321F0020040F00105156100F030
:100B400013FA064601274FF4803810E00220BDE872
:100B5000F08700BF00F008FA801B404505D304F879
:100B6000447F002060700320F1E720680569E807F2
:100B7000F0D12068406981B2C9F8001084F844704F
:100B80000020E4E70148006808F038B910000020B0
:100B9000F8B5044690F84500012839D0012584F8BD
:100BA0004550022084F8440020680026016841F086
:100BB000080101602068006800902846FFF76CFC7F
:100BC0002168009808602068016841F00401016014
:100BD0002068006800900120FFF75EFC2168009803
:100BE00008602046FFF768FC206800F580508169A6
:100BF00041F400518161206800F58050816941F025
:100C00000201816184F8445084F845600020F8BDF9
:100C10000220F8BDF0B590F845200023012A11D03C
:100C2000012780F84570022280F84420002459B141
:100C3000C66A3268002A0ADA122100F8441F44709A
:100C40000120F0BD0220F0BD00F8447FF7E740F23C
:100C5000F455A9420BD9B1FBF5FCB1FBF5F205FB4C
:100C60001C1CBCF1000F00D0521C012A43D1326879
:100C700042F040523260C26AC1F30C015160C16A55
:100C80000A6842F000420A60C16AC968C16234E081
:100C9000D6F800C02CF0405CC6F800C033B9C66A74
:100CA000D6F800C04CF0805CC6F800C0C66A75601B
:100CB000561EB34214D1C66AD6F800C04CF0005C90
:100CC000C6F800C0C2F10106C6EBC61606EB460622
:100CD000D0F82CC001EB8606C6F30C06CCF80460F5
:100CE000C66AD6F800C04CF0004CC6F800C0C66A10
:100CF0005B1CF668C6629342CAD3016801F5805155
:100D00004A69520705D504224A61016801F58051FC
:100D10004C6000F8447F44700020F0BD7047000034
:100D20002DE9F041044690F8440042281ED04220AC
:100D300084F84400236818694FF6FF7600F01C051C
:100D4000208A06EAC02028434FF4F86505EA81119D
:100D5000014390B241F0030558612068056100F03D
:100D600003F9064601274FF4803810E00220BDE861
:100D7000F08100BF00F0F8F8801B404505D304F86F
:100D8000447F002060700320F1E720680569E807D0
:100D9000F0D184F84470EAE72DE9F84F00224FF0D3
:100DA000010803254FF00F0E0B6808FA02F42340E8
:100DB000A3426ED14E68012E05D0022E03D0112E13
:100DC00001D0122E12D186684FEA420C05FA0CF7B8
:100DD000BE43CF6807FA0CF7374387604668A643DF
:100DE0000C79C4F30014944034434460C66857003F
:100DF00005FA07FC8C6826EA0C06BC403443C46044
:100E00004C68022C01D0122C13D1D40800EB8404BE
:100E1000A346D4F8209054074FEAD46A0EFA0AF693
:100E200029EA06090E6906FA0AF646EA0906CBF827
:100E3000206006680C7926EA0C0604F00304BC4026
:100E4000344304604C68E40065D5364C266846F4AB
:100E500080462660246822F0030604F4804400944F
:100E6000314C3444A446D4F808489607370F0EFA9C
:100E700007F6B4432D4EB04201D1002624E02C4E9B
:100E8000B04201D101261FE02A4EB04202D1022613
:100E90001AE040E0284EB04201D1032614E0274E6C
:100EA000B04201D104260FE0254EB04201D1052603
:100EB0000AE0244EB04201D1062605E0224EB0429F
:100EC00001D1072600E00826BE402643CCF808687A
:100ED0001E4E34684F689C43FF0300D51C433460AA
:100EE0001A4C241D26684F689E43BF0300D51E433D
:100EF0002660164E083634684F689C43FF0200D5C2
:100F00001C433460114E0C3634684F689C43BF025A
:100F100000D51C433460521C102AFFF445AFBDE8D5
:100F2000F88F0000443802400030014000000240C9
:100F30000004024000080240000C02400010024081
:100F40000014024000180240001C0240003C014016
:100F5000426931EA020200D10904816170470AB195
:100F6000816170470904FBE7014880687047000011
:100F70008809002002488168027811448160704726
:100F8000880900200B4810B5016841F40071016028
:100F9000016841F480610160016841F48071016081
:100FA000032000F08DF8002000F006F800F03EF875
:100FB000002010BD003C024010B5014688B0002260
:100FC000192000F05DF8192000F04CF813480024B7
:100FD000016841F001010160006805A900F001000D
:100FE0000690684600F018F900F03CF90C49400002
:100FF000B0FBF1F10C480B4A491E026040F2E732A7
:10100000C0E90324C0E9011400F01CFB10B1012069
:1010100008B010BD044800F031FBF9E74438024045
:1010200040420F00000001405C3C00200C4882B0B0
:10103000016841F480410160006800F48040009044
:101040000748001F016841F08051016000680022DC
:1010500000F0805000900F21901E02B000F010B8F8
:1010600044380240002809DB00F01F0201219140B2
:101070004009800000F1E020C0F800117047000036
:10108000F0B40E4B1B680C46C3F30223C3F10705F3
:10109000042D00D90425191D072901D2002300E0E1
:1010A000DB1E012606FA05F1491E214099409E40AB
:1010B000761E16403143F0BC00F052BD0CED00E04E
:1010C000064900F0070208684FF6FF03184040EA9F
:1010D0000220034A10430860704700000CED00E056
:1010E0000000FA052DE9F0470E46050065D0DFF84F
:1010F0001481D8F80000F7B200F00F00B04207D218
:1011000088F80070D8F8000000F00F00B04254D109
:1011100028683D4C810712D5400703D5206840F46C
:10112000E05020602878000703D5206840F4604034
:1011300020602068A96820F0F0000843206028782B
:10114000C0072DD0304968680839012812D002281C
:1011500013D0032811D00968890700292DDA2168E6
:1011600021F0030101432160FFF7FEFE814641F2B9
:10117000883A0EE009688903EFE709688901ECE71E
:10118000FFF7F2FEA0EB0901514502D90320BDE8AB
:10119000F0872068696800F00C00B0EB810FEFD198
:1011A000D8F80010404601F00F01B14207D907708E
:1011B000006800F00F00B04201D00120E7E7287876
:1011C000400705D52068E96820F4E0500843206016
:1011D0002878000706D52068296920F4604040EA95
:1011E000C100206000F04EF82168084AC1F30311E5
:1011F000515CC8400649086006480068FFF7DCFEFD
:101200000020C4E7003C024008380240B02F01082B
:10121000940900208C0900200F2202600C4A1368F8
:1012200003F003034360136803F0F0038360136863
:1012300003F4E053C36012684FF4E05303EAD202B0
:1012400002610448006800F00F0008607047000069
:1012500008380240003C0240014800687047000026
:10126000940900200448054900680968044AC1F34C
:101270004231515CC8407047940900200838024050
:10128000C02F0108154810B5006810F00C02144872
:1012900013D04110042A0FD0082A0ED10F4C241F5E
:1012A0002268236802F03F025B0207D52068C0F382
:1012B0008810A0FB010106E0084610BD2168C1F3BB
:1012C0008811A1FB00010023FEF7DAFF2168C1F3BA
:1012D0000141491C4900B0FBF1F010BD0838024043
:1012E0000024F4002DE9F84F04006ED02078DFF8D8
:1012F0003C93C007A9F104054AD009F10400016834
:10130000C1F38101012908D00068C0F381000228DF
:101310000AD1D9F80000400206D52868800337D5E5
:1013200060680028E1D033E06068B0F5803F10D0FD
:10133000B0F5A02F286810D020F4803028602868ED
:1013400020F4802028606068A8B1FFF70DFE0646F3
:101350000DE0286840F48030F4E740F480202860F5
:10136000F7E700BFFFF700FE801B642873D82868EA
:101370008003F7D50CE0FFF7F7FD064605E000BF58
:10138000FFF7F2FD801B6428F0D828688003F7D4AB
:101390002078DFF89C8280074FF0000A3ED5A348F2
:1013A000001D016811F00C0F08D00068C0F3810027
:1013B00002280BD1D9F80000400207D42868800722
:1013C00016D5E068012800D112E02BE1E068B8B141
:1013D0000120C8F80000FFF7C7FD064605E000BF82
:1013E000FFF7C2FD801B0228C0D828688007F7D508
:1013F0002868216920F0F80040EAC10028600DE06B
:10140000C8F800A0FFF7B0FD064604E0FFF7ACFD0A
:10141000801B02281FD828688007F7D4207800078F
:1014200022D5824E83486169703671B10121016015
:10143000FFF79AFD074604E0FFF796FDC01B022860
:1014400009D830688007F7D50EE0C0F800A0FFF794
:101450008BFD074605E082E0FFF786FDC01B0228F2
:101460007DD830688007F7D42078400768D5DFF84A
:10147000BCB100270BF13C0BDBF80000C0000BD423
:10148000DBF8001041F08051CBF80010DBF80000D1
:10149000012700F080500090674E3068C00510D4DE
:1014A000306840F480703060FFF75EFD009005E02A
:1014B000FFF75AFD0099401A022850D83068C0053D
:1014C000F6D55A4EA0686C3601280FD00528306832
:1014D00010D020F001003060306820F0040030604F
:1014E000A068B8B1FFF740FD00900FE0306840F011
:1014F0000100F4E740F004003060F7E7FFF734FD47
:101500000099411A41F28830814266D830688007DC
:10151000F4D50EE0FFF728FD009007E0FFF724FD6B
:101520000099411A41F28830814256D830688007CC
:10153000F4D42FB1DBF8001021F08051CBF800106B
:10154000A069C8B33949091D0968C1F3810102299D
:101550004AD00228504607D0C8F8600000E03CE0BE
:10156000FFF702FD04463BE04746C8F86000FFF77E
:10157000FBFC064605E000BFFFF7F6FC801B0228D7
:101580002BD828688001F7D4D4E907010843A16A61
:101590002A4A490802EB0141626A41EA8211084382
:1015A00094F82C1040EA0161C9F800100120386657
:1015B000FFF7DAFC044606E036E000BFFFF7D4FC94
:1015C000001B022809D828688001F7D52CE000BF4D
:1015D000FFF7CAFC001B022802D90320BDE8F88FE0
:1015E00028688001F4D41FE00128F7D0D9F8000062
:1015F000E26900F48001914214D1226A00F03F01B7
:1016000091420FD147F6C071626A0140914209D1FF
:10161000A26A00F44031914204D1E16A00F07060A6
:10162000884201D00120D9E70020D7E704380240E2
:1016300000004742800E4742007000400000FFFF5C
:101640007047704710B5040003D094F83D0010B106
:1016500007E0012010BD002084F83C00204600F087
:101660000CF8022084F83D00211D206800F002FAE9
:10167000012084F83D00002010BD70470168CA6851
:1016800042F00102CA600068816801F00701062982
:1016900003D0016841F001010160002070477047EC
:1016A00070B50446006801694FF00005C943890719
:1016B00015D4C168C943890711D4E91E016101200D
:1016C0002077206880698007204602D0FFF7E7FF77
:1016D00004E000F098F8204600F096F8257720689E
:1016E0000169C943490717D4C168C943490713D4DD
:1016F0006FF004010161022020772068806910F4F6
:10170000407F204602D0FFF7CAFF04E000F07BF8DC
:10171000204600F079F8257720680169C943090758
:1017200016D4C168C943090712D46FF008010161DA
:10173000042020772068C0698007204602D0FFF788
:10174000AEFF04E000F05FF8204600F05DF825777A
:1017500020680169C943C90617D4C168C943C906CD
:1017600013D46FF010010161082020772068C06950
:1017700010F4407F204602D0FFF791FF04E000F014
:1017800042F8204600F040F8257720680169C943F7
:10179000C90708D1C168C943C90704D1891E0161BD
:1017A000204600F033F820680169C943090609D4CE
:1017B000C168C943090605D46FF080010161204664
:1017C000FFF73EFF20680169C943490609D4C16893
:1017D000C943490605D46FF040010161204600F07D
:1017E0001FF820680169C94389060BD4C168C94341
:1017F000890607D46FF0200101612046BDE87040E2
:10180000FFF71FBF70BD70477047000000680349B5
:10181000884201D1FFF7AEBB7047000000000140D5
:101820007047FEE72DE9F04186B014216846FEF7C7
:1018300092FD37480024016841F010010160016801
:1018400001F010010591016841F004010160016897
:1018500001F004010591016841F080010160016817
:1018600001F080010591016841F00101016001680A
:1018700001F001010591016841F002010160016878
:1018800001F002010591016841F008010160006862
:10189000204E00F008000590002204213046FFF79A
:1018A0005EFBDFF874804FF47047002239464046F3
:1018B000FFF755FB04200125CDE900050220CDE905
:1018C000024069463046FFF767FACDE90075CDE979
:1018D000025469464046FFF75FFA00220421304671
:1018E000FFF73DFB44F6206505940598401C0590E4
:1018F000A842FAD3012204213046FFF730FB0594B9
:101900000598401C0590A842FAD306B0BDE8F081C6
:101910003038024000100240000C02400EB5002199
:1019200008460FF0C3F913490020144A0860091D46
:10193000104B0860091D08330860CDE900020E490C
:1019400002911A1F111F0E4806F0E0FC0C4806F029
:10195000F7FE0B4890F82D004007094802D506F025
:1019600049FF01E006F0F2FEBDE80E40044801F038
:10197000A3BD0000040000207D0E0108B946000848
:10198000400B0020FEE77047FFF7C8FF02F008FF9A
:10199000012006F07FFFFBE710B5502080F311888F
:1019A000BFF34F8FBFF36F8F11F012F918B10449D5
:1019B0004FF080500860002080F3118810BD0000B7
:1019C00004ED00E030B593B030216846FEF7C3FC6B
:1019D00014210CA8FEF7BFFC1A480025016841F04D
:1019E00080510160006800F0805011901648016835
:1019F00041F4804101600068022400F480401190AD
:101A000001200090000401908001CDE906400820EB
:101A100008904FF4A870CDE9090407200B906846A0
:101A2000FFF760FC0CA90F2081E831004FF4A050B3
:101A30000F90E002109005210CA8FFF753FB13B0A4
:101A400030BD000040380240007000400548016889
:101A500041F47001016003494FF000608039086073
:101A60007047000088ED00E00148FFF719BE000054
:101A70005C3C0020F0B50268254C264D264E274FD1
:101A8000274B4FF0804CA04209D0604507D0A842B8
:101A900005D0B04203D0B84201D0984204D122F020
:101AA000700E4A6842EA0E02A0421BD0604519D06F
:101AB000A84217D0B04215D0B84213D0984211D0E6
:101AC000184DA8420ED0184DA8420BD0174DA84271
:101AD00008D0174DA84205D0164DA84202D0164D89
:101AE000A84203D122F44075CA682A434D6922F006
:101AF00080022A4302608A68C2620A688262A04247
:101B000001D0984201D10969016301214161F0BD11
:101B1000000001400004004000080040000C0040AC
:101B200000040140004001400044014000480140E1
:101B300000180040001C004000200040FEE70000AC
:101B40000FB4054B10B503A9044A029800F028F819
:101B500010BC5DF814FB00008D470008F40A00205B
:101B60000907090E002804DB00F1E02080F80014CA
:101B7000704700F00F0000F1E02080F8141D70475E
:101B800002E008C8121F08C1002AFAD17047704746
:101B9000002001E001C1121F002AFBD170470000A4
:101BA0002DE9FF4F8BB09A460F460546002606E00A
:101BB00025280BD052460D9990476D1C761C28782D
:101BC0000028F5D10FB03046BDE8F08F0024A046C4
:101BD0000122604900E0044315F8013F203B02FA6E
:101BE00003F00842F7D128782E2817D115F8010FF5
:101BF00044F004042A280ED06FF02F022878A0F1B8
:101C0000300109290AD808EB880102EB410100EBF9
:101C100001086D1CF2E757F8048B6D1C28786928C1
:101C20003ED006DC0028CDD063280BD0642804D138
:101C300036E0732810D075284BD052460D99904746
:101C4000761C85E017F8040B8DF8000000208DF855
:101C50000100E946012003E057F8049B4FF0FF30F4
:101C600061074FF0000401D40AE0641C44450DDA1A
:101C70008442FADB19F804100029F6D106E0641C4E
:101C80008442FCDB19F804100029F8D1264404E052
:101C900019F8010B52460D999047641EF8D257E08F
:101CA00001CF4FF00A0B002802DA40422D2102E05A
:101CB000210504D52B218DF82410012103E0E10733
:101CC00005D02021F7E70DF1200908910CE0002153
:101CD000F9E701CF4FF00A0BF9E75946FEF762FB2F
:101CE00001F1300209F8012D0028F6D1ADEB090011
:101CF00000F1200B600701D44FF00108D84502DD48
:101D0000A8EB0B0000E000208046002406E009A8B4
:101D10005246005D0D999047641C761C08988442D9
:101D2000F5DB04E0302052460D999047761CB8F15F
:101D30000001A8F10108F5DC05E019F8010B524695
:101D40000D999047761CBBF10001ABF1010BF4DC5F
:101D50006D1C34E7092801002DE9F04790460E4636
:101D600004006FF0050555D004F11400814609F018
:101D70004BF800284ED0EF1F002E3DD0B8F1000FD9
:101D800006D032A340F22A223DA147A0FFF7D8FE99
:101D90002078616A05F05AFC05004FF0FF383DD00D
:101DA0006E6008F063FF2946484609F021F8A0B3A9
:101DB0006C680021204609F03FFB002120460CF012
:101DC00095FF002120460DF0D1FC0022114620464F
:101DD0000BF0C0FF0021204609F0AEFF0020686034
:101DE00005F11000044608F0E7FF204608F0FDFF6B
:101DF000284605F0DDFD1FE0384604F005FE0146EB
:101E0000484608F0F5FF28B9636A1BB10022114665
:101E1000204698472846BDE8F0870FE0384604F092
:101E2000F3FD0146484608F0E3FF28B9636A1BB199
:101E300000221146204698474046ECE7636A1BB1F2
:101E400000221146204698470020E4E72E2E2F4D11
:101E50006964646C6577617265732F546869726434
:101E60005F50617274792F4C7749502F7372632FD2
:101E70006170692F6170695F6D73672E6300000088
:101E8000657870656374206E6577706362203D3D90
:101E9000204E554C4C206F7220657272203D3D20C3
:101EA0004552525F4F4B0000417373657274696F06
:101EB0006E2022257322206661696C65642061743E
:101EC000206C696E6520256420696E2025730A00E8
:101ED00058B1026A002A0FD05379082B0CD1096837
:101EE000D269914208D100F0C3BA04A340F28B3208
:101EF00010A114A0FFF724BE704700002E2E2F4D16
:101F00006964646C6577617265732F546869726483
:101F10005F50617274792F4C7749502F7372632F21
:101F2000636F72652F697076342F646863702E63F7
:101F3000000000006E6574696620213D204E554CFE
:101F40004C000000417373657274696F6E20222526
:101F50007322206661696C6564206174206C696E0F
:101F60006520256420696E2025730A002DE9FC4157
:101F700005001AD02C6AECB100236382A16A4FF0ED
:101F80003C07B1F1FF3F4FF480364FF001024FF6AE
:101F9000FF7019D01E31B1FBF7F1B14200D30146F9
:101FA0000904090CA1820ED00EE02DA340F21542C7
:101FB00039A103E02AA340F217423EA143A0FFF754
:101FC000BFFDBDE8FC81A282E16AB1F1FF3F0CD008
:101FD0001E31B1FBF7F1B14200D301460904090CEF
:101FE000618100D162816189E181216BB1F1FF3FA3
:101FF0000CD01E31B1FBF7F1B14200D30146090408
:10200000090CA18100D1A281A18921826289A189C3
:102010008A4201D301B16381E17909B1206A08E004
:10202000217F7F2901D8FF2003E0C02901D36FF071
:102030007F400090606A019028B9E06900990840EB
:1020400040F0807001900A21204601F02DFA01AB8A
:102050006A4604F11C01284606F042FBB1E7000085
:102060002E2E2F4D6964646C6577617265732F54F1
:10207000686972645F50617274792F4C7749502F90
:102080007372632F636F72652F697076342F646883
:1020900063702E6300000000646863705F62696EA5
:1020A000643A206E6574696620213D204E554C4C83
:1020B00000000000646863705F62696E643A2064C7
:1020C00068637020213D204E554C4C004173736570
:1020D0007274696F6E2022257322206661696C65B7
:1020E00064206174206C696E6520256420696E200F
:1020F00025730A0070B5046A05460821204601F0E0
:10210000D3F9002204F11C01284601F085FFA079D3
:10211000FF2801D2401CA0714FF4FA7140F2E73061
:10212000B0FBF1F0208170BD70B5294804684CE027
:10213000206AA0B3417991B3818A69B1418A491C6F
:1021400089B24182828A914206D1204600F0E2FFA4
:10215000204601F0B1F937E0018A19B14A1E028226
:10216000012906D0C189D1B14A1EC281012917D0E7
:102170002AE0256A20466979012905D00A2903D079
:10218000052901D004291FD100F048FEA88A698AD8
:10219000401A022818DB00EBD0704008288213E0B8
:1021A000256A20466979012903D00A2901D0052929
:1021B0000AD101F00DF8A889698A401A022803DBC8
:1021C00000EBD0704008E8812468002CB0D170BDCD
:1021D000680A00202DE9F047994616460D4607008B
:1021E0001BD0002D1ED04FF49A744FF4207221465C
:1021F000362006F0F1FEB0F100081BD0B8F80A0056
:10220000A246504506D232A340F271723EA14EA0C2
:10221000FFF796FC032E12D10EE02DA340F2697257
:1022200053A103E02AA340F26A7259A146A0FFF726
:1022300087FC0020BDE8F0876879032808D1A879D9
:102240005B4C08B1606802E0FEF74CF86060286003
:10225000D8F8044051462046FEF77DF80120207052
:10226000607097F82C00A070286803F0E5FD6060AE
:10227000082E0AD0042E08D0072E06D0032E06D131
:102280006879052801D0042801D17868E060002031
:1022900039182218401C91F8261080B211770628B0
:1022A000F6D34448C4F8EC0004F1F00101233522D0
:1022B0000C46002000F060FA3246214600F0A8FAF1
:1022C000B9F1000F01D0A9F800004046B2E70000C4
:1022D0002E2E2F4D6964646C6577617265732F547F
:1022E000686972645F50617274792F4C7749502F1E
:1022F0007372632F636F72652F697076342F646811
:1023000063702E6300000000646863705F63726531
:102310006174655F6D73673A20636865636B2074F1
:1023200068617420666972737420706275662063D8
:10233000616E20686F6C64207374727563742064BE
:102340006863705F6D736700417373657274696F62
:102350006E2022257322206661696C656420617499
:10236000206C696E6520256420696E2025730A0043
:10237000646863705F6372656174655F6D73673A0B
:10238000206E6574696620213D204E554C4C00003E
:10239000646863705F6372656174655F6D73673AEB
:1023A000206468637020213D204E554C4C00000095
:1023B000CC0A00206382536310B50B4C20780028B0
:1023C00005D10AA3FF2217A11FA0FFF7B9FB2078B0
:1023D000401E10F0FF00207004D1A0680FF0D6F965
:1023E0000020A06010BD0000CC0A00202E2E2F4D32
:1023F0006964646C6577617265732F54686972648F
:102400005F50617274792F4C7749502F7372632F2C
:10241000636F72652F697076342F646863702E6302
:1024200000000000646863705F7063625F726566DD
:10243000636F756E7428293A20726566636F756ED6
:1024400074206572726F7200417373657274696F84
:102450006E2022257322206661696C656420617498
:10246000206C696E6520256420696E2025730A0042
:10247000FEB5046A06460C21204601F015F802ABB1
:10248000042221463046FFF7A5FE050028D06968E2
:102490000423F03132220F46BDF8080000F06CF939
:1024A000ADF80800E06903F0C7FC02463946BDF804
:1024B000080000F00BFAADF808002A46394600F093
:1024C000D5FA0F484323CDE900600F480D4A29464D
:1024D00080680FF053FA0646284607F093F901E0AA
:1024E0004FF0FF36A079FF2801D2401CA07142F6C0
:1024F00003104FF4FA71B0FBF1F020813046FEBDBD
:102500002431010828310108CC0A00202DE9FE4FB2
:10251000046A07464FF0000906212046C4F81C90C3
:1025200000F0C2FF02AB012221463846FFF752FEFF
:1025300006003BD071680223F0318A4639225546A5
:10254000BDF8080000F018F9ADF80800BA8C29466B
:1025500000F028FAADF8080003233722294600F0DE
:102560000BF9DFF88480ADF808000025514618F813
:102570000520BDF8080000F04BF96D1CEDB2ADF878
:102580000800032DF2D33246514680B200F06EFAB5
:1025900016484323CDE900701348154A401E3146C2
:1025A00080680FF0EBF9304607F02CF9A079FF288E
:1025B00001D2401CA071C1B2062902D2012088407C
:1025C00000E03C2000EB4001C1EBC0104FF6FF7172
:1025D00001EAC0004FF4FA7100F2F310B0FBF1F021
:1025E00020814846BDE8FE8FCD0A00202431010835
:1025F0002831010870B50B48002504680EE0206AF8
:1026000058B10189012903D9A1F10101018104E037
:1026100003D10581204600F0F1FF2468002CEED1A3
:1026200070BD0000680A002070B5046A0020154DD6
:1026300020626062EA78144E0AB1F268A2622A79D6
:102640000AB1326901E0A26A5208E2626A790AB10B
:10265000726903E0A26AC2EBC202D208226309696E
:10266000E161A97921B1B06903F0E6FB20620120A4
:10267000E071E879002803D0F06903F0DDFB6062C7
:1026800070BD0000D80A002098BC002010B5154C81
:10269000207800281ED1A068002805D012A3E522CA
:1026A0001FA129A0FFF74CFA0FF01CF8A060B0B1F1
:1026B000417A442241F0200141722D490EF058FD2B
:1026C00043222B49A0680EF0EDFD00222949A068A5
:1026D0000FF018F82078401C2070002010BD4FF03B
:1026E000FF3010BDCC0A00202E2E2F4D6964646C83
:1026F0006577617265732F54686972645F506172A7
:1027000074792F4C7749502F7372632F636F726502
:102710002F697076342F646863702E6300000000A8
:10272000646863705F696E635F7063625F72656641
:10273000636F756E7428293A206D656D6F7279200C
:102740006C65616B00000000417373657274696FA2
:102750006E2022257322206661696C656420617495
:10276000206C696E6520256420696E2025730A003F
:1027700024310108F52F00082DE9F0411D460446DB
:102780002844801C17460E46442806D907A340F269
:102790009A52144914A0FFF7D3F93755641CA0B21C
:1027A0003554401C80B2BDE8F08100002E2E2F4D24
:1027B0006964646C6577617265732F5468697264CB
:1027C0005F50617274792F4C7749502F7372632F69
:1027D000636F72652F697076342F646863702E633F
:1027E0000000000008320108417373657274696F5C
:1027F0006E2022257322206661696C6564206174F5
:10280000206C696E6520256420696E2025730A009E
:1028100070B515460E460446442806D305A340F27B
:10282000A65212A11FA0FFF78BF93555641CA0B268
:1028300070BD00002E2E2F4D6964646C6577617247
:1028400065732F54686972645F50617274792F4C9C
:102850007749502F7372632F636F72652F6970769B
:10286000342F646863702E63000000006468637036
:102870005F6F7074696F6E5F627974653A206F7014
:1028800074696F6E735F6F75745F6C656E203C204A
:10289000444843505F4F5054494F4E535F4C454E50
:1028A00000000000417373657274696F6E20222509
:1028B0007322206661696C6564206174206C696EA6
:1028C0006520256420696E2025730A0070B50546D1
:1028D000001D14460E46442806D90BA340F2B752F9
:1028E00017A126A0FFF72CF9200E70556D1CA8B279
:1028F000210C3154401C80B2210A3154401C80B25A
:102900003454401C80B270BD2E2E2F4D6964646C0F
:102910006577617265732F54686972645F50617284
:1029200074792F4C7749502F7372632F636F7265E0
:102930002F697076342F646863702E630000000086
:10294000646863705F6F7074696F6E5F6C6F6E67E1
:102950003A206F7074696F6E735F6F75745F6C652A
:102960006E202B2034203C3D20444843505F4F5084
:1029700054494F4E535F4C454E0000004173736500
:102980007274696F6E2022257322206661696C65FE
:1029900064206174206C696E6520256420696E2056
:1029A00025730A0070B50446801C15460E4644285F
:1029B00006D907A340F2AE5213A122A0FFF7C0F838
:1029C000280A3055641CA0B23554401C80B270BD3A
:1029D0002E2E2F4D6964646C6577617265732F5478
:1029E000686972645F50617274792F4C7749502F17
:1029F0007372632F636F72652F697076342F64680A
:102A000063702E6300000000646863705F6F707411
:102A1000696F6E5F73686F72743A206F7074696F5C
:102A20006E735F6F75745F6C656E202B2032203C77
:102A30003D20444843505F4F5054494F4E535F4CE4
:102A4000454E0000417373657274696F6E202225D4
:102A50007322206661696C6564206174206C696E04
:102A60006520256420696E2025730A00FF230B541E
:102A7000401C80B2002302E00B54401C80B244286A
:102A8000FAD3F03081B2104606F0A0BF2DE9F04F26
:102A900085B08246A14900200490C8600861BAF858
:102AA0000A002C2817D3BAF808004FF0F00901F1FA
:102AB0000C07564607E000BFA9EB0201801A3668F2
:102AC0001FFA81F980B236B1728949464A45F3D975
:102AD0000C460290F0E06FF0010005B0BDE8F08F09
:102AE000A11C89B24FF0FF350191A142F3D3718946
:102AF000621C914203D903992144497803E031686B
:102B000009B1496809783428884634D007DC98B17F
:102B1000012814D003281AD0332808D122E0352800
:102B200050D0362857D03A285DD03B2863D04FF09C
:102B30000008002867D02DE000218846F9E7042925
:102B400003D077A340F22E6211E00625F1E74FF0A3
:102B50000408042904D272A340F233627EA1B2E0D9
:102B60000725E6E7042904D06DA340F241627FA166
:102B7000A9E00325DDE7012903D069A340F24F62F4
:102B800025E0B9F1F00F04D065A340F251627AA1BB
:102B900099E000256018801CB0F5803F9BD284B27C
:102BA000B8F1000F7AD000200090082D06D35CA366
:102BB0004FF4CF6276A17BA0FEF7C2FF785D0028BC
:102BC00023D06BE0012904D055A340F255627FA1C8
:102BD00079E00125ADE7042903D051A340F2596201
:102BE000C5E70225A5E7042903D04DA340F25D62A5
:102BF000BDE704259DE7042903D049A340F26162A3
:102C0000B5E7052595E794B248E04046B8F1040FD2
:102C100000D304208346024669463046019B06F0F5
:102C200065FD58457FF457AFB8F1040F1ED95FEA30
:102C3000887004D03AA340F2816267A143E001208A
:102C40007855009803F0F8F80146694840F82510D7
:102C5000A8F1040000F0FF0801980199001D80B25E
:102C60008842FFF438AF6D1C01909EE7B8F1040F65
:102C700007D0B8F1010F08D029A34FF4D2625DA1AB
:102C800021E0009803F0D8F801E09DF800000090E2
:102C9000012078555648009940F825107089A042C7
:102CA00017D8211A8CB20299081A80B20290844275
:102CB000BFF411AF366816B1706803900AE018A32C
:102CC00040F29D6250A137A0FEF73AFF6FF0050079
:102CD00003E73EB10298844204D20398005DFF28C6
:102CE0007FF4FEAE387848B1414800210068397061
:102CF00001280ED0022804D0032808D00498002808
:102D0000E6D0002004904FF02C096C20D1E6012081
:102D100004904FF06C09EC20CBE60000CC0A0020B8
:102D20002E2E2F4D6964646C6577617265732F5424
:102D3000686972645F50617274792F4C7749502FC3
:102D40007372632F636F72652F697076342F6468B6
:102D500063702E63000000006C656E203E3D2064B1
:102D600065636F64655F6C656E0000006C656E2066
:102D70003D3D2034000000006F7665726C6F616429
:102D800020696E2066696C652F736E616D65000049
:102D9000636865636B206465636F64655F6964780D
:102DA00000000000417373657274696F6E20222504
:102DB0007322206661696C6564206174206C696EA1
:102DC0006520256420696E2025730A006C656E20DD
:102DD0003D3D2031000000006465636F64655F6CF9
:102DE000656E2025252034203D3D20300000000068
:102DF00098BC0020696E76616C6964206465636FBD
:102E000064655F6C656E00006E6578742070627535
:102E10006620776173206E756C6C00002DE9FC47AD
:102E2000046A07460421204600F03EFB01AB032262
:102E300021463846FFF7CEF906003BD071680223E1
:102E4000F031894639224D46BDF80400FFF794FC65
:102E5000ADF80400BA8C2946FFF7A4FDADF80400D4
:102E6000032337222946FFF787FCDFF88080ADF87F
:102E700004000025494618F80520BDF80400FFF7B6
:102E8000C7FC6D1CEDB2ADF80400032DF2D3324641
:102E9000494680B2FFF7EAFD14480097401E4323DD
:102EA000134A314680680EF0C9FC0546304606F0EC
:102EB000A9FC01E04FF0FF35A079FF2801D2401CAA
:102EC000A071C0B20A2804D24FF47A7110FB01F04D
:102ED00001E042F2107080B24FF4FA7100F2F31088
:102EE000B0FBF1F020812846BDE8FC87CD0A002028
:102EF000283101082DE9FC47046A074603212046D2
:102F000000F0D2FA01AB032221463846FFF762F9FE
:102F100006004FD071680223F031894639224D46B0
:102F2000BDF80400FFF728FCADF804004FF4107260
:102F30002946FFF737FDADF8040004233222294665
:102F4000FFF71AFCADF80400E06902F075FF0246D5
:102F50002946BDF80400FFF7B9FCADF804000323CF
:102F600037222946FFF708FCDFF88080ADF804001F
:102F7000002500BF18F805204946BDF80400FFF7FA
:102F800047FC6D1CEDB2ADF80400032DF2D33246C0
:102F9000494680B2FFF76AFD14480097401E43235C
:102FA000134A314680680EF049FC0546304606F06B
:102FB00029FC01E04FF0FF35A079FF2801D2401C29
:102FC000A071C0B20A2804D24FF47A7110FB01F04C
:102FD00001E042F2107080B24FF4FA7100F2F31087
:102FE000B0FBF1F020812846BDE8FC87CD0A002027
:102FF000283101082DE9F0414248516816464468DD
:10300000256A002D79D02879002876D070892C285F
:1030100073D30878022870D1002094F82C2008E09F
:1030200023180F1893F826303F7FBB4265D1401C10
:10303000C0B2824201D90628F2D3486802F0FCFEF1
:103040002968884259D129463046FFF71FFD08BB41
:103050002D494878F0B12D4A77681079052804D0B9
:10306000062821D0022836D047E06879012806D00A
:10307000032814D0042812D0052810D03DE039468A
:103080002046FFF7D1FA94F82D00000703D520461B
:10309000FFF730F831E02046FEF768FF2DE03946B3
:1030A0002046FFF7C1FAF6E76879032805D0012822
:1030B00003D0042801D005281FD10C21206A00F07C
:1030C000F3F9134B20461A46114605F009FB20463A
:1030D000FFF71CFA11E0687906280ED12546246A0C
:1030E000887850B100202081906802F0A5FEA06190
:1030F0003869E061284600F0D7F83046BDE8F04175
:1031000006F080BB70850020D80A002098BC002003
:10311000243101082DE9FE43046A0746002C51D0F2
:10312000607900284ED0A06902900025A561E56174
:10313000256265622563E562A562A58265822582B6
:10314000E581384600F04CFA60B301AB0722214616
:103150003846FFF73FF8060024D071680423F031A9
:1031600036228846BDF80400FFF706FBADF80400E0
:10317000029802F061FE02464146BDF80400FFF7E6
:10318000A5FBADF8040032464146FFF76FFC0E4840
:103190000097432302AA314680680EF04FFB304669
:1031A00006F030FB094B38461A46114605F098FAEE
:1031B0000021204600F078F92079002802D0FFF79E
:1031C000FBF82571BDE8FE83CC0A002024310108FC
:1031D0002DE9FC47046A07460521204600F064F902
:1031E00001AB032221463846FEF7F4FF06003CD02F
:1031F00071680223F031894639224D46BDF804003A
:10320000FFF7BAFAADF80400BA8C2946FFF7CAFBFB
:10321000ADF80400032337222946FFF7ADFADFF8A3
:103220008480ADF804000025494618F80520BDF853
:103230000400FFF7EDFA6D1CEDB2ADF80400032DAC
:10324000F2D33246494680B2FFF710FC154800978A
:10325000401E432304F11802314680680EF0EEFA56
:103260000546304606F0CEFA01E04FF0FF35A07972
:10327000FF2801D2401CA071C0B20A2804D24FF42A
:10328000FA6110FB01F001E044F6206080B24FF4D7
:10329000FA7100F2F310B0FBF1F020812846BDE88E
:1032A000FC870000CD0A00202DE9FE43070073D003
:1032B0003C6A002C7CD00121204600F0F5F802ABDE
:1032C000032221463846FEF785FF06007AD0716852
:1032D0000223F031894639224D46BDF80800FFF738
:1032E0004BFAADF80800BA8C2946FFF75BFBADF846
:1032F0000800042332222946FFF73EFAADF8080001
:10330000E06902F099FD02462946BDF80800FFF782
:10331000DDFAADF80800042336222946FFF72CFA1F
:10332000ADF80800A06902F087FD02462946BDF805
:103330000800FFF7CBFAADF808000323372229462F
:10334000FFF71AFADFF8BC80ADF80800002500BFCF
:1033500018F805204946BDF80800FFF759FA6D1C1A
:10336000EDB2ADF80800032DF2D33246494680B2E3
:10337000FFF77CFB24484323CDE900702148234A12
:10338000401E314680680EF0F9FA0546304606F0D8
:1033900039FA19E000E00BE01DA340F277122AA1F0
:1033A00030A0FEF7CDFB6FF00F00BDE8FE8309E013
:1033B00017A340F2791235A12AA0FEF7C1FB6FF0E6
:1033C0000500F2E74FF0FF35A079FF2801D2401C3D
:1033D000A071C0B2062802D20121814000E03C2148
:1033E00001EB4100C0EBC1104FF6FF7101EAC000D4
:1033F0004FF4FA7100F2F310B0FBF1F0208128468F
:10340000D3E70000CD0A002024310108283101084B
:103410002E2E2F4D6964646C6577617265732F542D
:10342000686972645F50617274792F4C7749502FCC
:103430007372632F636F72652F697076342F6468BF
:1034400063702E6300000000646863705F73656CD6
:103450006563743A206E6574696620213D204E557F
:103460004C4C0000417373657274696F6E202225A5
:103470007322206661696C6564206174206C696EDA
:103480006520256420696E2025730A0064686370D6
:103490005F73656C6563743A206468637020213DD6
:1034A000204E554C4C00000042798A4203D04171B5
:1034B000002181710181704770B505006FF00F0424
:1034C0001AD095F82D00C0071BD0A88C2C6A4FF09D
:1034D000FF36B0F5107F0DD3002C1BD0207908B13A
:1034E000FEF76AFF34212046FCF735FFFFF7CEF8E0
:1034F000002816D0304670BD14A340F2E72221A167
:1035000003E012A34FF43A7222A12BA0FEF718FB9E
:10351000204670BD342003F087FC0400EAD02C6202
:10352000E0E70120207195F82D00400705D4022125
:103530002046FFF7B9FF002070BD2846FEF7E6FFE2
:103540000028F9D02846FFF7E5FDD3E72E2E2F4DB2
:103550006964646C6577617265732F54686972641D
:103560005F50617274792F4C7749502F7372632FBB
:10357000636F72652F697076342F646863702E6391
:10358000000000006E6574696620213D204E554C98
:103590004C0000006E65746966206973206E6F745C
:1035A0002075702C206F6C64207374796C652070AA
:1035B0006F72743F00000000417373657274696F2D
:1035C0006E2022257322206661696C656420617417
:1035D000206C696E6520256420696E2025730A00C1
:1035E00040B1006A30B140790A2805D0052803D0DF
:1035F000042801D0002070470120704710B5026AEE
:10360000044651790C290BD0062909D001290BD089
:10361000082918D0032926D19079022820461ED3E4
:10362000BDE81040FEF772BF90790528204603D808
:10363000BDE81040FFF738BEFFF76CFD2046BDE83F
:103640001040FFF739BF90790128204603D8BDE824
:103650001040FEF74FBDBDE81040FEF787BCBDE847
:103660001040FFF747BC10BD70B505460C468807F3
:1036700006D009A34FF4B67213A11BA0FEF760FA9F
:1036800007F040FBA96809682160A9680C60BDE8E3
:10369000704007F05FBB00002E2E2F4D6964646CF4
:1036A0006577617265732F54686972645F506172E7
:1036B00074792F4C7749502F7372632F636F726543
:1036C0002F6D656D702E63006D656D705F66726540
:1036D000653A206D656D2070726F7065726C79202F
:1036E000616C69676E656400417373657274696FBC
:1036F0006E2022257322206661696C6564206174E6
:10370000206C696E6520256420696E2025730A008F
:1037100070B5044607F0F6FA0546A0680468002C68
:103720000FD021680160A00706D008A34FF48C7267
:1037300012A11BA0FEF704FA284607F00BFB204657
:1037400070BD284607F006FB002070BD2E2E2F4DC1
:103750006964646C6577617265732F54686972641B
:103760005F50617274792F4C7749502F7372632FB9
:10377000636F72652F6D656D702E63006D656D7082
:103780005F6D616C6C6F633A206D656D7020707257
:103790006F7065726C7920616C69676E656400009A
:1037A000417373657274696F6E20222573222066DF
:1037B00061696C6564206174206C696E65202564A4
:1037C00020696E2025730A002DE9F0470F4604009A
:1037D00006D13FA34FF4DC724AA14EA0FEF7B0F928
:1037E00007F090FA002666602772217F41F0010100
:1037F00021776578667007F0ADFA636A7BB10022C5
:10380000042120469847636A4BB1002211462046A6
:103810009847636A1BB10022022120469847384628
:1038200003F0F2F8804604F11000814607F0ECFA4C
:1038300018B14146484607F0DBFA04F1140081460E
:1038400007F0E2FA18B14146484607F0D1FA012DD7
:103850000FD0042D0DD0032D0BD0206A002834D0BA
:10386000BDE8F0471AA340F2F71234A129A0FEF7F1
:1038700067B9217FC1F3800001F0FB0121770028A7
:1038800023D1206A30B912A34FF4F37232A121A0E0
:10389000FEF756F9206A042D08D00771206A0568E2
:1038A0000C35284607F0E8FA10B108E00671F5E794
:1038B00007A340F2EF122FA116A0FEF741F9284608
:1038C0002662BDE8F04707F0D4BABDE8F0870000F3
:1038D0002E2E2F4D6964646C6577617265732F5469
:1038E000686972645F50617274792F4C7749502F08
:1038F0007372632F6170692F6170695F6D73672EDA
:1039000063000000636F6E6E20213D204E554C4CCD
:1039100000000000417373657274696F6E20222588
:103920007322206661696C6564206174206C696E25
:103930006520256420696E2025730A00636F6E6E12
:103940002D3E63757272656E745F6D7367203D3DC9
:10395000204E554C4C000000636F6E6E2D3E63751B
:103960007272656E745F6D736720213D204E554CF9
:103970004C000000696E61766C6964206F705F6353
:103980006F6D706C657465645F73656D0000000039
:1039900070B5094D0646002404EB440005EBC00059
:1039A000017D29B18068B04202D1204600F036F98D
:1039B000641C0A2CF0DB70BDB8BC00202DE9F74F69
:1039C00084B04FF00A0B00240646DA465F46D9461B
:1039D00002940194CDF80040514904EB440001EBFE
:1039E000C008039098F814500A2F1DD0002D2AD03B
:1039F000012D08D0022D06D24AA340F2231257A16E
:103A000066A0FEF79DF89EB13168D8F804008142A7
:103A10000ED1069820B1D8F808100698814207D137
:103A2000204607B0BDE8F08F002DE1D127460AE01F
:103A3000012D16D0022D06D3B8F812000099884245
:103A400001D3A2460090641C24B20A2CC4DB059862
:103A500081074FF0FF30E4D40A2F16D018DA3C4625
:103A60003EE02F49039851F830000028B8F81200C2
:103A700005D002998842E6D3A1460290E3E7019976
:103A80008842E0D3A3460190DDE70599C907C8D075
:103A90005146BAF10A0F0EDA0C46214801EB4401F7
:103AA00050F8310080B11FA340F26D1245A13BA038
:103AB000FEF746F808E05946BBF10A0F03DB49461A
:103AC000B9F10A0FADDA0C460A2C06DB15A340F259
:103AD0007F1242A131A0FEF733F8204600F09EF895
:103AE0000A2C06DB0FA340F283123CA12BA0FEF7A9
:103AF00027F80B4804EB440100EBC105287D30B1E9
:103B000008A34FF4C2723AA124A0FEF719F80EB12F
:103B100030686860002068820698A86080E700002E
:103B2000B8BC00202E2E2F4D6964646C65776172DD
:103B300065732F54686972645F50617274792F4C99
:103B40007749502F7372632F636F72652F69707698
:103B5000342F6574686172702E6300007374617431
:103B600065203D3D204554484152505F53544154D7
:103B7000455F50454E44494E47207C7C207374611C
:103B80007465203E3D204554484152505F53544196
:103B900054455F535441424C4500000041737365E6
:103BA0007274696F6E2022257322206661696C65CC
:103BB00064206174206C696E6520256420696E2024
:103BC00025730A006172705F7461626C655B695D88
:103BD0002E71203D3D204E554C4C000069203C206C
:103BE0004152505F5441424C455F53495A45000091
:103BF0006172705F7461626C655B695D2E73746184
:103C00007465203D3D204554484152505F53544116
:103C100054455F454D5054590000000070B5074CA5
:103C200000EB4005002654F8350018B105F0EAFD18
:103C300044F8356004EBC500067570BDB8BC0020C3
:103C40002DE9F04385B00D00074609D07C684FF49C
:103C500080782088404542D1207906283FD109E06C
:103C600021A340F28A222EA131A0FDF769FF05B001
:103C7000BDE8F0836079042831D1608808282ED10E
:103C8000D4F80E000490A169686820B1814202D185
:103C90000126334601E00026022304F10802914682
:103CA00004A9284600F0ACFBE088404503D0B0F5FD
:103CB000007F14D10FE096B1022204ABCDE90232AD
:103CC000291DCDE9001905F1260319464A46284663
:103CD00000F096FA03E004A92846FEF7F9F8384602
:103CE00005F090FDC3E700002E2E2F4D6964646C33
:103CF0006577617265732F54686972645F50617291
:103D000074792F4C7749502F7372632F636F7265EC
:103D10002F697076342F6574686172702E630000AD
:103D20006E6574696620213D204E554C4C000000A4
:103D3000417373657274696F6E2022257322206649
:103D400061696C6564206174206C696E652025640E
:103D500020696E2025730A00FEB515460E46040044
:103D600006D143A340F21E324FA153A0FDF7E8FE57
:103D700036B93FA340F21F3259A14FA0FDF7E0FE34
:103D800035B93BA34FF4487258A14BA0FDF7D8FEBC
:103D90002146286800F042FF08B1584B3FE02868F0
:103DA000C0F303110E2925D0A168636800EA01025F
:103DB0000B409A4208D080B2A0F57E41A93903D0C9
:103DC000E068B0B304F10C054D4B4E481A7802EB95
:103DD000420100EBC1010F7D022F2ED38F68A74255
:103DE0002BD12F6849688F4227D13146204600F0F9
:103DF0008BF8FEBD01208DF8040000208DF8050031
:103E00005E208DF80600687801AB00F07F008DF829
:103E10000700A8788DF80800E8788DF809004FF4BD
:103E20000060009004F126023146204600F0C8FBF5
:103E3000FEBDFFE76FF00300FAE7002202EB42014C
:103E400000EBC1010F7D022F08D38F68A74205D177
:103E50002F6849688F4201D11A70C6E7521CD2B24E
:103E60000A2AEBD332462946204600F0D5F8DFE790
:103E70002E2E2F4D6964646C6577617265732F54C3
:103E8000686972645F50617274792F4C7749502F62
:103E90007372632F636F72652F697076342F657448
:103EA000686172702E6300006E6574696620213D42
:103EB000204E554C4C000000417373657274696F5D
:103EC0006E2022257322206661696C65642061740E
:103ED000206C696E6520256420696E2025730A00B8
:103EE0007120213D204E554C4C00000069706164EA
:103EF000647220213D204E554C4C0000C82F010813
:103F0000E00A0020B8BC00202DE9F843064615461B
:103F100088461C4802EB450100EBC104207D0228C5
:103F200006D219A340F2EE2225A131A0FDF708FE2A
:103F3000144A05EB4501207D02EBC1050C35022832
:103F400013D1608A0327B0F58E7F04D9211D304636
:103F500000F010FA07E0B0F5877F06D32A46211D4E
:103F6000304600F00DFA00B927754FF4006000905C
:103F70002B4606F126024146304600F021FBBDE803
:103F8000F8830000B8BC00202E2E2F4D6964646CAD
:103F90006577617265732F54686972645F506172EE
:103FA00074792F4C7749502F7372632F636F72654A
:103FB0002F697076342F6574686172702E6300000B
:103FC0006172705F7461626C655B6172705F69647D
:103FD000785D2E7374617465203E3D2045544841E0
:103FE00052505F53544154455F535441424C450035
:103FF000417373657274696F6E2022257322206687
:1040000061696C6564206174206C696E652025644B
:1040100020696E2025730A002DE9FC5F8246263058
:1040200001900E46086814464FF0FF374FF0000B22
:10403000514600F0F3FD80B93068C0F303110E293A
:104040000BD056B148B1524601213046FFF7B6FCBD
:10405000050005D540B2BDE8FC9F6FF00F00FAE700
:104060007F2D06D337A340F2C13244A147A0FDF70C
:1040700067FD05F0FF094F4909EB490801EBC80549
:10408000287D00280ED0012808D0022806D22DA3B2
:1040900040F2CD3248A13DA0FDF752FDBBF1000F2B
:1040A00006D104E001202875C5F808A000E034B965
:1040B0003146504600F05EF90746002CCBD0287DF3
:1040C0003C4E02280ED346494FF4006005F10C0324
:1040D00081F80090009021465046019A00F070FA55
:1040E00007462DE001282BD1254640F2F13768899B
:1040F0002989884207D1286828B112A33A4639A1F4
:1041000022A0FDF71DFD287B400607D522464FF46F
:1041100020710E2005F0ACF9044605E02D68002D55
:10412000E5D1204605F0ECFC44B156F8380008B162
:1041300005F068FB46F83840002701E04FF0FF37F4
:10414000384688E72E2E2F4D6964646C657761725E
:1041500065732F54686972645F50617274792F4C73
:104160007749502F7372632F636F72652F69707672
:10417000342F6574686172702E6300007479706505
:10418000206F766572666C6F77000000417373650F
:104190007274696F6E2022257322206661696C65D6
:1041A00064206174206C696E6520256420696E202E
:1041B00025730A00B8BC00206172705F7461626C84
:1041C000655B695D2E7374617465203D3D205045CB
:1041D0004E44494E47206F7220535441424C450093
:1041E000E00A00206E6F207061636B65742071754A
:1041F0006575657320616C6C6F77656421000000E4
:104200002DE9FF4F81B09846DDE90FA9DDF838B000
:1042100006004FF0000706D12CA340F2574239A107
:104220003CA0FDF78DFC4FF420721C210E2004F001
:10423000D3FE050046D068891C2806D223A340F28D
:1042400062423EA133A0FDF77BFC6C68119801F03F
:10425000F5FDE08096F82C00062806D01BA340F25E
:10426000694243492BA0FDF76BFCD8F80010A16010
:10427000B8F80400A081DAF80010C4F81210BAF8F7
:104280000400E082DBF80000C4F80E00D9F800005A
:10429000A0614FF48070208008206080062020718B
:1042A0000420607140F60600DDE9022300902946F3
:1042B000304600F085F9284605F0A4FA384605B0E6
:1042C000BDE8F08F4FF0FF30F9E700002E2E2F4DA4
:1042D0006964646C6577617265732F546869726490
:1042E0005F50617274792F4C7749502F7372632F2E
:1042F000636F72652F697076342F657468617270B0
:104300002E6300006E6574696620213D204E554C79
:104310004C000000417373657274696F6E20222532
:104320007322206661696C6564206174206C696E1B
:104330006520256420696E2025730A006368656323
:104340006B20746861742066697273742070627582
:10435000662063616E20686F6C642073747275638D
:1043600074206574686172705F6864720000000098
:104370004C320108014A00F003B80000C82F0108C0
:104380007FB5064D031D0124CDE90035CDE90214AA
:1043900022331946FFF734FF04B070BDCE2F010859
:1043A00070B5164D002400BF04EB440005EBC002BD
:1043B000117DF1B1508A401C80B25082B0F5967FD9
:1043C0000AD2012906D003290AD004290AD00129DA
:1043D0000BD00EE0052808D32046FFF71FFC08E0AD
:1043E000042000E00220107503E0111D9068FFF723
:1043F000C1FF641C0A2CD7DB70BD0000B8BC0020D4
:10440000F8B5044690F82C001F4616460D460628BF
:1044100006D020A340F2A9122CA135A0FDF790FBF5
:104420009DB1286888B1214600F0F8FB68B928786A
:10443000C0F303100E2808D0224639462846FFF75D
:10444000BDFA002804DA40B2F8BD6FF00F00F8BDE5
:1044500000EB40013048022300EBC1021375946069
:104460003368D360B38813820023538250F83150ED
:1044700075B140F831304FF400600090334604F1DC
:1044800026022946204600F09BF8284605F0BAF996
:104490000020F8BD2E2E2F4D6964646C6577617223
:1044A00065732F54686972645F50617274792F4C20
:1044B0007749502F7372632F636F72652F6970761F
:1044C000342F6574686172702E6300006E657469C4
:1044D000662D3E6877616464725F6C656E203D3D59
:1044E000204554485F4857414444525F4C454E0074
:1044F000417373657274696F6E2022257322206682
:1045000061696C6564206174206C696E6520256446
:1045100020696E2025730A00B8BC00202DE9F04107
:10452000044640890E270D460E283CD9E07B18B979
:1045300095F83000401CE073606801788689CA07EE
:1045400014D0012905D006221C49FBF70FFF48B102
:104550000CE0417851B980785E2807D1607B40F04B
:10456000100002E0607B40F008006073082E03D06A
:10457000B6F5C16F17D10DE095F82D00000712D5E3
:104580003946204605F00AFB68B92946204600F066
:104590008DFC10E095F82D00000704D53946204623
:1045A00005F0FCFA18B1204605F02CF903E0294685
:1045B0002046FFF745FB0020BDE8F081C82F010829
:1045C0002DE9F04104461F4690460E46069801F03C
:1045D00035FC05460E21304604F09AFC18B16FF008
:1045E0000100BDE8F0817068858139680160B98893
:1045F0008180D8F80020C0F80620B8F80410418166
:1046000094F82C00062806D006A34FF4997213A143
:104610001FA0FDF795FA31462046A269BDE8F0419A
:10462000104700002E2E2F4D6964646C657761720F
:1046300065732F54686972645F50617274792F4C8E
:104640007749502F7372632F6E657469662F657496
:104650006865726E65742E63000000006E65746993
:10466000662D3E6877616464725F6C656E206D755F
:104670007374206265203620666F722065746865E9
:10468000726E65745F6F7574707574210000000040
:10469000417373657274696F6E20222573222066E0
:1046A00061696C6564206174206C696E65202564A5
:1046B00020696E2025730A0010B5040006D10BA3F3
:1046C0004FF40C720EA112A0FDF73AFA732084F891
:1046D0002E00742084F82F00174860611748A061ED
:1046E000204601F03BFA002010BD00002E2E2F5373
:1046F00072632F65746865726E657469662E6300F7
:104700006E6574696620213D204E554C4C000000BA
:10471000417373657274696F6E202225732220665F
:1047200061696C6564206174206C696E6520256424
:1047300020696E2025730A00593D0008555D000868
:10474000104E04464FF0FF373946306804F0A0FAA7
:104750000028F9D10C4806F05CFB204601F09AFADB
:1047600005000AD022692146904710B1284605F07D
:1047700049F8054806F05EFBECE7034806F05AFBF3
:10478000E2E70000100000201C0A002038B50446B3
:104790008DF8000069460320ABBE204638BD0000FE
:1047A00008B5032000904FF480630022024903A063
:1047B00006F067FB08BD0000C54700084854545088
:1047C0000000000038B500221146102003F0FAF96D
:1047D000040016D05022002102F0C6FF002810D19C
:1047E000FF21204603F09AF96946204602F092FE26
:1047F0000028F9D1009800F005F8009803F06CF853
:10480000F2E738BD7FB5044602A903F0A7FA0028F5
:1048100050D1204603F0BDF800284BD103AA01A9CE
:10482000029802F0E7FDBDF80C00052842D30522EE
:1048300024A10198FBF7A7FD00283BD10F2223A15B
:104840000198FBF7A0FD40B90020034600902348E3
:10485000011D0268204603F089FC092220A101986D
:10486000FBF791FD214D20B94FF400512846FCF78C
:104870006FFB09221EA10198FBF785FD20B94FF4BB
:1048800080512846FCF764FB09221CA10198FBF724
:104890007AFD20B94FF480412846FCF759FB0922E4
:1048A00019A10198FBF76FFD20B94FF4004128468C
:1048B000FCF74EFB204602F0B3FF029802F018FE10
:1048C0007FBD0000474554202F000000474554207D
:1048D0002F696E6465782E68746D6C00140000207A
:1048E000474554202F6C656433000000000C0240E3
:1048F000474554202F6C6564340000004745542020
:104900002F6C656435000000474554202F6C6564AA
:10491000360000000A46032100F0F4B82DE9FE4FEE
:104920008A4644490446D1F8088098F800000007F8
:10493000850E142D79D36089042876D360680078B9
:10494000002872D0082870D1486901F11407C0F31B
:1049500003120E2A69D08946096800F05FF9002821
:1049600063D12089082860D305F10E010E46204648
:1049700004F0CEFA002830D02089411989B288424B
:1049800053D84FF420720E2004F026FB06004CD0C2
:10499000718905F10800814216D32A4641467068A4
:1049A000FBF7B2FC2946304605F0F8F8002806D09F
:1049B00021A3B6222EA13CA0FDF7C2F804E02146B7
:1049C000304604F0A3FD18B1304604F01BFF2CE084
:1049D000204604F017FF34460CE03146204605F02F
:1049E000DDF8002806D014A3C72239A12EA0FDF7B8
:1049F000A7F81AE029462046666804F089FAA0B9AB
:104A000060683968FF22C160D9F810100161002187
:104A1000317071800272418101228DE806040A46DC
:104A2000FF233946204600F021FB2046BDE8FE4F1B
:104A300004F0E8BE708500202E2E2F4D6964646C52
:104A40006577617265732F54686972645F50617233
:104A500074792F4C7749502F7372632F636F72658F
:104A60002F697076342F69636D702E63000000002B
:104A700069636D705F696E7075743A206D6F7669E9
:104A80006E6720722D3E7061796C6F616420746F67
:104A90002069636D70206865616465722066616974
:104AA0006C65640A00000000417373657274696F7D
:104AB0006E2022257322206661696C656420617412
:104AC000206C696E6520256420696E2025730A00BC
:104AD00069636D705F696E7075743A207265737486
:104AE0006F72696E67206F726967696E616C2070A2
:104AF0002D3E7061796C6F6164206661696C6564DC
:104B00000A0000002DE9FF479146884606464FF40B
:104B100020722421222004F05FFA050031D0688938
:104B2000242806D218A34FF4B47225A12FA0FDF7B4
:104B300007F86C6877681C2284F8008084F801907C
:104B40004FF00008A4F80480A4F806806868716833
:104B50000830FBF7D9FBF868039003A800F096FC37
:104B600060B1A4F802800122CDF80080CDE90120D7
:104B7000FF2303AA0021284600F078FA284604F013
:104B800041FEBDE8FF8700002E2E2F4D6964646C46
:104B90006577617265732F54686972645F506172E2
:104BA00074792F4C7749502F7372632F636F72653E
:104BB0002F697076342F69636D702E6300000000DA
:104BC000636865636B2074686174206669727374CE
:104BD00020706275662063616E20686F6C64206966
:104BE000636D70206D6573736167650041737365F4
:104BF0007274696F6E2022257322206661696C656C
:104C000064206174206C696E6520256420696E20C3
:104C100025730A000A460B21FFF774BF421C12D00D
:104C200088B191F82D2092070BD54B68834208D0AC
:104C3000896800EA01020B409A4202D10143491CF3
:104C400001D0002070470120704700002DE9F74F88
:104C500088B00446099800251426808CAF1F1438AC
:104C6000C11700EB5170C0F3CF000390606806904D
:104C7000017801F00F01052903D038460BB0BDE8DB
:104C8000F08F6189142907D25BA34FF43F7269A1A9
:104C90006FA0FCF755FFF0E7C08801F0CFF8C0F334
:104CA0000C0100F4005002910790208914381FFA7B
:104CB00080F88EE003984FF6FF7101EAC00041468C
:104CC000404500D9084604904FF4207214210E206C
:104CD00004F082F95FEA000A7ED0BAF80A001428CC
:104CE00006D245A34FF4497263A159A0FCF728FFEF
:104CF0001422DAF804000699FBF706FBDAF8040040
:104D00000590049F35E06089811B8DB2B04206D2C8
:104D100039A340F22D3260A14DA0FCF711FFAF4244
:104D200000D23D461DB3052002F012FB5FEA0009E8
:104D300057D060684B463044CDE9000541222946F2
:104D4000002004F0CFFA5FEA000B50D0204604F0B8
:104D5000D7FE5549C9E904145946504604F0DEFA15
:104D6000781B07043F0C06D000262468CBE7246894
:104D70000026002FC7D1701986B20998808C14388C
:104D800040450298C0F30C0001DB079909B140F4DB
:104D9000005001F053F80599C8800498143080B28F
:104DA00001F04CF805994880059800214181099847
:104DB00051460A9A43699847504604F023FD0499E6
:104DC000A8EB01001FFA80F8DDE90201084480B277
:104DD0000290B8F1000F00E006E07FF46BAF002016
:104DE0004CE7504604F00EFD4FF0FF3046E74846D2
:104DF00000F07CFBF5E700002E2E2F4D6964646CFB
:104E00006577617265732F54686972645F5061726F
:104E100074792F4C7749502F7372632F636F7265CB
:104E20002F697076342F6970345F667261672E6304
:104E3000000000006970345F6672616728293A20BB
:104E40007062756620746F6F2073686F72740000F3
:104E5000417373657274696F6E2022257322206618
:104E600061696C6564206174206C696E65202564DD
:104E700020696E2025730A0074686973206E656569
:104E800064732061207062756620696E206F6E65A4
:104E90002070696563652100702D3E6C656E203E53
:104EA0003D20706F66660000C55A00082DE9F04786
:104EB000456807460E4628780421B1EB101F03D041
:104EC000384604F09FFC86E000074FEA9068688847
:104ED00000F0B4FF04463889A04203D92146384681
:104EE00004F074FD79894145EAD33889A042E7D3BB
:104EF000B8F1140FE4D32969DFF83C91C1F3031032
:104F00000E28C9F81410EA68C9F8102005D03046F8
:104F100000F096F850B1344616E096F82D00C00720
:104F200002D070680028F6D1002412E099F814002D
:104F300000247F280DD04148046808E0B44205D021
:104F4000204600F07DF808B11CB10BE02468002C6D
:104F5000F4D1687A112805D105EB08004088B0F536
:104F6000884F36D0D9F810205AB131461046FFF795
:104F700055FE0028A4D199F81000C0F303100E28A4
:104F80009ED0002C9CD0E88830F0C00005D0384678
:104F900000F038F907001ED07D68C9F80850C9E94B
:104FA0000046297838460907890EA9F80C104146B1
:104FB00004F0F4FD687A01281AD0062813D01128CD
:104FC0000CD04D462146D9F81400FFF727FEA0B1BA
:104FD00020E03446D5E70020BDE8F087314638466A
:104FE0000CF0ECF919E03146384607F03DF814E0D2
:104FF00031463846FFF792FC0FE0287DC0F30310DE
:105000000E2807D04146384604F0C8FC0221384635
:10501000FFF780FC384604F0F5FB0021C9F80010CA
:10502000C9F80410C9F80810A9F80C10C9F8101034
:10503000C9F81410CFE7000070850020680A00202E
:1050400010B590F82D10C9070CD0416851B1064A2F
:1050500052698A4204D001461046FFF7DFFD08B1CD
:10506000012010BD002010BD70850020FEB5DDE9D7
:105070000954089E1AB109B10F6807B9211D00969D
:10508000CDE9015400F002F8FEBD00002DE9F84F13
:105090000546DDE90BA8807BDDF828B01F461646E3
:1050A0008946012806D02FA34FF455723AA13DA09E
:1050B000FCF746FD6FF00104002E35D01421284680
:1050C00003F026FF002832D168896C68142806D2C4
:1050D00024A34FF462723DA132A0FCF731FD277288
:1050E00084F809A0306820614520207084F801B060
:1050F000288900F0A3FE414F60804FF0000AA4F819
:1051000006A0388800F09AFEA0803888401C3880BD
:10511000B9F1000F05D0D9F80000E060A4F80AA0AA
:105120000CE037480068F8E76889142802D2204666
:10513000BDE8F88F68686E4600690090B8F82400F2
:1051400040B12989814205D9324641462846FFF7B8
:105150007DFDEDE7D8F814304046324629469847A1
:10516000E6E700002E2E2F4D6964646C657761724E
:1051700065732F54686972645F50617274792F4C43
:105180007749502F7372632F636F72652F69707642
:10519000342F6970342E6300702D3E726566203D99
:1051A0003D203100417373657274696F6E20222552
:1051B0007322206661696C6564206174206C696E7D
:1051C0006520256420696E2025730A006368656385
:1051D0006B207468617420666972737420706275E4
:1051E000662063616E20686F6C64207374727563EF
:1051F000742069705F68647200000000E20A002099
:10520000243101082DE9F05F45688346287800F0D5
:105210000F0005287DD1E88800F010FEC004070CBF
:10522000688800F00BFE29780907890E814270D842
:10523000401A1FFA80F8584604F011F96A4C0646E5
:10524000208830440A2809D93146284600F0E4FB7A
:1052500000285ED0208830440A28E8D8A146646837
:105260004FF0000A0CE06069E968884207D1A06944
:105270002969884203D1A089A988884203D024687B
:10528000002CF0D106E02CB1E88800F0D7FDC00476
:105290001BD025E0042002F05BF804000AD131465F
:1052A000284600F0B9FBB04233DB042002F050F88E
:1052B0000400CED02021FBF74EF80F20E077D9F87C
:1052C00004102160C9F8044004E0E08900F0B6FD54
:1052D000C00405D01422294604F10800FBF714F895
:1052E000A87940F340156D1C08D007EB080080B288
:1052F000B84263D34FF6EB7188425FD82A465946CD
:10530000204600F03BF9411C58D0B9F80020324447
:1053100000E064E0A9F8002035B107EB0801A183A3
:10532000A17F41F00101A177012845D1A08B142272
:10533000143087B2606804F10801456828462E6879
:10534000FAF7E2FF384600F079FD6880A5F806A07C
:10535000A5F80AA0656809E014213046776804F0D2
:105360001DFC3146284603F0D9FF3E68002EF3D1DC
:10537000D9F804104E468C4205D1002105E008689A
:10538000A04202D001460029F9D1204600F01AFAC5
:10539000284604F064F804463088A04206D213A3DD
:1053A00040F29B2220A127A0FCF7CAFB3088001BFB
:1053B00030802846BDE8F09F0020FBE7606870B9A8
:1053C000D9F80400844206D008A340F2AB2227A1FA
:1053D0001CA0FCF7B5FB0021204600F0F3F958466D
:1053E00004F010FAE8E70000E40A00202E2E2F4D0A
:1053F0006964646C6577617265732F54686972645F
:105400005F50617274792F4C7749502F7372632FFC
:10541000636F72652F697076342F6970345F6672BE
:1054200061672E630000000069705F7265617373CD
:105430005F70627566636F756E74203E3D20636CAD
:10544000656E0000417373657274696F6E2022256A
:105450007322206661696C6564206174206C696EDA
:105460006520256420696E2025730A006E6F742004
:105470006669727374616C74686F756768206A75A9
:10548000737420656E7175657565640070B501464D
:10549000144813E090F82D20D3070FD053070DD5F3
:1054A00043685BB184680D68234005EA04069E42A8
:1054B00016D0920702D4C268954211D00068002825
:1054C000E8D10948006850B190F82D20D30706D0E4
:1054D000520704D5426812B109787F2900D1002013
:1054E00070BD0000680A00206C0A002010B504009E
:1054F00006D106A34FF4317213A116A0FCF720FBCE
:105500002146BDE81040052001F0AEBE2E2E2F4DE5
:105510006964646C6577617265732F54686972643D
:105520005F50617274792F4C7749502F7372632FDB
:10553000636F72652F697076342F6970345F66729D
:1055400061672E63000000007020213D204E554C05
:105550004C000000417373657274696F6E202225E0
:105560007322206661696C6564206174206C696EC9
:105570006520256420696E2025730A002DE9F05FFF
:105580004C68064693460F4600254FF00108608898
:1055900000F054FC21784FF0FF3A0907890E814250
:1055A00031D8A0EB0109E08800F048FCC0047C6819
:1055B000010C0020206001EB090083B2A180E38090
:1055C0008B4220D3726829E05068B0F804C061456E
:1055D00015D222606DB1B5F806C0614513D380883D
:1055E000834210D82F60A088844506D04FF0000871
:1055F00003E08088834206D877608AB12EE002D02B
:10560000C288914202D25046BDE8F09F25B1EA8897
:10561000624501D04FF0000802680546002AD3D148
:1056200095B1E888A188884206D92AA34FF4DB7295
:1056300037A13FA0FCF784FA2F60E888A188884250
:105640000CD04FF0000809E0706830B121A34FF48E
:10565000DF7241A136A0FCF773FA7760BBF1000F4F
:1056600002D1B07FC007CFD0B8F1000F30D0726840
:10567000002A2DD050688088002829D12168204632
:1056800029B14C68C088A1888842F7D020E0B8F1E1
:10569000000F1DD032B90FA340F2DF123CA124A0AD
:1056A000FCF74EFA70684068A04206D109A34FF497
:1056B000F07237A11EA0FCF743FA206830B105A3B1
:1056C0004FF4F17236A11AA0FCF73AFA01209BE7D9
:1056D000002099E72E2E2F4D6964646C6577617206
:1056E00065732F54686972645F50617274792F4CCE
:1056F0007749502F7372632F636F72652F697076CD
:10570000342F6970345F667261672E630000000099
:10571000636865636B20667261676D656E74732084
:10572000646F6E2774206F7665726C617000000084
:10573000417373657274696F6E202225732220662F
:1057400061696C6564206174206C696E65202564F4
:1057500020696E2025730A006E6F2070726576696D
:105760006F757320667261676D656E742C20746846
:105770006973206D75737420626520746865206696
:105780006972737420667261676D656E74210000C2
:1057900073616E69747920636865636B0000000053
:1057A00076616C69646174655F646174616772617C
:1057B0006D3A6E6578745F70627566213D4E554C2A
:1057C0004C00000070B504460C480D464168A142EB
:1057D00002D1216841600AE0002D06D108A340F201
:1057E000451216A11CA0FCF7ABF9206828602146E1
:1057F000BDE87040042001F037BD0000E40A00203D
:105800002E2E2F4D6964646C6577617265732F5419
:10581000686972645F50617274792F4C7749502FB8
:105820007372632F636F72652F697076342F69709E
:10583000345F667261672E630000000073616E69F9
:10584000747920636865636B206C696E6B65642096
:105850006C69737400000000417373657274696F42
:105860006E2022257322206661696C656420617454
:10587000206C696E6520256420696E2025730A00FE
:105880002DE9F047054600240F46A94205D12FA374
:10589000AB223DA13FA0FCF753F9002F08D0386898
:1058A000A84205D029A3AD2244A13AA0FCF748F9AB
:1058B0006E684FF480387068818800291AD10068BA
:1058C0006860142205F108017068FAF71DFD0121D6
:1058D0003046FFF79FF9304603F0C1FD04464045CE
:1058E00005D31AA3BC223AA12AA0FCF729F9304615
:1058F00003F088FF6E6812E07068B146066848469B
:1059000003F0ADFD0444444505D310A3CC2230A1DF
:1059100020A0FCF715F9A4B2484603F073FF002E4F
:10592000EAD139462846FFF74DFF314D2888A0427D
:1059300005D206A3D2222FA116A0FCF701F92888D0
:10594000001B28802046BDE8F08700002E2E2F4D3A
:105950006964646C6577617265732F5468697264F9
:105960005F50617274792F4C7749502F7372632F97
:10597000636F72652F697076342F6970345F667259
:1059800061672E63000000007072657620213D2063
:1059900069707200417373657274696F6E2022259D
:1059A0007322206661696C6564206174206C696E85
:1059B0006520256420696E2025730A007072657663
:1059C0002D3E6E657874203D3D20697072000000A8
:1059D00070627566735F6672656564202B20636C08
:1059E000656E203C3D2030786666666600000000EB
:1059F000E40A002069705F72656173735F7062759D
:105A000066636F756E74203E3D2070627566735FCD
:105A100066726565640000002DE9F0471D4F8946F8
:105A2000064600240022134611461546786822E0F7
:105A3000D0F814C0D6F80C80C4450BD1D0F818C0EB
:105A4000D6F81080C44505D1B0F80CC0B6F8048073
:105A5000C44509D06D1C2AB190F81FC092F81F8070
:105A6000C44501D802461946D0F800C0BCF1000F69
:105A700000D0034660460028DAD11AB11046FFF77D
:105A8000FFFE04444C4501DA012DCBDC2046BDE885
:105A9000F0870000E40A002070B50948002544683A
:105AA0000BE0E07F20B1401EE0772546246804E04B
:105AB000204624682946FFF7E3FE002CF1D170BD93
:105AC000E40A002010B5040006D108A340F2CE225B
:105AD00015A118A0FCF734F8606908B103F092FE34
