:020000040800F2
:1000000058FF002051B40008CD040008CF040008B8
:10001000D1040008D3040008D50400080000000043
:100020000000000000000000000000009D0100082A
:10003000D904000800000000CD010008DD0400081C
:100040006BB400086BB400086BB400086BB4000814
:100050006BB400086BB400086BB400086BB4000804
:100060006BB400086BB400086BB400086BB40008F4
:100070006BB400086BB400086BB400086BB40008E4
:100080006BB400086BB400086BB400086BB40008D4
:100090006BB400086BB400086BB400086BB40008C4
:1000A0006BB400086BB400086BB400086BB40008B4
:1000B0006BB400086BB400086BB400086BB40008A4
:1000C0006BB400086BB400086BB400086BB4000894
:1000D0006BB400086BB400086BB400086BB4000884
:1000E0006BB400086BB400086BB400086BB4000874
:1000F0006BB400086BB400086BB400086BB4000864
:100100006BB400086BB400086BB400086BB4000853
:100110006BB400086BB400086BB400086BB4000843
:100120006BB400086BB400086BB400086BB4000833
:100130006BB40008E10400086BB400086BB400085D
:100140006BB400086BB400086BB400086BB4000813
:100150006BB400086BB400086BB400086BB4000803
:100160006BB400086BB400086BB400086BB40008F3
:100170006BB400086BB400086BB400086BB40008E3
:100180006BB400086BB40008DFF80CD00BF0A2FAD7
:10019000004800475702000858FF0020194B196813
:1001A0000868B0E8F00F80F309884FF0000080F392
:1001B00011884EF00D0E70470000000002480068E4
:1001C000006880F3088800DF08ED00E0EFF30980A5
:1001D0000C4B1A6820E9F00F106008B54FF0BF0013
:1001E00080F311880AF037FF4FF0000080F3118888
:1001F000BDE8084019680868B0E8F00F80F3098886
:10020000704700BF4001002001B44FF0BF0080F3F1
:10021000118801BC704701B44FF0000080F31188D1
:1002200001BC7047344C2021204602F08EFF00288C
:10023000F9D0204602F0EBFEC1B230A00BF0A6FAD6
:10024000F1E7002001F0E7FCFA200AF080FDF8E772
:10025000002001F0AFBC1FB529484FF4E131016027
:1002600000248480C480048184810C214181FFF7B3
:10027000EFFF2349002000F035FD22A00BF086FAA5
:1002800000F088FA00F04AF900F039FC0220CDE9CC
:100290000004060202940023324623A12548039459
:1002A0000AF02CFC0125CDE90054002302948022A1
:1002B00021A1AFF2710003940AF020FCCDE90054B3
:1002C0000294002332461EA1AFF2A70003940AF065
:1002D00015FC0AF0FAFDFEE770B50446064DE1B2E2
:1002E000284602F090FE4021284602F02EFF00280A
:1002F000F9D0204670BD00000010014025630000C9
:10030000AC0100200A0D53657269616C20636F6D4A
:100310006D756E69636174696F6E20636F6D706C6B
:10032000657465210A0D000044484350436C6965BB
:100330006E740000570500084C454434000000006E
:100340005072696E746600000CB500220192009232
:100350005549086840F4803008604FF4A0430868AD
:1003600000F4003000900198401C0190009810B9F2
:1003700001989842F3D10868800302D501200090CB
:1003800000E000920098012831D1474840300268CF
:1003900042F0805202604548026842F440420260E6
:1003A0004148083002680260026842F4004202607C
:1003B000026842F4A0520260021F3D4B13600A68BB
:1003C00042F080720A600A689201FCD5394A40F214
:1003D00005611160016821F003010160016841F0CD
:1003E000020101600168C1F381010229FAD10CBD4B
:1003F00010B52D48016841F0010101602A4A002131
:100400000832116002682C4B1A400260031D2B4A0F
:100410001A60026822F48022026023480C300160D6
:10042000FFF792FF26494FF00060086010BD70B5DD
:100430001D4E0836306800F00C00224B224900287F
:100440000FD05D1004280ED008280ED00B60306845
:100450001D4AC0F30310121D105C0A68C2400A60F6
:1004600070BD0B60F3E70D60F1E70F4A121D1068D5
:10047000C0F38054106800F03F0034B1B5FBF0F0D9
:100480001368C3F38813584305E0B3FBF0F0136817
:10049000C3F3881358431268C2F30142521C52003E
:1004A000B0FBF2F00860D2E7003802400070004074
:1004B00008484006003C0240FFFFF6FE10300024D2
:1004C00008ED00E00024F400000000207047FEE783
:1004D000FEE7FEE7FEE77047704770470AF028BF67
:1004E00008B500200090402003F000FD012806D14F
:1004F000094800236A46194600680AF08BF9402033
:1005000003F012FD4FF4803003F00EFD0098002838
:1005100001D00AF0F6FE08BD3401002000B587B016
:100520000021084604F046FE002006900590049045
:100530002549264ACDE90121009004AB05AA06A968
:10054000234805F01FFA224805F03FFA204805F03D
:1005500077FA07B000BD0EB500241D4D14B1012C73
:100560002DD104E01A4808F070FC012427E06868E7
:1005700038B10224164808F09CFB00200AF026FB44
:100580001DE0286AC07C052819D90324104808F00A
:1005900090FB104808F0DEFF02906FF0FF0008F0BB
:1005A000D9FF01900C4808F0D5FF00906B4601AAD6
:1005B00002A9074805F0D6F900200AF007FBFA2047
:1005C0000AF0C5FBCAE7000065500008CFA200088A
:1005D000BC010020D301A8C00100A8C000B5AFB085
:1005E00001214FF0606002F016FA02F0F9FF03F00B
:1005F00070FC03F074FC0128FBD0684602F0FCFF9D
:1006000001200090002007904FF400710A910B9098
:100610000E90119013901490159020900904219140
:100620000A11239225902690042028902991800376
:100630002A9080012B9040122C9040002E90002197
:10064000684603F076F8664908600121654803F0C2
:1006500058FC2FB000BD08B54FF4A06002F0B4FD07
:100660003D208DF8000002208DF8010000208DF85B
:10067000020001208DF80300684602F0AAFD08BDC3
:10068000FEB50121072002F0C6F90121880302F01E
:10069000F2F9012002F0A8FB8620009003208DF8DB
:1006A000050002248DF8044000258DF806508DF8D1
:1006B00007504D4E6946304601F0E2FF0B22012102
:1006C000304602F055F80B220221304602F050F875
:1006D0000B220721304602F04BF84FF47050009087
:1006E000424E6946304601F0CBFF0B220A213046CC
:1006F00002F03EF80B221146304602F039F80B2288
:100700000C21304602F034F80B220D21304602F065
:100710002FF832200090364E6946304601F0B0FF87
:100720000B220121304602F023F80B22042130462F
:1007300002F01EF80B220521304602F019F80420C1
:10074000009001208DF804008DF806508DF8070008
:100750008DF80540274E6946304601F091FF04218F
:10076000304601F0F7FF029544F6206402E002995A
:10077000491C02910299A142F9D30421304601F0AB
:10078000E7FF029502E00298401C02900298A04206
:10079000F9D3FEBD10B5FFF773FFFFF75CFFFFF75E
:1007A0001DFF0F480068002819D14FF4784000F071
:1007B00009FE00F016FEC0880FA100EB800080B299
:1007C00000F0B8FE00F00DFEC0884FF6FF7100EBA0
:1007D000400001EA40000DA100F0ACFEFEE710BDB4
:1007E000140000204000010000000240000402400C
:1007F0000008024000100240202020457468657205
:100800006E657420496E697420202000202020200D
:1008100020206661696C6564202020202020000073
:100820000020344900EB400201EBC202127D22B1EC
:10083000401C0A28F6DB0020704700EB400001EB6B
:10084000C00001220275704700212A4A01EB4103D2
:1008500002EBC303834206D101EB410102EBC1016C
:10086000002008757047491C0A29EFDB704770B5F6
:100870000646FFF7D5FF0546280001D01E4C07E0CD
:10088000002070BD304661680AF037FE38B1246838
:10089000002CF7D12846FFF7D7FF002070BDA068D5
:1008A0002860E0686860E068A8600020E860207C5C
:1008B0002874284670BDC7E770B505460B46D5E9D4
:1008C0000110884202D14FF0FF3070BD0C1A9442E3
:1008D00000DD144629682246014418460AF0CAFD84
:1008E000A8682044A860204670BDD0E90110081A0D
:1008F00070470000F40100201463010810B5ADF545
:10090000047D044600200190029003904FF4007192
:1009100004A80AF0C8FD7F480268521C02607EA14C
:1009200001A80AF043FF01A904A80AF0C7FD7BA1B2
:1009300004A80AF0C3FD86A104A80AF0BFFD04A81C
:100940000AF0D4FD04A908440AF02FFB8EA104A8E4
:100950000AF0B4FD9AA104A80AF0B0FDA7480AF075
:10096000C5FD02460123A549204603F03FFD04A82A
:100970000AF0BCFD0246012304A9204603F036FD1F
:100980000DF5047D10BD7CB50646304603F0A2FC93
:100990000546280049D0307A002846D16A4601A988
:1009A000284604F080FABDF8000005283DD3052252
:1009B00093A101980AF0BCFD002836D11B2292A118
:1009C00001980AF0B5FD002836D01E2295A10198A5
:1009D0000AF0AEFD00283DD01D229AA101980AF030
:1009E000A7FD002844D018229EA101980AF0A0FD7E
:1009F00000284BD01322A2A101980AF099FD0028EB
:100A000048D00622A3A101980AF092FD002841D007
:100A1000A2A0FFF72CFF04460023D4E900123046C1
:100A200003F0E4FC2046FFF746FF304603F0F9FCF4
:100A3000284604F0CEF97CBD74A0FFF718FF0446E9
:100A40000023D4E90012304603F0D0FC2046FFF723
:100A500032FFEAE774A0FFF70AFF04460023D4E957
:100A60000012304603F0C2FC2046FFF724FFDCE70B
:100A700075A0FFF7FCFE04460023D4E900123046BF
:100A800003F0B4FC2046FFF716FFCEE73046FFF731
:100A900035FFCAE77BA0FFF7EAFE04460023D4E94E
:100AA0000012304603F0A2FC2046FFF704FFBCE72B
:100AB00070B500221146102003F05EFB0446CCB155
:100AC00050220021204603F0A5FB20B1BDE8704074
:100AD00075A00AF05BBEFF21204603F0D4FB204640
:100AE00003F0E2FB05462846FFF74DFF284603F0DA
:100AF00064FBF4E7BDE8704071A00AF047BE08B59A
:100B0000032000904FF4FA730022734973A009F098
:100B1000D8FC08BD18000020256400003C707265F8
:100B20003E3C62723E4E616D6520202020202020D8
:100B3000202020537461746520205072696F72699F
:100B400074792020537461636B2020204E756D00F2
:100B50003C62723E2D2D2D2D2D2D2D2D2D2D2D2D2B
:100B60002D2D2D2D2D2D2D2D2D2D2D2D2D2D2D2DB5
:100B70002D2D2D2D2D2D2D2D2D2D2D2D2D2D2D2DA5
:100B80002D3C62723E0000003C62723E3C62723E4E
:100B90002D2D2D2D2D2D2D2D2D2D2D2D2D2D2D2D85
:100BA0002D2D2D2D2D2D2D2D2D2D2D2D2D2D2D2D75
:100BB0002D2D2D2D2D2D2D2D2D2D2D2D2D000000EC
:100BC0003C62723E42203A20426C6F636B65642C3B
:100BD0002052203A2052656164792C2044203A202A
:100BE00044656C657465642C2053203A20537573FA
:100BF00070656E6465643C62723E000028630108A3
:100C0000474554202F000000474554202F53544D92
:100C10003332463478375F66696C65732F53542ED0
:100C200067696600474554202F53544D333246348C
:100C300078375F66696C65732F73746D33322E6A13
:100C400070670000474554202F53544D33324634CB
:100C500078375F66696C65732F6C6F676F2E6A708B
:100C600067000000474554202F53544D333246341B
:100C700078375441534B532E68746D6C000000005C
:100C8000474554202F53544D3332463478372E681D
:100C9000746D6C00474554202F2000002F343034F1
:100CA0002E68746D6C00000063616E206E6F74209E
:100CB00062696E64206E6574636F6E6E0000000082
:100CC00063616E206E6F7420637265617465206E5F
:100CD0006574636F6E6E0000B10A0008485454508A
:100CE000000000002DE9FC4104460E462C492C482A
:100CF000091D50F8240051F824100843012101F087
:100D00008AFE27480121001F50F8240001F0B3FE9D
:100D10002348244F083810F81420001F30F814100E
:100D200057F8240001F024FD1D4807F10408801F36
:100D300010F81420001F30F8141058F8240001F0A7
:100D400017FD00208DF8060001208DF80700022510
:100D50008DF804501248103830F8140000908DF8C7
:100D6000055057F82400694601F08AFC8DF80450BC
:100D70000B480E3830F81400009058F824006946EB
:100D800001F07EFC3D1F314655F8240002F096F834
:100D900055F82400012102F00AF9BDE8FC810000A9
:100DA000746901082000002070477CB5FFF7FCFF44
:100DB0000121042001F040FA042001F08FF94CF2E7
:100DC0000370009000208DF804008DF80700FB4DA3
:100DD0006946284601F054FC00221146284601F0DD
:100DE000C7FC00220121284601F0C2FC0022082194
:100DF000284601F0BDFC00220921284601F0B8FC7C
:100E000000220A21284601F0B3FC00220E212846C8
:100E100001F0AEFC00220F21284601F0A9FC4FF69C
:100E200080700090E64C6946204601F029FC0022C3
:100E30000721204601F09CFC00220821204601F0F9
:100E400097FC00220921204601F092FC00220A2191
:100E5000204601F08DFC00220B21204601F088FC89
:100E600000220C21204601F083FC00220D212046A7
:100E700001F07EFC00220E21204601F079FC0022C8
:100E80000F21204601F074FC4FF23F010091CD4E3E
:100E90006946304601F0F4FB00221146304601F06D
:100EA00067FC00220121304601F062FC0022022191
:100EB000304601F05DFC00220321304601F058FC71
:100EC00000220421304601F053FC00220521304667
:100ED00001F04EFC00220C21304601F049FC0022BA
:100EE0000D21304601F044FC00220E21304601F075
:100EF0003FFC00220F21304601F03AFC3F210091D7
:100F0000B14E6946304601F0BBFB00221146304627
:100F100001F02EFC00220121304601F029FC0022C4
:100F20000221304601F024FC00220321304601F06A
:100F30001FFC00220421304601F01AFC002205218A
:100F4000304601F015FC4FF4605100916946284687
:100F500001F096FB00220B21284601F009FC00223B
:100F60000C21284601F004FC00220D21284601F046
:100F7000FFFB302100916946284601F081FB0022E9
:100F80000421284601F0F4FB00220521284601F047
:100F9000EFFB211500916946304601F071FB0022FC
:100FA0000C21304601F0E4FB032100916946204604
:100FB00001F066FB00221146204601F0D9FB002219
:100FC0000121204601F0D4FB7CBD2DE9FC4101212B
:100FD0003A2001F020FD4CF23370009002208DF891
:100FE00004008DF8050000248DF806408DF80740B8
:100FF000724F6946384601F043FB0C220021384607
:1010000001F0B6FB0C220121384601F0B1FB0C22A5
:101010000421384601F0ACFB0C220521384601F0D2
:10102000A7FB0C220821384601F0A2FB0C22092163
:10103000384601F09DFB0C220A21384601F098FB4E
:101040000C220E21384601F093FB0C220F2138466A
:1010500001F08EFB4FF680700090594E6946304685
:1010600001F00EFB0C220721304601F081FB0C221F
:101070000821304601F07CFB0C220921304601F0AA
:1010800077FB0C220A21304601F072FB0C220B2167
:10109000304601F06DFB0C221146304601F068FB32
:1010A0000C220D21304601F063FB0C220E2130464C
:1010B00001F05EFB0C220F21304601F059FB0825A0
:1010C00000956946304601F0DBFA0C2203213046D8
:1010D00001F04EFB802000906946384601F0D0FABE
:1010E0000C220A21384601F043FB009501258DF8BA
:1010F00004508DF805408DF806408DF8074069468C
:10110000384601F0BDFA6E0300968DF804508DF854
:1011100005508DF806408DF807406946384601F0C5
:10112000AFFA3146384601F013FBBDE8FC8100B54B
:1011300097B00121084601F086FC012001900020B3
:101140000290092103910490059006900790089061
:1011500009900A9010210B910C900D900E900F9019
:1011600010900902119112901390149001A81590FB
:10117000169008A800F0CAFF0121002001F05CF8D9
:1011800017B000BD11494860704711490880704789
:101190004FF0C04210800E480180704701B581B009
:1011A00042F2107101984843009002E00098401EFE
:1011B000009000980028F9D10CBD0000000C0240FE
:1011C00000100240001402400018024028000020D5
:1011D0000000106010B5FFF7F8FEFFF7A8FF05202C
:1011E000FFF7DCFFFE4C0821204601F0B3FA0A208D
:1011F000FFF7D4FF0821204601F0AAFA01211020B0
:10120000FFF7C6FFB2211E20FFF7C2FF06212820EC
:10121000FFF7BEFF01210020FFF7BAFF43F2EF0105
:101220000120FFF7B5FF4FF4C0610220FFF7B0FFC8
:1012300000211020FFF7ACFF0520FFF7AFFF46F6B7
:1012400030011120FFF7A4FF40F699111220FFF79B
:101250009FFF4FF460512620FFF79AFF33210720AC
:10126000FFF796FF05210C20FFF792FF00213020A9
:10127000FFF78EFF40F203313120FFF789FF40F284
:1012800007413220FFF784FF40F201331946332033
:10129000FFF77EFF19463420FFF77AFF40F2034143
:1012A0003520FFF775FF40F207713620FFF770FF1A
:1012B00021153720FFF76CFF4FF420613A20FFF72C
:1012C00067FFA1143B20FFF763FF0A210D20FFF702
:1012D0005FFF4FF438510E20FFF75AFF4FF46F4174
:1012E0004420FFF755FF00214520FFF751FF40F252
:1012F0003F114620FFF74CFF00214E20FFF748FF2B
:1013000000214F20FFF744FF00212220FFF740FF7C
:1013100000224FF496330020FFF737FF521C9A4209
:10132000F9D3BDE81040AF482CE700B50B460146A5
:101330004E20FFF72DFF19464F205DF804EB27E7FD
:101340004FF0C0410880A848008870474FF0C04166
:10135000222008807047A4480088704700B500210B
:101360000846FFF7E2FFFFF7F1FF00209E494FF428
:1013700078424FF4C8430A80401C9842FBD34FF494
:10138000FC624FF4484301E00A80401C9842FBD3C2
:101390001F224FF4963301E00A80401C9842FBD391
:1013A00000BD03B5BDF800108E4808380180BDF8B7
:1013B0000410418000E78B4A083A13880380508864
:1013C0000880704701B5BDF80000864908390880DB
:1013D00008BD01B5BDF8000082490839488008BD44
:1013E000704780480838406870472DE9F04105464D
:1013F00088461646002429464046FFF796FF794F57
:10140000083F29E0FFF7A2FF00231AE00C21B0FB00
:10141000F1F1C90080228A4036F814101A410A42BC
:1014200001D10C2805D901229A40114205D10C287E
:1014300003D97888FFF7A9FE02E03888FFF7A5FEF8
:101440005B1C786880889842E0D86D1CADB2294654
:101450004046FFF76AFF641C7868C088A042D1D874
:10146000BDE8F08110B4203AD3B25E4A083A52681F
:101470001468D2885A4304EB420210BCB5E7F0B5B9
:1014800007460024574D4FF4A076083D2022214600
:101490003846FFF7E7FF68688188081984B2B442CC
:1014A000F4D3F0BD30B50546002400210846FFF70F
:1014B0003CFFFFF74BFF4C494FF496300D80641C06
:1014C0008442FBD330BD2DE9F04380460D461646DD
:1014D0009946002429464046FFF727FF414F083F21
:1014E000B9F1000F16D1FFF731FF03E03888FFF79D
:1014F0004CFE641CB442F9D3BDE8F083FFF726FF2D
:101500003888FFF742FE6D1CADB229464046FFF712
:101510000CFF641CB442F1D3EEE7B0F5A07F08D213
:10152000002906DBEF2904DC002389B280B2012206
:10153000C9E770472DE9F04180460D460024294E49
:101540004FF4A077083E0AE021464046FFF78AFFA5
:1015500070688088204484B2BC4281D26D1C2A7895
:10156000002AF1D17CE770B504460D4616462146A7
:101570004520FFF70DFEA219B2F5A07F05D340F27A
:101580003F114620FFF704FE03E091B24620FFF72B
:10159000FFFDEA18F02A02D34FF46F4200E0120276
:1015A000224391B24420FFF7F3FD29462046BDE8CF
:1015B0007040BAE67047F0B504460F4615461E4621
:1015C0000123324639462046FFF77DFF6019401E51
:1015D00080B2012332463946FFF775FF002305E04C
:1015E000000C024030000020000010602A463946FE
:1015F0002046FFF768FFB81981B22A462046BDE8A9
:10160000F04000235FE72DE9FC4F80468946032028
:10161000A0EB42060024154674E008EB040009EB39
:10162000050A01901FFA8AF180B2FFF77EFEFFF7EC
:101630008DFEFE4F3888FFF7A8FD0198A9EB050B3A
:101640001FFA8BF180B2FFF770FEFFF77FFE38883C
:10165000FFF79BFD1FFA8AF1A8EB040A1FFA8AF034
:10166000FFF763FEFFF772FE3888FFF78EFD1FFA63
:101670008BF11FFA8AF0FFF758FEFFF767FE3888F4
:10168000FFF783FD09EB040081B208EB050A009027
:101690001FFA8AF0FFF749FEFFF758FE3888FFF778
:1016A00074FDA9EB040B1FFA8BF11FFA8AF0FFF708
:1016B0003CFEFFF74BFE3888FFF767FD0098A8EB6C
:1016C000050A81B21FFA8AF0FFF72FFEFFF73EFEF0
:1016D0003888FFF75AFD1FFA8BF11FFA8AF0FFF7DF
:1016E00024FEFFF733FE3888FFF74FFD002E03DAA4
:1016F00006EB8406B61D04E0601B06EB80060A3686
:101700006D1E641CAC4288D9BDE8FC8FF0B506465E
:10171000002440F23F110020FFF707FEFFF716FEFE
:10172000C24D01234FF41667002256F8241003FA25
:1017300002F0014203D16888FFF727FD02E0288804
:10174000FFF723FD521C202AEFD3641CBC42EBD3CD
:10175000F0BD70472DE9F0430746894690461C4688
:10176000B24E3088FFF72EFE0023424649463846E7
:10177000FFF7A9FE09EB040081B200234246384678
:10178000FFF7A1FE0123224649463846FFF79BFE9C
:1017900007EB0800401E80B2012322464946FFF7AE
:1017A00092FE641EA5B209F101091FFA89F470883E
:1017B000FFF708FE07E02146641CA4B2002342465E
:1017C0003846FFF780FE6D1EADB2F4D23088BDE81A
:1017D000F043F7E52DE9F74F0746884602980321C5
:1017E000A1EB40060024029D90484088FFF7EAFDE7
:1017F0004FF6FF7935E09DB109EA450208EB050A8D
:10180000381B93461FFA8AF180B20023FFF75BFE74
:1018100038195A461FFA8AF180B20023FFF753FEA7
:101820009CB109EA440208EB040A781B93461FFAAC
:101830008AF180B20023FFF746FE78195A461FFA54
:101840008AF180B20023FFF73EFE002E03DA06EB9A
:101850008406B61D04E0601B06EB80060A366D1E8A
:10186000641CAC42C7D971480088FFF7ABFD029AEF
:1018700003B041463846BDE8F04FC4E62DE9FC5FB1
:1018800084460C460027A2EB0C00002801DCACEBE0
:10189000020000B2191B002900DCE11A09B20FFA9C
:1018A0008CF526B24FF0FF3B624503D34FF00109A0
:1018B000CA4601E0D946DA46A34204D34FF0010BF1
:1018C0000122019201E0CDF804B088420ADB4FF01A
:1018D00000090022019200EBD072521014B2009164
:1018E000804623E04FF0000AD34601EBD17252103C
:1018F00014B20090884619E031462846FFF70DFEE5
:101900000098204404B2444508DBA4EB080004B26C
:1019100005EB090005B206EB0B0006B205EB0A0069
:1019200005B20198304406B27F1C3FB24745E3DD63
:10193000BDE8FC9F70B504460D46022D0DD308E0AE
:1019400020886188241D89B26388228880B2FFF7CD
:1019500095FF6D1E2D042D0CF2D170BD2DE9F047C1
:1019600004460F469146A046022F25D3B4F90050F5
:10197000B4F9026010E0241DB1B26088304483B233
:101980002088284482B2A8B2FFF778FF2088284434
:1019900005B26088304406B27F1E3F043F0CEAD196
:1019A000B9F1000F08D0B3B2AAB2B8F80210B8F873
:1019B0000000BDE8F04761E7BDE8F08770B5044678
:1019C0000D4629462046FFF7B5FF04EB8500001FB2
:1019D0006188438802882088BDE870404EE7002275
:1019E000BCE70122BAE72DE9F34FE9B00446B4F8A9
:1019F00000A0D34665880195012013E004EB800127
:101A00004988514500D28A46594500D98B4634F859
:101A10002020AA4200D2154601998A4200D901929B
:101A2000401C80B26A998842E8D301E02800002077
:101A30005F484088FFF7C6FC0295AEE04FF0000912
:101A40006A98401E1FFA80F800254FE0029809F0BE
:101A50008FFD0646679168900F4634F9250009F01E
:101A600076FD32463B4609F091FD0AD234F9280052
:101A7000679F689E09F06BFD32463B4609F09EFD6C
:101A800015D934F92800679F689E09F060FD324639
:101A90003B4609F07BFD26D234F92500679F689EFE
:101AA00009F055FD32463B4609F088FD1BD804EB92
:101AB0008800029BB0F9021004EB8500B0F9020027
:101AC0000A1A34F925105B1A5A4334F92830591A86
:101AD00092FBF1F10144484603AA09F101091FFAFA
:101AE00089F922F81010A8466D1CADB26A9885429B
:101AF000ACD30020A9F1010503AF0FE0411C37F87A
:101B0000102037F811309A4207D927F8103027F8FB
:101B1000112018B1401E80B200E088B2A842EDDB6F
:101B2000002534E037F81500584532D26E1C37F8DE
:101B30001610514529D9504501D227F815A037F87C
:101B40001600584501D927F816B0DFF86480B8F8B8
:101B50000200FFF737FC37F8161037F8150000239E
:101B6000081A82B20298FFF7AEFCB8F80000FFF73F
:101B700029FC029837F9161000B20646FFF7CDFC93
:101B800037F915103046FFF7C8FCAD1CADB24D4516
:101B9000C8D30298401C80B20290DDE9011088424F
:101BA000FFF44CAF024800886BB0BDE8F04F09E489
:101BB000280000201CB50446FE48012150F82400EE
:101BC00000F029FFFB48203830F814000090012075
:101BD0008DF8040000218DF806108DF80700022012
:101BE0008DF80500F448694650F8240000F048FDDF
:101BF0001CBDF049F04A203931F8101052F820008D
:101C000001837047EB49EC4A203931F8101052F843
:101C1000200041837047E84951F820104A69E54B9C
:101C2000203B33F8100042404A61704770B586B0DF
:101C300004460E46DF4801213C3850F8240000F0ED
:101C4000EAFE0121880300F016FF00258DF81450EC
:101C50008DF81750D748403830F814000490D64813
:101C600004A91C3850F8240000F00AFD012E25D1EB
:101C7000D0484338015D401E005D01F0A2F8CD4818
:101C80003E3830F8140002908DF80C5008208DF882
:101C90000D0001258DF80E5002A800F0B7F9C548D7
:101CA0004238005D8DF804000F208DF805008DF896
:101CB00006008DF8075001A801F08BFA06B070BD40
:101CC000BC49BD4A40391C3A31F8101052F8200086
:101CD00000F02ABD2DE9FC4104460E46B548B54941
:101CE0001038083950F8240051F824100843012115
:101CF00000F091FEAF480121183850F8240000F0A0
:101D0000BAFEAC48AC4F2838103F10F81420083801
:101D100030F8141057F8240000F02AFDA54807F108
:101D20000808243810F81420083830F8141058F82F
:101D3000240000F01DFD00208DF8060001208DF824
:101D4000070002258DF804509A48383830F81400FE
:101D500000908DF8055057F82400694600F090FC7B
:101D60008DF804509348343830F81400009058F837
:101D70002400694600F084FCA7F10805314655F8B7
:101D8000240001F09BF855F82400012101F00FF91F
:101D9000BDE8FC817CB5002000F04EFF002000F083
:101DA0004EFF00F021FF00214FF4006000F063FEC1
:101DB000824C00220821204600F0DAFC0022092192
:101DC000204600F0D5FC00220A21204600F0D0FC7D
:101DD00000220B21204600F0CBFC00220C212046E3
:101DE00000F0C6FC764D00220221284600F0C0FC1F
:101DF0004FF47061009100218DF804108DF80710E8
:101E00006946204600F03CFC0421009169462846C2
:101E100000F036FCA11400916946204600F030FC29
:101E20007CBD2DE9FC4101210E2000F0F4FD634E44
:101E30000C220821304600F09BFC0C220921304680
:101E400000F096FC0C220A21304600F091FC0C2296
:101E50000B21304600F08CFC0C221146304600F07D
:101E600087FC574F0C220221384600F081FC4FF4CA
:101E70007060009001248DF8054002208DF8040068
:101E800000258DF806508DF807406946304600F071
:101E9000F7FB042100916946384600F0F1FB20036E
:101EA00000908DF807506946304600F0E9FBE003EA
:101EB00000908DF804508DF807406946414800F0C5
:101EC000DFFB0121C80200F0D6FD0121880500F0EA
:101ED000A2FD5DE730B58FB004463B4D4FF0FA519F
:101EE000284601F002FB0021284601F08FFA28461F
:101EF00001F0C8F94FF0006000903448019002945E
:101F00004020039000200490059029150691890037
:101F100007918900089109904FF440300A900420FD
:101F20000B9003200C9048020D9080100E90694693
:101F3000284601F032FA01221021284601F0E6FA83
:101F40002021284601F07AFA0121284601F05EFAA4
:101F50000FB030BD30B58FB004461B4D4FF0FA5175
:101F6000284601F0C2FA0021284601F04FFA28461F
:101F700001F088F94FF0006000901448019002943D
:101F8000002003900490059029150691890007917F
:101F90008900089109904FF440300A9004200B907A
:101FA00003200C9048020D9080100E906946284640
:101FB0000EE00000907B0108540000200008024061
:101FC000000C02400004024058640240802C014092
:101FD00001F0E3F901221021284601F097FA2021AF
:101FE000284601F02BFA0121284601F00FFAAFE74D
:101FF000384900200860091D0860091D0860091D96
:1020000008603449344814310860704730B5314AAB
:1020100083790168002B2AD013688B431360111D4C
:102020000B680468A3430B60017911440B680468D2
:1020300023430B60274C08342168036899432160CF
:10204000231D19680568A94319604179102905D035
:1020500011440A68006802430A6030BD21680268C2
:1020600011432160196800680143196030BD00798F
:10207000104402688A43026030BD00210160017192
:102080000C22427181717047124910310A68024373
:102090000A607047014600200E4A143212680A4254
:1020A00000D0012070470B49143108607047014689
:1020B0000020084A12680A40064B14331B680B4282
:1020C00002D0002A00D00120704702491431086074
:1020D00070470000003C0140FFFF7F008100A1F13C
:1020E000C04100280CD043F2D2020A60401C80009C
:1020F000A0F1C0406FF070420260C1F80421704747
:102100004FF0204343F2DB021A60EFE710B5D0E94D
:1021100001121143D0E903231A43114342691143C9
:1021200082691143C2691143026A1143426A114331
:10213000826A1143C26A1143026B11430268920022
:10214000A2F1C04211608168082907D101688900A5
:10215000A1F1C0410A6842F040020A60416BD1E936
:10216000002342EA03128B688C891B0243EA044372
:102170001A430B8A42EA03520B7D896942EA0362E1
:102180000A430168491C8900A1F1C0410A60C16A83
:10219000B1F5804F08D000686FF070418000A0F169
:1021A000C040C0F8041110BD816BD1E9002342EAA0
:1021B00003128B680C8A1B0243EA04531A430B7DFB
:1021C000896942EA036200680A438000A0F1C040C6
:1021D000C0F8042110BD10B5002101600222426048
:1021E0008160C160016141618161C1610162D202AE
:1021F000426252008262C1620163436B0F221A6025
:10220000436B5A60446BFF23A360446BE260446BF2
:102210002261446B6261446BA161846B2260846BB8
:102220006260846BA360836BDA60836B1A61836B7B
:102230005A61806B816110BD8000A0F1C04000290F
:1022400004D0016841F00101016070470168CE4A85
:1022500011400160704710B5182440234FF0204111
:102260004FF0FC32102805D041F8804F4B608A6057
:10227000CA6010BD0C664B668A66CA6610BD30B572
:10228000D0E901121143D0E903231A4311434269F3
:1022900041EA4221826941EA423141F00804C169C0
:1022A000D1E9002342EA03220B89097B1B0443EA9C
:1022B00001610A43016AD1E9003543EA05230D892A
:1022C000097B2D0445EA01610B4301684FF0204072
:1022D000102904D040F8804F8260C36030BD04668E
:1022E0008266C36630BD10210160002141608160BB
:1022F000C160016141618161C269FC211160C269F3
:102300005160C2699160C269D160026A1160026A5B
:102310005160026A9160006AC16070474FF02042CC
:1023200000290CD0102805D052F8800F40F004008E
:1023300010607047106E40F00400106670479249BC
:10234000C91E102804D052F8800F08401060704752
:10235000106E0840106670474FF0204200290CD0E4
:10236000102805D052F8800F40F0400010607047F0
:10237000106E40F040001066704783493F391028C6
:1023800004D052F8800F084010607047106E08406B
:10239000106670474FF02041102802D0D1F8940009
:1023A0007047486F704779481821016000214160EB
:1023B0004FF0FC318160C1600161704710B5D0E918
:1023C000001241EA42218268102343EA423211435B
:1023D0006E4A1160C168D1E9003443EA04230C89D4
:1023E000097B240444EA01610B4393600169D1E94C
:1023F000003443EA04230C89097B240444EA016184
:102400000B43D3604069D0E9001341EA03210389FB
:10241000007B1B0443EA00600143116110BD0021F1
:10242000016041608160C268FC211160C268516036
:10243000C2689160C268D16002691160026951602E
:10244000026991600269D16042691160426951601C
:10245000426991604069C16070474FF02041002897
:1024600005D051F8A00F40F004000860704751F803
:10247000A00F454AD21E10400860704710B54FF4B7
:1024800080744FF02043002A11D0102806D0A042BB
:1024900008D153F8840F0843186010BD586E0843E4
:1024A000586610BD53F8A40F0843186010BD1028DB
:1024B00006D0A04208D153F8840F8843186010BD9D
:1024C000586E8843586610BD53F8A40F88431860AF
:1024D00010BD034600204FF02042102B08D0B3F56A
:1024E000807F07D0D2F8A4200A4200D00120704794
:1024F000526EF9E7D2F88420F6E74FF02042102818
:1025000007D0B0F5807F08D052F8A40F8843106040
:102510007047506E88435066704752F8840F884366
:1025200010607047034600204FF02042102B0ED061
:10253000B3F5807F0DD0D2F8A42002EA010302EAAD
:10254000D101002B02D0002900D001207047526E2B
:10255000F3E7D2F88420F0E74FF02042102808D0AB
:10256000B0F5807F0AD052F8A40F20EAD1001060A5
:102570007047506E20EAD1005066704752F8840FC1
:1025800020EAD10010607047FEFF0F00A00000A0FD
:1025900010B57F49884209D10121084600F077FA39
:1025A0000021BDE81040012000F071BA794988424D
:1025B00009D10121022000F06AFA0021BDE8104093
:1025C000022000F064BA7449884209D10121042034
:1025D00000F05DFA0021BDE81040042000F057BA79
:1025E0006E49884209D10121082000F050FA0021EB
:1025F000BDE81040082000F04ABA6949884209D174
:102600000121102000F043FA0021BDE81040102005
:1026100000F03DBA6349884209D10121202000F031
:1026200036FA0021BDE81040202000F030BA5E49A3
:10263000884209D10121402000F029FA0021BDE89B
:102640001040402000F023BA5849884209D10121A6
:10265000802000F01CFA0021BDE81040802000F02E
:1026600016BA534988420AD184150121204600F048
:102670000EFA2046BDE81040002100F008BA10BD57
:102680002DE9F041002201274FF0030C07FA02F573
:102690000B682B40AB422CD1066853000CFA03F4B4
:1026A000A64306600E79D0F800809E4046EA0806F0
:1026B00006600E79012E01D0022E12D18668A64343
:1026C00086604E79D0F808809E4046EA080686600B
:1026D0004668AE43466045688E799640B6B235434B
:1026E0004560C568A543C560CC799C40C3681C4360
:1026F000C460521C102AC9D3BDE8F0814FF6FF71A7
:1027000001600021017141718171C171704708B58B
:1027100041F480320092009AC261C1610099C161A6
:10272000C169C069009008BD0246002012690A42D2
:1027300000D001207047006980B270470246002037
:1027400052690A4200D001207047406980B2704748
:102750000183704741837047002A01D0018370478D
:10276000418370474161704742694A404261704706
:1027700010B54B07DB0E9A40C90800EB8100016AD7
:102780000F249C40A1430162016A1143016210BD04
:10279000000002400004024000080240000C024019
:1027A000001002400014024000180240001C0240C9
:1027B00000200240F848016841F001010160F64A3A
:1027C0000021083211600268F44B1A400260031DB8
:1027D000F34A1A60026822F480220260EE480C304C
:1027E00001607047EC490022891C0A70087070472C
:1027F00002460020510901290CD002290DD0E649DA
:102800007431096802F01F02012393400B4200D08B
:1028100001207047E0490968F4E7DF497031096831
:10282000F0E718B5002000904FF4A0443120FFF7E6
:10283000DFFF0099491C00910099A14201D00028B6
:10284000F4D03120FFF7D4FF08B1012018BD0020DB
:1028500018BDD14A116821F0F80141EAC0001060AA
:102860007047D04908607047CB49002270310A7028
:102870000A70012804D0042801D10520087070478F
:10288000012008707047C8490860704710B5029C65
:1028900041EA82114FF0FF3202EB530241EA02415A
:1028A000014341EA0460BC49091D086010BDBD49EF
:1028B00008667047800140EA0170B74984310860BA
:1028C0007047B84988667047B649C8647047B24BCC
:1028D00008331A6822F0EC6208431043186070470E
:1028E000AD4B08331A6822F0784208431043186051
:1028F0007047A94A0832116821F0030101431160B1
:102900007047A5480830006800F00C007047A24AE4
:102910000832116821F0F0010143116070479E4AAE
:102920000832116821F4E0510143116070479A4A5E
:102930000832116821F4604141EAC000106070471C
:1029400070B5954B0833196801F00C01974C0029BC
:102950001ED0661004291DD008291DD004601968F6
:1029600001F0F0010909924A545C0168E1404160BC
:102970001C6804F4E054A40A145D21FA04F4846091
:102980001B6803F460435B0BD25CD140C16070BD37
:102990000460E4E70660E2E77F4A121D1168C1F3B4
:1029A0008055116801F03F0135B1B6FBF1F11468B3
:1029B000C4F38814614305E0B4FBF1F11468C4F377
:1029C000881461431268C2F30142521C5200B1FBE9
:1029D000F2F10160C3E7C0F30121032908D16E4B76
:1029E0000833196821F4F812724901401143196043
:1029F000694A70321168C0F30B00014311607047DF
:102A00006949443908607047674940390860704730
:102A1000694908607047604A3032002903D0116864
:102A200001431160704711688143116070475A4A31
:102A30003432002903D011680143116070471168D6
:102A4000814311607047544A3832002903D011681D
:102A500001431160704711688143116070474E4A0D
:102A60004032002903D0116801431160704711689A
:102A7000814311607047484A4432002903D01168ED
:102A80000143116070471168814311607047424AE9
:102A90001032002903D0116801431160704711689A
:102AA0008143116070473C4A1432002903D01168F9
:102AB0000143116070471168814311607047364AC5
:102AC0001832002903D01168014311607047116862
:102AD000814311607047304A2032002903D01168C9
:102AE00001431160704711688143116070472A4AA1
:102AF0002432002903D01168014311607047116826
:102B0000814311607047244A5032002903D0116874
:102B100001431160704711688143116070471E4A7C
:102B20005432002903D011680143116070471168C5
:102B3000814311607047184A5832002903D0116848
:102B40000143116070471168814311607047124A58
:102B50006032002903D01168014311607047116889
:102B60008143116070470C4A6432002903D0116818
:102B70000143116070471168814311607047064A34
:102B80000D32002903D0117801431170704711787C
:102B9000814311707047000000380240FFFFF6FECD
:102BA0001030002400004742800E47420024F40009
:102BB00064000020FFFCFF0F5C01474209480168E8
:102BC00041F080710160E5E701460020054A683A5E
:102BD00012680A42DED00120DCE70249663908703B
:102BE000D8E700007438024010B50121CC0220461D
:102BF000FFF77DFF2046BDE810400021FFF777BFBB
:102C000030B5644B196847F6FF629143027D8468D2
:102C1000C568224344682C43224304680069224368
:102C200002430A431A6030BD002101750160416012
:102C30008160C1600161704757490860704755491C
:102C4000091F086070475348001F006800F0030028
:102C5000704710B54F4A0168121D1160141D21689C
:102C60006FF30A01D0E901231A43D0E9033003438B
:102C70001A430A43226010BD002101604160816057
:102C8000C1600161704743480C300068C0B27047B2
:102C900008B540491031084400900098006808BD0C
:102CA00010B53C4A016820321160121D4168116064
:102CB000141D216821F0F701D0E902231A43D0E95D
:102CC000043003431A430A43226010BD4FF0FF3122
:102CD0000160002141608160C16001614161704714
:102CE0002C482C30006870472A487C3000687047B8
:102CF00028497C3108607047264844300068704796
:102D00002649086070472549091D08607047234916
:102D100008310860704721490C310860704720492C
:102D2000086070471E49091D0860704701218143F2
:102D30001B4808300160704719490C310860704722
:102D40001649143908607047124A3832002903D0F6
:102D50001168014311607047116881431160704729
:102D6000014600200B4A303212680A4200D001208E
:102D70007047084934310860704701460020054A11
:102D8000303212680A4200D00120704701493431C4
:102D900008607047042C0140A0802542A085254290
:102DA000AC81254210B501218C032046FFF79FFE20
:102DB0002046BDE810400021FFF799BE1149086088
:102DC000704710B58A07120F0F23934021F00304B8
:102DD0000D49214401F608010C689C430C600B6806
:102DE000904003430B6010BD0849086070470849D4
:102DF000086070470020034920310968C90500D5E3
:102E0000012070470038014000300140DC002742BB
:102E10000004274210B5E649884209D1012110205B
:102E2000FFF765FE0021BDE810401020FFF75FBEF0
:102E3000E04988420AD101214C042046FFF74BFEAD
:102E40002046BDE810400021FFF745BEDA49884220
:102E50000AD101218C042046FFF73DFE2046BDE843
:102E600010400021FFF737BED44988420AD1012122
:102E7000CC042046FFF72FFE2046BDE8104000217D
:102E8000FFF729BECE4988420AD101210C05204610
:102E9000FFF721FE2046BDE810400021FFF71BBED2
:102EA000C849884209D101212020FFF720FE0021D6
:102EB000BDE810402020FFF71ABE10BD7FB50446C4
:102EC0000D46208A20F44051E88808432082A089DA
:102ED00041F20C618843A9882A8911436A89024317
:102EE0001143A181A08A20F44071A8890843A082DF
:102EF0006846FFF725FDAE48844202D0B1488442BF
:102F000001D1039800E00298A189090408D500EBDB
:102F1000C00101EB001029684900B0FBF1F007E0A7
:102F200000EBC00101EB001029688900B0FBF1F053
:102F30006422B0FBF2F109010B096FF018056B4335
:102F400000EB8300A3891D044FF0320307D503EB88
:102F5000C000B0FBF2F000F00700084306E003EB0E
:102F60000010B0FBF2F000F00F00084320817FBD9D
:102F70004FF41651016000218180C18001810C2233
:102F800042818181704710B5028A22F470630A88F9
:102F90004C8822438C88C9880C4322431A430282FE
:102FA00010BD0021018041808180C18070470029CF
:102FB00004D0818941F4005181817047818921F4D5
:102FC000005181817047028B02F47F420283028BA1
:102FD0000A4302837047002904D0818941F40041EB
:102FE000818170478189C1F30E0181817047002979
:102FF00004D0818A41F4006181827047818A21F482
:10300000006181827047C1F3080181807047808828
:10301000C0F308007047028A22F00F020282028A7F
:103020000A4302827047002904D0818941F00201DD
:1030300081817047818921F00201818170478289F5
:1030400022F40062828182890A4382817047028A67
:1030500022F020020282028A0A430282704700297B
:1030600004D0018A41F4804101827047018A21F431
:10307000804101827047818941F00101818170475F
:10308000002904D0818A41F0080181827047818A39
:1030900021F0080181827047028BD2B20283028B39
:1030A00042EA012101837047002904D0818A41F05E
:1030B000200181827047818A21F02001818270473E
:1030C000002904D0818A41F0100181827047818AF1
:1030D00021F0100181827047828A22F004028282EC
:1030E000828A0A4382827047002904D0818A41F093
:1030F000020181827047818A21F00201818270473A
:10310000002A03D0828A0A4382827047828A8A43D5
:103110008282704710B540F66A13C1F3421301F082
:103120001F040121A140012B07D0022B07D014302E
:103130003AB102680A43026010BD0C30F8E7103063
:10314000F6E702688A43026010BD0246002012883A
:103150000A4200D0012070478A05C94301807047A8
:1031600070B5002440F66A12C1F3421301F01F0546
:10317000012606FA05F2012B0CD0022B0DD0838A12
:103180001340090A8E40008830400BB100B1012481
:10319000204670BD83891340F3E7038A1340F0E7AC
:1031A00040F66A120A0A01219140C9430180704722
:1031B000001001400044004000480040004C004026
:1031C00000500040001401402B4908432B4908607F
:1031D000704730B50F23C27801250178002A1FD02F
:1031E000264A126802F4E062C2F5E062C2F30722E6
:1031F000C2F10404D3404278A24084781C401443B6
:10320000220101F1E02181F80024007800F01F0183
:103210008D404009800000F1E020C0F8005130BD31
:1032200001F01F0085404809800000F1E020C0F84F
:10323000805130BD124A114001431048001F016007
:1032400070470E4A121D002903D011680143116016
:10325000704711688143116070474FF0E0210428E6
:1032600004D0086920F0040008617047086940F044
:1032700004000861704700000000FA050CED00E052
:1032800080FFFF1F2DE9F043016821F0010101607B
:103290000021016041608160C160016121214161C3
:1032A000C149C14A10394FF03D08904203D1C1F8DD
:1032B0000880BDE8F083BC4A4FF474651832904230
:1032C00001D18D60F5E7B84A4FF474163032904260
:1032D00001D18E60EDE7B44A4FF0746748329042F6
:1032E00001D18F60E5E7B04BB04A6033984201D11D
:1032F000CA60DEE7AC4CAE4B7834A04201D1CB6063
:10330000D7E7DFF8A4C2AB4C0CF1900C604501D1BB
:10331000CC60CEE7DFF890924FF03D5C09F1A80950
:10332000484502D1C1F80CC0C3E7A349DFF8889231
:103330000839484502D1C1F80080BAE7DFF8788241
:1033400008F11808404501D10D60B2E79A4D3035BB
:10335000A84201D10E60ACE7974D4835A84201D193
:103360000F60A6E7944D94496035091FA84201D12A
:103370000A609EE7904A7832904201D10B6098E74C
:103380008D4A9032904201D10C6092E78A4AA8326D
:1033900090428ED1C1F800C08BE730B50368874AF0
:1033A0001340CC680A682243D1E905452C432243E7
:1033B000CC6922430C6A22434C6A22438C6A224322
:1033C0004C6B22438C6B22431A430260426922F009
:1033D0000703D1E90B2422431A4342610A69426080
:1033E0004A6882608968C16030BD00210160416027
:1033F0008160C160016141618161C16101624162BD
:103400008162C1620163416381637047002904D016
:10341000016841F0010101607047016821F001017C
:1034200001607047002904D0016841F40041016047
:103430007047016821F4004101607047002904D001
:10344000016841F0200101607047016821F020010E
:103450000160704741607047406880B27047002A41
:1034600004D0026842F40022026003E0026822F401
:103470000022026001617047002904D0016841F414
:10348000802101607047016821F48021016070474C
:10349000002A01D001617047C160704701460020D9
:1034A0000968090300D5012070470146002009681A
:1034B000C90700D001207047406900F0380070470C
:1034C000024600203C4B9A4202D2374A103A01E0B1
:1034D000394A103A8B0001D5526800E01268384B27
:1034E0001A400A4200D001207047334A904202D26B
:1034F0002D48103801E030481038314A8B0001EA7D
:10350000020101D5C1607047816070470B0609D583
:1035100022B1436943F08003436103E0436923F030
:1035200080034361802905D001F01E011AB10268B1
:103530000A430260704702688A430260704730B5F0
:1035400000241D4A904202D2174A103A01E01A4A5A
:10355000103A1C4B194205D01E2303EAD1250368FB
:103560002B4002E0406900F08003880001D55068DC
:1035700000E01068124A1040084201D003B1012453
:10358000204630BD0C4A904202D20748103801E074
:10359000094810380A4A8B0001EA020101D5C160CE
:1035A0007047816070470000106002403D000020BD
:1035B000400F002000003D20106402403F801CF0BE
:1035C0007D0F7D0F3C0F3C0F01B581B0019800903D
:1035D00002E00098401E009000980028F9D10CBD30
:1035E00010B501214C062046FFF751FA2046BDE8F0
:1035F00010400021FFF74BBA01210160002141601A
:103600008160C16001614FF4804242618161C161AA
:10361000D210026241628162C162016341638163CF
:10362000C16340220264202242648164C164016556
:1036300041658165C1650166802242668166C16619
:10364000016741678167C167D204C0F880205210CA
:10365000C0F88420C0F888101311C0F88C30C0F86E
:103660009010C0F89410C0F89810C0F89C10C0F8E2
:10367000A010C0F8A4205212C0F8A8209201C0F8EF
:10368000AC205212C0F8B020C0F8B410C0F8B81086
:10369000704738B500230093FB4B1C6904F01C05F0
:1036A0004FF6FF7404EAC0242C434FF4F86000EA9C
:1036B0008110204340F0020040F001005A6118617F
:1036C000F2490098401C00901869C00702D0009889
:1036D0008842F6D30098884201D1002038BD0120ED
:1036E00038BD18B500220092E74A136903F01C04A4
:1036F0004FF6FF7303EAC02323434FF4F86000EA58
:103700008110184320F0020040F001001061DF49F1
:103710000098401C00901069C00702D000988842B1
:10372000F6D30098884201D1002018BD506980B2BC
:1037300018BD2DE9F04186B004468846002705975C
:103740000097D14E306920F01C0501A8FFF7F8F86A
:103750000298CF49CF4A0144914202D245F0080570
:1037600016E0CD49CD4A0144914202D245F00C0504
:103770000EE0CB49CB4A0144914209D3CA490844DF
:10378000CA49884202D245F0040501E045F010051F
:1037900035614FF4004200214046FFF77AFFC0B187
:1037A000C348FFF711FF206880B3B84D0098401C54
:1037B000009001214046FFF794FF400702D4009893
:1037C000A842F3D30098A84205D1002006B0BDE876
:1037D000F0810020FAE700974FF480520021404624
:1037E000FFF757FF08B90020F0E70098401C009051
:1037F00001214046FFF775FF800602D40098A842D9
:10380000F3D30098A84202D10020DFE71DE0009723
:103810001F214046FFF765FF00F01C00042811D06F
:103820004FF48042082807D0D1100E2807D0122864
:103830001CD12162626119E02762626116E0216297
:10384000676113E02762676110E0206A0021C0F31E
:10385000CF026069C0F34F0002434046FFF719FFF3
:1038600000287CD06FF07F40FFF7AEFE30689149B2
:103870000840D4E901121143E26854F8103F1A439A
:10388000114362681143A2681143E268114322693F
:10389000114362691143A2691143E2691143226A2B
:1038A0001143626A143411430143316054F8140F18
:1038B00061680843D4E902121143084321690843AF
:1038C00061690843A1690843E16908437060206A9F
:1038D000B060606AF060B0694FF641710840D4E9A9
:1038E0000B121143238D626B42EA03421143A26B18
:1038F0001143E26B11430143B161D4E91001084364
:10390000F0616D4881696D4A1140D4E912231A4370
:10391000D4E914352B431A43A36D1A43E36D1A43BC
:10392000236E1A43636E1A43A36E1A430A438261DD
:10393000D4E91B121143626F54F8783F1A431143C4
:10394000626841EA8201A268114341F4000101600A
:10395000016841F080010160012037E7FFE70020A6
:1039600034E75549002804D0886940F00200886196
:103970007047886920F00200886170474E4900282E
:1039800004D0886940F4005088617047886920F449
:103990000050886170473C49002804D0086840F016
:1039A000040008607047086820F004000860704751
:1039B0004148816941F48011816170473249002892
:1039C00004D0086840F0080008607047086820F0DC
:1039D00008000860704700B50120FFF7EFFFFFF710
:1039E000E7FF0120FFF7D7FF0120FFF7C7FF012006
:1039F0005DF804EBB5E7002023498969C90700D0C9
:103A0000012070472048816941F0010181617047C0
:103A10001D49002804D0886940F001008861704782
:103A2000886920F001008861704701460020164A2D
:103A3000926B0A4200D00120704701460020124AD2
:103A4000926B0A4200D0012070470F4A002903D030
:103A5000D16B8143D1637047D16B0143D163704710
:103A60000A794B7942EA0322074B184402640A7828
:103A7000CB7842EA03628B7849781B0443EA012140
:103A80000A4342647047000000800240FFFF0400C8
:103A900000D3CEFEC0E1E40040F1E9FD40787D01B5
:103AA00000796CFC005A6202001F0AFA80F0FA02E8
:103AB000FFFF0F000F8120FF00900240233FDEF840
:103AC000F94A0244106C030A4B710871506C020EE3
:103AD000CA70020C8A70020A4A700870D2E7F24A71
:103AE0000029104404D0016C41F000410164C9E791
:103AF000016C21F000410164C4E7EB4A082910443D
:103B000004D0016C41F080410164BBE7016C21F0FD
:103B100080410164B6E7E44A1044026C22F07C5212
:103B20000264026C0A430264ACE71EB500210191F5
:103B30000291DE4B59680A68C2F30D42121F0092CF
:103B40009A689468012C03D912689268019201E086
:103B50008A6801920291C96859609DE80E000EC002
:103B60001EBD1FB500210191029103910091CF4B21
:103B700099681AE0009C641C00941468A40509D597
:103B80001468E40506D40A6001228A605A68D26883
:103B90005A600AE01468E40512D41468A4050FD42E
:103BA0008C68641C8C60D2685A605A681468002C57
:103BB00002DB009C052CDDD301A90EC90EC01FBD80
:103BC0005C684C608C68641C8C608C68012C00D133
:103BD0000A605A681468C4F30D44241F01948C6869
:103BE000012C03D909688968029101E0916802916A
:103BF0000392D168596001A90EC90EC01FBDF0B56E
:103C00000023AA4D29680A68002A01DA0020F0BDC5
:103C100040F2F456B04208D9B0FBF6F2B0FBF6F42D
:103C200006FB140414B1521C00E00122012A2CD11D
:103C30000A6842F040520A60C0F30C00486008680D
:103C400040F000400860C868286021E023B92C6873
:103C5000276847F0805727604E60541EA3420ED15C
:103C60000C6844F000540C60C2F10104C4EBC414AD
:103C700004EB440400EB8404C4F30C044C600C68B3
:103C800044F000440C60C9685B1C9342DED3296099
:103C900087484169490703D50421416100214160FA
:103CA0000120F0BD2DE9F0410023804F78604FF0F6
:103CB000004C44F2F458561E14E000EB4314C4F8D0
:103CC00000C0C4F80480C3EBC31505EB450501EB48
:103CD0008505A560B34203D204F12005E56000E04C
:103CE000E0605B1C9342E8D37149C8607148B860DA
:103CF0006DE56E4A506803681146002B896808DB41
:103D00000368DB0505D548608868401C8860012091
:103D1000B8E60368002B0EDB03689B050BD5036830
:103D2000DB0508D4086000204860012088605068E6
:103D3000C06850600DE00368002B0ADB03689B0538
:103D400007D40368DB0504D48B685B1C8B60C068F8
:103D50005060002096E6F0B50023544C20604FF4EC
:103D60008017561E11E000EB43142760C3EBC31508
:103D700005EB450501EB8505A560B34203D204F1CF
:103D80002005E56000E0E0605B1C9342EBD348490E
:103D90000861F0BD0246002012680A4200D00120EE
:103DA00070E60068C0F3C3006CE6016841F00041B2
:103DB000016067E6002904D0016841F0804101609C
:103DC00060E6016821F0804101605BE602680A4319
:103DD000026057E602680A43026053E6002904D0F5
:103DE000016821F0006101604CE6016841F000616A
:103DF000016047E6002904D0016841F480110160A8
:103E000040E6016821F4801101603BE6002904D0FE
:103E1000016821F08061016034E6016841F0806151
:103E200001602FE6436841EA02410B43436029E603
:103E30000246002012680A4200D0012022E6024613
:103E4000002012690A4200D001201BE6016841F0FF
:103E50000041016016E60068C0F30D4012E64268BA
:103E6000002903D022F0004141600BE642F00041FE
:103E7000416007E64068002902D0C0F30C4001E62B
:103E8000C0F30C00FEE500B500210268002A08DB43
:103E90000268120405D40268D20502D5FFF7DBFFE1
:103EA0000146084600BD000000800240740000206A
:103EB00000900240AC3F0020AC49002804D00868C4
:103EC00040F080000860DDE5086820F080000860B0
:103ED000D8E5A648016841F001010160D2E5002063
:103EE000A2490968C90700D00120CBE5014600209E
:103EF0009E4A52690A4200D00120C3E59B494861AD
:103F0000C0E59A4A002903D0D1690143D161B9E5DE
:103F1000D1698143D161B5E501460020934A5269D8
:103F20000A4200D00120ADE590494861AAE58F48DA
:103F3000406900F00100A5E58C48406900F04000B0
:103F4000A0E5002089498969C90200D5012099E5C9
:103F500001460020854A126A0A4200D0012091E5FC
:103F60008248006AC0F34A408CE58048006A80B20B
:103F700088E57E48806C85E57C48C06C82E57B489E
:103F8000006D7FE57948406D7CE578490020486008
:103F900078E576490020886074E57449486271E5E7
:103FA00030B505460C4600212846FFF79AFB14B1B0
:103FB00040F4804201E020F4804200212846FFF7CF
:103FC00068FB08B1012030BD002030BD6848C16ADF
:103FD00041F00041C16255E50021654A50F82130A9
:103FE0009362491C0829F9D34CE56149002804D0A3
:103FF000C86A40F40070C86244E5C86A20F40070E2
:10400000C8623FE501460020594AD26A0A4200D000
:10401000012037E55649002804D0C86A40F0040062
:10402000C8622FE5C86A20F00400C8622AE550493A
:10403000002804D0C86A40F00200C86222E5C86ABD
:1040400020F00200C8621DE54949002804D0C86A72
:1040500040F00100C86215E5C86A20F00100C8629E
:1040600010E54448016841F0300101600AE541482B
:10407000016821F020010160016841F01001016038
:1040800000E53B49002806D0D1F8000140F00800C7
:10409000C1F80001F6E4D1F8000120F00800C1F8F1
:1040A0000001EFE43249002806D0D1F8000140F0C9
:1040B0000400C1F80001E5E4D1F8000120F004009B
:1040C000C1F80001DEE42A49002806D0D1F8000139
:1040D00020F00200C1F80001D4E4D1F8000140F062
:1040E0000200C1F80001CDE42248016841F001015D
:1040F0000160C7E41E4AC3000ED520F0805029B1EC
:10410000D2F80C118143C2F80C11BBE4D2F80C11A7
:104110000143C2F80C11B5E429B1D2F81011814362
:10412000C2F81011AEE4D2F810110143C2F8101118
:10413000A8E400210E4AC30009D5D2F80431034295
:104140000ED0D2F80C2102420AD1012108E0D2F8A7
:104150000831034204D0D2F80C21024200D10121DF
:1041600008468FE4024940588CE400000090024069
:10417000008002400081024030B50D4685B01146F6
:1041800000F06DFB0446B4B1AE4800908DF80850C5
:104190000194684600F0F5FF207A60B1E06806F00F
:1041A0006DF9206906F0C8F82146062001F08EFB63
:1041B000002005B030BD2046FBE710B586B00446B0
:1041C000002C0DD0A0480190029401A800F0D9FF66
:1041D00000206060204600F00CFB002006B010BDFF
:1041E0000020FBE710B586B004466FF00900002CF4
:1041F000F4D00029F2D0002AF0D094480190029423
:10420000039104928DF8143001A800F0BAFF94F9DC
:104210000800E3E710B586B00446002C0BD08C48AC
:10422000019002940391ADF8102001A800F0A9FFBD
:1042300094F90800D2E76FF00900CFE710B586B017
:104240000446002C0BD08348019002940391ADF8F2
:10425000102001A800F095FF94F90800BEE76FF068
:104260000900BBE710B586B00446002C08D07A4898
:104270000190029401A800F084FF94F90800ADE7D2
:104280006FF00900AAE710B586B00446002C08D0EC
:1042900072480190029401A800F073FF94F908009D
:1042A0009CE76FF0090099E738B50446002C0DD063
:1042B000606968B10022694606F062F8A36A1BB122
:1042C0000022012120469847009838BD002038BDC3
:1042D000002038BD30B587B0044600250195002C7C
:1042E0000BD020696FF0070148B194F9082012F152
:1042F000040F07DA002007B030BD0020FBE7217271
:104300000020F8E72278102A13D0002201A906F035
:1043100037F8019858B10268A18B1289891AA183D4
:10432000A36A23B1006801210289204698470198B9
:10433000E1E76078022810D0052001F0B8FA01907A
:1043400070B100226946206906F01AF8009858B149
:104350000289A08B801AA08307E021720020CAE79F
:10436000FF2020720020C6E70022A36A13B10121BA
:1043700020469847009971B1019801600099416009
:104380008581856036490291039470B10068008987
:10439000ADF810000CE00520019901F097FA207AA1
:1043A00008B9F92020720020A5E70120ADF810001F
:1043B00002A800F0E6FEBAE710B586B00446002C6D
:1043C00009D0284801900294039101A800F0D9FE79
:1043D00094F9080002E76FF00900FFE6002902D017
:1043E0008A608B81E8E76FF00800704710B586B0EF
:1043F0000446002C05D02078102805D06FF0080066
:10440000ECE66FF00900E9E6174801900294039189
:104410008DF81430049201A800F0B3FE94F908005E
:10442000DCE610B586B00446002C08D00F48019099
:10443000029401A800F0A5FE94F90800CEE66FF002
:104440000900CBE6CD490008EB490008074D0008FC
:10445000534A0008E54A0008874B0008A94B0008AA
:10446000A54C00083B4C0008D34C00088F4D0008B9
:104470002DE9F04105460F461646002D38D0286933
:10448000B0B331890022032001F025FB044644B17A
:104490003146204601F051FC18B1204601F0F2FAF5
:1044A00000242CB3052001F002FA06468EB13460D8
:1044B000746060680C30B060387CB0813146286927
:1044C00005F051FF50B1304600F083FC0020BDE8FC
:1044D000F081204601F0D6FA0020F8E7A88B218968
:1044E0000844A883AB6A1BB122890021284698475B
:1044F0000020ECE72DE9F0410446DDF8188016466F
:104500001F46002C15D0206998B1052001F0CFF985
:1045100005469DB12E606E60AF60A5F80C802946FF
:10452000206905F020FF70B12846BDE8F04100F099
:1045300050BC3046BDE8F04101F0A4BA3046BDE8B9
:10454000F04101F09FBAA08B31890844A083A36A8F
:10455000002BBCD032892046BDE8F041002118472D
:10456000B5E770B504461146002C08D0206930B17B
:10457000237239B10D89A08B2844A08303E06FF02A
:10458000080070BD0025206905F0EDFE10B14FF068
:10459000FF3070BDA36A1BB12A4600212046984710
:1045A000002070BD70B50446002565602172206949
:1045B000002809D0A36A1BB1002211462046984763
:1045C0000021206905F0C2FEE06830B16078032860
:1045D00003D16570E06805F04CFF606948B1A36ADB
:1045E0001BB100221146204698470021606905F062
:1045F000ADFE6078012801D0042805D16570E0681F
:10460000BDE8704005F035BF70BD2DE9F0410446AE
:104610000026226A606A516801449368181AB0F54E
:10462000803F02D34FF6FF7500E085B26768B7F8A8
:104630006E00A84200D20546137B2A46384603F096
:104640006AFB002750B1411C39D0207201261EB1EF
:104650006770E06805F00DFF002038E7606A2844C5
:104660006062216A8968884203D1012627626762F5
:1046700067706068816F61B190F8221011F0440F8B
:1046800007D1416F41B10A681AB98989028F9142F5
:1046900002D303F0D7FB00E0002020720028D6D11F
:1046A000606840F64261B0F86E008842CFD8A36AD5
:1046B000002BCCD02A46032120469847C7E76068E4
:1046C00003F0C0FBC3E770B50446154660780128C7
:1046D00002D0042804D006E02046FFF796FF02E04F
:1046E000204600F011F86CB1606858B1B0F86E0067
:1046F00040F64261884205D9A36A1BB12A460221CD
:1047000020469847002070BD10B50446002160681F
:1047100002F01CFA6068017C01292AD0002102F015
:1047200017FA0021606802F01CFA0021606802F0AC
:1047300012FA04220021606802F015FA0021606874
:1047400002F00CFA606801F0E5FEB0B1FE49606865
:1047500002F001FA0422FD49606802F004FAFC4903
:10476000606802F0FBF921466068BDE8104002F085
:10477000EDB9002102F0F5F9E4E700206070606017
:104780002072A36A1BB10022114620469847A36AF3
:104790001BB10022022120469847E068BDE8104086
:1047A00005F067BE10B54178012902D0042903D075
:1047B00004E0FFF72AFF01E0FFF7A6FF002010BD8D
:1047C00010B544680146204602F0C0F9E149204690
:1047D00002F0BEF9DC49204602F0BDF90422DB49B3
:1047E000204602F0C0F92046BDE81040D84902F04A
:1047F000B5B938B5044600252069002806D10FE078
:10480000207810280FD0009800F0E3FA694620695C
:1048100005F0E0FD401CF3D1206905F08DFD256118
:10482000606948B912E000980028EFD001F02AF939
:10483000ECE70098FFF7C1FC6946606905F0CAFD26
:10484000401CF6D1606905F077FD6561E06805F010
:1048500015FEE5602146062001F038F838BD2DE947
:10486000F04107468846062001F021F80446200062
:104870000ED0002525722770656007F0F0004FF418
:10488000FA6110280AD0202806D0402807D101E07C
:1048900000201CE6002602E00E4600E00E46002046
:1048A00005F0A7FDE06080B1304605F041FD2061D4
:1048B00088B1656165704FF0FF30A061C4F8288051
:1048C000A58325626562204601E62146062000F0A8
:1048D000FDFF0020FBE5E06805F0D0FD2146062045
:1048E00000F0F4FF0020F2E52DE9F04104460E4609
:1048F00017466069002818D02078A16AFFF7AFFF3B
:1049000005464FF0FF389DB16E602846FFF758FF0F
:104910002F722946606905F026FD58B100206860B5
:104920002846FFF766FF4046D1E56FF00800CEE568
:104930004046CCE5A36A1BB10022114620469847A9
:104940000020C4E570B50446002021680872216883
:104950004FF0FF35087800F0F00010282AD020280A
:1049600014D0402805D0F7200872206890F908007C
:1049700070BD207901F048FB21684860226818B1B9
:10498000754901F0E0FAF0E71572EEE700F0FFFD7F
:1049900021684860216818B10978222902D003E013
:1049A0000D72E2E70121017422686C49506800F041
:1049B000D7FDDAE702F0C8F80146206841602068B8
:1049C00011B1FFF7FDFED0E70572CEE710B5044642
:1049D00020684068002802D12046FFF7B3FF206816
:1049E000C068BDE8104005F044BD10B5044621681C
:1049F0004A68002A12D0087800F0F000102821D070
:104A0000202805D0402809D1104601F0E9FA05E038
:104A10000020D0612068406800F0A5FD2068836A0E
:104A200013B10022114698472068836A13B100220F
:104A3000022198472068C068002809D0BDE81040CE
:104A400005F017BD042048702068BDE810405BE603
:104A500010BD10B50446206890F9081011F1040F3C
:104A600023DB4368FBB1007800F0F000102812D07F
:104A7000202808D0402818D11846616801F053FA60
:104A80002168087211E022891846616800F098FCDC
:104A90002168087209E022891846616801F0A1FEC8
:104AA0002168087201E0F72101722068C068BDE842
:104AB000104005F0DEBC10B50446002C04D0227274
:104AC0002078102803D006E06FF0080010BD12B95E
:104AD0002046FFF775FE00206070E06805F0C9FC15
:104AE000002010BD10B5044620684368002B10D08C
:104AF000017801F0F001102936D020291AD0402980
:104B00000CD0F72101722068C068BDE8104005F0A4
:104B1000B0BCC068BDE8104005F0ABBC1846616889
:104B200001F009FA216808722068C068BDE81040E9
:104B300005F09FBC22891846616800F0E2FC2168FC
:104B400008722068C0680BE0C7460008A547000847
:104B5000A54500086345000871440008F5440008B5
:104B6000BDE8104005F085BC032141702068FFF7C7
:104B700027FE2289D4E900018D4B406801F0F5FE43
:104B80002168087210BD10B5044602222168087819
:104B9000B2EB101F02D1486800F0D8FC2068C06852
:104BA000BDE8104005F065BC70B50446206890F97A
:104BB000081011F1040F08DB426832B101781029A6
:104BC00003D1117C39B1F82101722068C068BDE8B9
:104BD000704005F04EBCFF21104601F069FE05460D
:104BE0004FF0FF365DB12068006920B105F0A4FBED
:104BF0002168002008612068406918B10BE0206836
:104C00000672E2E74FF4FA6005F092FB2168486112
:104C100008B9206806722068017A0029D5D10221DE
:104C20004170206845602846216801F08FFF2068A8
:104C30006049406801F095FFC7E710B50446216858
:104C400091F9080010F1040F20DB4868F0B10978F1
:104C500001F0F001202910D0402917D161688A683D
:104C60002AB1096801F072F9216808720EE009683A
:104C700001F0B4F92168087208E061688A685AB1E5
:104C80008B89096800F026FC216808722068C068DA
:104C9000BDE8104005F0EDBB096800F02FFC21686D
:104CA0000872F3E710B50446206890F9081011F176
:104CB000040F08DB426832B10078102803D1A188C4
:104CC000104601F0A8FC2068C068BDE8104005F05F
:104CD000D0BB016891F9082012F1040F06DB4A6885
:104CE00012B10A78102A05D0F7220A720068C0684B
:104CF00005F0BFBB01224A7001680862026800210A
:104D00005162006881E430B402686FF007035168B3
:104D1000002936D0027B1AB142680968116002E0AE
:104D200042684968116001680A7802F0F002102AAE
:104D30001DD0202A0AD0402A24D1027B22B1496802
:104D40008268097C11801DE00B721BE0027B22B19E
:104D500049688268498A118014E04A68147C6407B3
:104D600001D40B720EE0918A826811800AE0027B06
:104D700012B14968098B01E04968098C8268118089
:104D800000E013720068C06830BC05F072BB0168B7
:104D90004A68002A02D00A78102A05D0F7220A723F
:104DA0000068C06805F065BB04224A700068ABE487
:104DB000B74A0008E948000810B5052000F077FD63
:104DC00028B10021016041608160818110BD002017
:104DD00010BD10B50446002C0CD0206820B100F0A6
:104DE00051FE0020606020602146BDE81040052093
:104DF00000F06CBD10BD70B504460D46002C0DD002
:104E0000206808B100F03EFE00222946104600F05E
:104E100062FE206020B16060406870BD002070BDFF
:104E2000002070BD10B50446002C06D0206808B1E3
:104E300000F028FE00206060206010BD70B50446C0
:104E40000E461546002C13D0206808B100F01AFE5B
:104E500000210222084600F03EFE206058B1466064
:104E6000206805812068458120686060002070BD51
:104E70006FF0090070BD00206060401E70BD70B50D
:104E800004460D46002C0DD0002D0BD0296820685B
:104E900000F020FF206860602946BDE870400520D2
:104EA00000F014BD70BD6FF0090300280AD059B19D
:104EB00062B1436863B15B680B60406840891080F1
:104EC00000207047184670471846704718467047CC
:104ED0006FF0010070474FF0FF32002807D04168A3
:104EE000096831B14160086828B100207047104658
:104EF00070471046704701207047002801D00168B4
:104F00004160704710B501F0EAFBBA48BA49006841
:104F10000968084306D00022BDE81040B749FA20CE
:104F200001F0EDB8B6490020C86010BDB448C168B2
:104F300000290CD1AF49B04A09681268114306D064
:104F40000121C1600022AD49FA2001F0D8B87047B4
:104F500010B504F0F3FDBDE810400022A94941F26C
:104F6000883001F0CCB810B503F083FCBDE81040E8
:104F70000022A5494EF6602001F0C1B810B503F03B
:104F800003FEBDE810400022A0494FF4FA7001F082
:104F9000B6B810B504F048F90022BDE810409C49AD
:104FA000642001F0ACB808B50022964941F288307F
:104FB00001F0A5F8002294494EF6602001F09FF818
:104FC000002292494FF4FA7001F099F800229049BA
:104FD000642001F094F88A4C6168F9B1A0688847B0
:104FE0002EE09968081D0968884729E0D96891F87A
:104FF0003100800603D5986805F04EF802E0986805
:1050000004F029FC0820009900F060FC18E0D3E9C6
:10501000021088470720009900F058FC10E0083380
:1050200007CB01F06CF80720009900F04FFC07E077
:10503000D3E9030101F09BF80720009900F046FC3A
:105040006946206800F0F6FF009B18780528F7D223
:10505000DFE800F0070605040300E9E7DFE7D6E72D
:10506000C4E7BEE72DE9F04105460E46644F3868B7
:1050700000281AD0082000F01AFC04464FF0FF3830
:105080007CB101202070A560E6602146386805F0FB
:105090006AF940B12146082000F018FC4046BDE8FE
:1050A000F0814046FBE70020F9E76FF00800F6E7E3
:1050B0002DE9F047064688469146514D286800285C
:1050C00023D0072000F0F3FB04464FF0FF3764B114
:1050D00002202070A660C4F80C80B9F1000F07D040
:1050E0002146286805F032F90DE03846BDE8F08722
:1050F0002146286805F037F928B12146072000F03D
:10510000E5FB3846F2E70020F0E76FF00800EDE736
:105110002DE9F04104460E461746394D286800280F
:1051200011D0072000F0C3FB014649B103200870ED
:105130008C60CE600F61286805F008F90020AEE7AA
:105140004FF0FF30ABE76FF00800A8E770B50446FA
:105150000D462B4E3068002810D0072000F0A7FB2A
:10516000014641B104200870CC600D61306805F043
:10517000EDF8002070BD4FF0FF3070BD6FF00800FB
:1051800070BD10B586B004461D48006800280ED0DA
:1051900000218DF80410039401A905F0D7F8606888
:1051A0000021C06805F040F9002006B010BD6FF086
:1051B0000800FAE7F8B505460E4600F0FCF9104C79
:1051C0006560A660052005F0B3F82060052000901A
:1051D0004FF47A7300220F490FA005F072F9F8BD61
:1051E00000F050BC014600220D4861E70146002254
:1051F0000C485DE7C8000020CC000020054F0008E7
:1052000080000020514F0008674F00087D4F0008C4
:10521000934F0008A74F00085443505F49500000C7
:10522000E1510008535600082DE9F84F80468946A1
:10523000D8F80450288804F060FAC0F3032108204D
:1052400000EB8100B8F8081088420AD8288804F0DA
:1052500054FAC0F3032080004142404600F0F7FCBE
:1052600020B14046BDE8F84F00F00CBCD8F804402F
:10527000494605F1100004F041FC0646208804F080
:105280003CFA0746608804F038FA03460024442BB1
:1052900007D000220020DFF814A3DAF80040A4466B
:1052A00041E0432F43D1D9F82000C8B34068B8B3D8
:1052B000011D04D0416811B1EA68914237D104461A
:1052C00035E00021B4F812B09B4515D12EB95CB180
:1052D000D4F800B0BBF1000F06D0D4F800B0D5F878
:1052E00010E0F34500D03EB1012128B994F810B088
:1052F0005FEA4B7B00D4204699B1A18AB94210D114
:10530000211D05D0616819B1D5F80CB0594508D1F7
:105310005AB1E168D160C4F80CC0CAF8004004E09A
:1053200005E02246E468002CCBD104B9044624B938
:10533000D9F80400296988423DD16FF00701404641
:1053400000F085FC20B14046BDE8F84F00F09ABB64
:105350007CB1A66946B1009705F10C03424621468F
:10536000E069B047BDE8F88F4046BDE8F84F00F06F
:1053700089BBDEB94FF0704004F0C0F9296900EA3A
:1053800001044FF0604004F0B9F984420ED028883F
:1053900004F0B3F9C0F30321082000EB810140467B
:1053A00000F055FC0321404604F0D0F84046BDE82B
:1053B000F84F00F067BB4046BDE8F84F00F062BB15
:1053C000F0B50024794D2B6803E0984200D1012408
:1053D000DB68002BF9D119B10968016012B117E03F
:1053E0000021FAE74FF4805229680E4647F6FF7312
:1053F00007E04F8A974203D1521C92B2314600E037
:10540000C96809B19A42F4D111B16FF00A00F0BD38
:10541000428214B92968C16028600020F0BD2DE9DE
:10542000FE4F0446DDF830900F4692469846628A59
:10543000002A05D121462046FFF7C2FF002812D1DD
:105440000821384600F003FC78B100220821012031
:1054500000F041FB0546280003D0394600F04EFC21
:1054600004E04FF0FF30BDE8FE8F3D466E68608A75
:1054700004F03EF93080404604F03AF97080002094
:10548000F0806CB1206858B1D9F8041088420AD075
:10549000BD4202D0284600F0F5FA6FF00800E2E7BE
:1054A00009F1040800E0A046288904F021F9B08041
:1054B000A07A11218DE80302E37A5246414628463C
:1054C00004F09EFA0446BD4202D0284600F0DAFA03
:1054D0002046C8E7F8B505460E4614461F46204646
:1054E00004F09AF938B100903B46224631462846EE
:1054F000FFF795FFF8BD6FF00300F8BD838A021D2A
:10550000E8E770B504460D461646628A002A05D1C2
:1055100021462046FFF754FF002810D155B12868D6
:105520006060A682207C40F0040020741F4A10684E
:10553000014606E00020F3E7844201D1002070BD5F
:10554000C0680028F8D1E160146070BD184909688E
:10555000416000218182017C21F0040101747047C7
:105560008161C261704711490A68824209D1D268DB
:105570000A6008E0D16819B1814201D1C168D160E7
:10558000D268002AF6D10146012000F09FB910B57B
:10559000012000F08CF904462CB12021204605F0B2
:1055A00082FFFF20E072204610BD00009000002026
:1055B000E47B0108704710B5FFF7FCFF04F060FFC3
:1055C00000F02DF800F04CF9BDE8104003F050BD9C
:1055D00030B5A14C018822681144931C88420DD03B
:1055E0000D795DB96568A94208D0A5688D4200D1E2
:1055F000A0600D8805800988851ACD524188114424
:1056000081420BD00D79002D08D1A568854200D1CB
:10561000A16004880C800088891AC15230BD10B581
:105620008E488D4C20F0030020604FF4A051018083
:1056300000224280027100F5A050606001220271D8
:1056400001804180012004F0D4FEE0602068A06069
:1056500010BD70B50446002C19D07F4D28688442D7
:1056600015D36868844212D20021E86804F0DCFE99
:10567000A4F1080000210171A968884200D2A86045
:10568000FFF7A6FFE868BDE8704004F0F2BE70BD09
:105690002DE9F0470746C91C4FF6FC7001EA0004EB
:1056A0000C2C00D20C244FF4A0594C4502D90020F8
:1056B000BDE8F087DFF8A081D8F80000874203D367
:1056C000D8F804108F4201D33846F1E7A7F1080556
:1056D000281A86B22888801B08381FFA80FA544599
:1056E00002D94FF00000E3E701D13846E0E74FF080
:1056F0000001D8F80C0004F097FE2888D8F80020A4
:10570000811800230879E8B104F11400504513D83A
:105710003019083080B21118D8F80840A14201D2DF
:10572000C8F808100B712B880B804E8028800988E0
:10573000494501D0921C8852D8F80C0004F099FE1B
:105740003846B5E7B1F800C03019083080B2D8F853
:1057500008408C4202D11118C8F8081011180B71BA
:10576000A1F800C04E80288009884945E4D0921CE9
:105770008852E1E72DE9F04100280ED0C01C4FF619
:10578000FC7100EA01050C2D00D20C254FF4A05746
:10579000BD4204D90020BDE8F0810020FBE72E4E79
:1057A0000021F06804F040FED6F808C03068ACEB89
:1057B000000189B2C5F5A05338E0441822799ABB9C
:1057C0002288521A083AAA422FD3228805F11403DC
:1057D000521A083A4FF001089A4211D34A19083276
:1057E00093B2C21800251571258815805180238039
:1057F00084F804801188B94204D0821C8B5201E0E5
:1058000084F80480644503D008E009880144B1604D
:10581000B1680A7912B172689142F6D1F06804F069
:1058200028FE04F10800B6E7FFE7415A8B42C4DCCA
:10583000F06804F01EFE0020ADE770B54843054651
:1058400080B2FFF797FF04461CB12946204605F0B9
:105850002AFE204670BD000094000020BB3F0020BF
:10586000F0B50020401C80B20C28FBD31C4820F06F
:10587000030100201A4B1B4D0026333B05F1180491
:1058800043F82060002209E053F820700F6043F8CD
:10589000201035F810703944521C92B234F8107050
:1058A0009742F1D8401C80B20C28E9D3F0BD0146E4
:1058B0000C2901D300207047094A333A52F82100DD
:1058C0000028F8D0036842F821307047002906D03C
:1058D000034A333A52F820300B6042F820107047E8
:1058E000FF530020A07B0108002902D00968C16095
:1058F00070470021FBE7002902D0096881607047EA
:105900000021FBE770B505460C46696820688842AF
:105910001ED0594800680AE001686A68914205D1C2
:10592000C668012100F0E8FE304600E0C0680028AB
:10593000F2D15248006809E007D0016829B16A68CD
:10594000914202D144B121680160C0680028F3D1BE
:105950002CB12068686070BD4FF00001F4E74FF093
:105960000000F7E770B5064614461D463046FFF7BF
:10597000C9FF21463046FFF7BEFF29463046BDE845
:105980007040B1E72DE9F04106AD0446E0CD0020BE
:105990006060A060E06084F8310020626062E561D0
:1059A000374D287884F83400401C28702761204641
:1059B000FFF7D8FF2046B04710B10020BDE8F081C6
:1059C000686820606C602046F8E72D498860704761
:1059D000002816D02A4B5968814209D101685960C4
:1059E0000AE00A68824202D102680A6002E01146B7
:1059F0000029F6D1002904D09968814201D1002004
:105A0000E3E7704710B50146002905D088783038A3
:105A1000C2B21B48406810E0002010BD90F834303E
:105A2000934209D10B7890F83240A34204D14B78CD
:105A300090F83340A342F0D000680028EED110BDAA
:105A400090F83110CA0708D141F0010180F83110F7
:105A5000890602D5011D04F06FBA704790F8311025
:105A6000CA0703D021F0010180F83110704790F887
:105A7000310000F001007047C8000020C400002081
:105A8000A400002070B5002801D0002407E0002009
:105A900070BDC189491E89B2C18121B10020002891
:105AA000F7D1204670BD0568017B032909D0012983
:105AB0000CD002290AD0FFF7CCFD641CE4B22846C2
:105AC000EDE701460B20FFF701FFF6E701460A204C
:105AD000FFF7FCFEF1E72DE9F0470D4617460026DB
